:100000000C942A000C9434000C9434000C943400AA
:100010000C9434000C9434000C9434000C94340090
:100020000C9434000C9434000C9434000C94340080
:100030000C9434000C9434000C9434000C94340070
:100040000C9434000C9434000C9434000C94340060
:100050000C94340011241FBECFE5D4E0DEBFCDBF29
:100060000E9436000C944C000C94000081B38F6009
:1000700081BB12BA81E090E001C0892F82BB2FEFD3
:1000800039E648E1215030404040E1F700C000002F
:0C0090008F5F803190F7F2CFF894FFCF23
:00000001FF
