S00D000056694475332E737265636C
S11300000C942A000C9434000C9434000C943400A6
S11300100C9434000C9434000C9434000C9434008C
S11300200C9434000C9434000C9434000C9434007C
S11300300C9434000C9434000C9434000C9434006C
S11300400C9434000C9434000C9434000C9434005C
S11300500C94340011241FBECFE5D4E0DEBFCDBF25
S11300600E9436000C9474000C94000084B38170D8
S113007084BB85B3817085BB84B3827084BB85B334
S1130080817085BB8FEF81BB12BA40E050E067E01E
S113009021E030E0989B0FC07FE788E391E0715046
S11300A080409040E1F700C00000989904C04F5F81
S11300B048300CF0452F999B0EC07FE788E391E010
S11300C0715080409040E1F700C00000999903C04E
S11300D041500AF4462FC901042E02C0880F991F0B
S10F00E00A94E2F782BBD6CFF894FFCF5D
S9030000FC
