:100000000C9469000C94820A0C9486000C9486006F
:100010000C9486000C9486000C9486000C94860048
:100020000C9486000C9486000C9486000C94860038
:100030000C9486000C9486000C9486000C94860028
:100040000C9486000C9486000C9486000C945B0A39
:100050000C94860065059F055B055B055B055B05EC
:100060005B055B055B055B05DE05F90521064005C3
:10007000C006E506FC065B055B055B0513072A0762
:100080005B055B055B055B055B055B055B055B0570
:100090003A0751075B055B055B055B055B055B0587
:1000A0005B055B0561078A07A807E7075B055B053A
:1000B0005B055B055B055B05F207190838084A0814
:1000C0005B055B055B055B055B055B05510872081D
:1000D000E70811241FBECFE5D4E0DEBFCDBF10E09E
:1000E000A0E6B0E0E8EAFAE102C005900D92A2367F
:1000F000B107D9F722E0A2E6B0E001C01D92A03C12
:10010000B207E1F70E94350A0C94520D0C940000DE
:1001100096B3982321F496B39823E9F302C080E0C4
:10012000089581E008958A362FEF920714F48AE645
:100130009FEF8739910514F086E990E046E0489FEB
:100140009001499F300D1124C9018E54934F9BBDDE
:100150008ABD0895CF93DF93D62F682F70E080E09B
:1001600090E00E94A20B20E030E040E05FE30E94BC
:100170002E0C0E94740BC62F6D2F70E080E090E073
:100180000E94A20B20E030E040E05FE30E942E0CD2
:100190000E94740B939888ECC89F9001112439BD7C
:1001A00028BD96982FEF629FC001112464E670E08D
:1001B0000E94910C63BDDF91CF9108958FB9779B19
:1001C000FECF08954F925F926F927F928F929F928F
:1001D000AF92BF92CF92DF92EF92FF926B017C01C0
:1001E0008AE0482E512C612C712CC701B601A30165
:1001F00092010E94A50C60686093A20294E6892E89
:10020000912CA12CB12CC701B601A50194010E942B
:10021000A50CA30192010E94A50C722EC701B60184
:1002200028EE33E040E050E00E94A50CF22EA5013C
:1002300094010E94A50CFF2011F080E101C080E034
:100240008F298093A502922F882311F090E202C09B
:100250002111FCCF292B2093A402882311F080E4E4
:1002600005C02111FCCF7110FACF80E0782A70927E
:10027000A302FF90EF90DF90CF90BF90AF909F9040
:100280008F907F906F905F904F900895CF93809163
:10029000A102843021F08F5F8093A10202C01092EE
:1002A000A1028091A102813059F038F0823059F0DA
:1002B000833061F4C091A2020AC0C091A50207C0B8
:1002C000C091A40204C0C091A30201C0C0E080910B
:1002D000A60280950E94DE008C2F0E94DE00C49A48
:1002E000C498CF9108950C944601806487B9369ADA
:1002F000349BFECF84B195B10895DF92EF92FF92C7
:100300000F931F93CF93DF93C0E0D0E0D12C01E097
:1003100010E08C2F0E9475017C018C2F0E947501CA
:100320008E0D9F1D8835924040F498010C2E01C01F
:10033000220F0A94EAF7D22A08C098010C2E01C0B5
:10034000220F0A94EAF72095D2222196C830D105CF
:1003500001F7D092A6028D2DDF91CF911F910F91C1
:10036000FF90EF90DF9008950E9446010C947D016C
:1003700080E487B987E886B981EF87BB8FEF88BBB8
:1003800014BA85BB8BEF81BB12BA80E58DB981E0D1
:100390008EB98CE083BF8EE38CBF82E089BF8FB5BE
:1003A000826A8FBD8EB58A618EBD80E29EE497BD64
:1003B00086BD8FE685BD13BC789485B78A6085BFFE
:1003C0008BB780648BBF0895CF93DF9380E090E07C
:1003D0000E949300C0E0D1E082E00E948800811179
:1003E0001EC084E00E9488008111C15088E00E94F4
:1003F00088008111CF5FC83008F0C0E08C2F0E94C8
:100400007501BC0180E090E00E94E2008D2F0C2E6F
:1004100001C0880F0A94EAF78093A602DDCF86E038
:1004200090E00E94320D8F3F09F480E580936E00CA
:1004300082E00E948800882371F060916E0086E05F
:1004400090E00E94400D87E090E00E94320D8F3FC7
:10045000F1F482E31CC084E00E948800882329F024
:1004600080916E008A5080936E0088E00E94880020
:10047000882329F080916E00865F80936E006091E2
:100480006E0070E080E090E00E94E200D1CF8093A7
:10049000BF0282E00E948800882389F06091BF0239
:1004A00087E090E00E94400D84E090E00E943A0DC9
:1004B0008F3F2FEF9207F9F489E690E01CC084E0AB
:1004C0000E948800882329F08091BF028150809388
:1004D000BF0288E00E948800882329F08091BF0233
:1004E0008F5F8093BF026091BF0270E080E090E078
:1004F0000E94E200CECF9093BE028093BD0280E0C6
:1005000090E00E94930082E00E948800882399F086
:100510006091BD027091BE0284E090E00E944D0D9A
:1005200082E090E00E943A0D8F3F2FEF920741F555
:1005300081E090E025C084E00E948800882349F093
:100540008091BD029091BE020A979093BE02809363
:10055000BD0288E00E948800882349F08091BD0296
:100560009091BE020A969093BE028093BD02609164
:10057000BD027091BE0280E090E00E94E200BFCF19
:100580009093A8028093A70282E00E9488008823AB
:1005900099F06091A7027091A80282E090E00E9419
:1005A0004D0D80E090E00E943A0D8F3F2FEF9207B3
:1005B00041F58BE090E025C084E00E94880088230C
:1005C00049F08091A7029091A80201979093A80208
:1005D0008093A70288E00E948800882349F08091D8
:1005E000A7029091A80201969093A8028093A70277
:1005F0006091A7027091A80280E090E00E94E20062
:10060000C3CF9093AA028093A90282E00E9488003F
:10061000882351F06091A9027091AA0280E090E0D5
:10062000DF91CF910C944D0D84E00E9488008823C7
:1006300049F08091A9029091AA020A979093AA0288
:100640008093A90288E00E948800882349F0809165
:10065000A9029091AA020A969093AA028093A902F5
:100660006091A9027091AA0280E090E00E94E200ED
:10067000CCCFCF93DF93FB01E9011A821B821C824E
:100680001D82198218829F838E83798768875B8792
:100690004A87BC016F5F7F4F8FEF9FE70E94910CED
:1006A0007D876C879F012F5F3F4F442737FD409523
:1006B000542F6FEF7FEF8FEF9FE30E94C70C2E87C1
:1006C0003F87488B598BDF91CF910895CF92DF926E
:1006D000EF92FF920F931F93CF93DF938B01FA0159
:1006E0009C01261B370B848595858217930784F020
:1006F000919581959109281739076CF0868197812A
:10070000289FE001299FD00D389FD00D112405C0EE
:10071000CFEFDFE702C0C1E0D0E8442737FD4095C6
:10072000542F82819381A481B581280F391F4A1FDC
:100730005B1F86859785A089B18982179307A407D7
:10074000B5075CF482839383A483B583CC24CA94D5
:10075000DC2CEC2C3FE3F32E21C0B095A0959095B6
:1007600081959F4FAF4FBF4F281739074A075B0747
:100770005CF482839383A483B583CC24C394D12C6B
:10078000E12C20ECF22E0AC022833383448355836C
:10079000A085B1850E94EC0C6B017C018081918168
:1007A000801B910BA285B3858A9F90018B9F300D92
:1007B0009A9F300D112411830083BE01882777FD95
:1007C0008095982F6C0D7D1D8E1D9F1D8901222700
:1007D00017FD2095322F600F711F821F931F20E895
:1007E00030E040E050E00E94C70C213080E838073C
:1007F0008FEF4807580724F421E030E84FEF5FEF10
:10080000DA01C901811520E89207A105B10524F09C
:100810008FEF9FE7A0E0B0E0DF91CF911F910F91A4
:10082000FF90EF90DF90CF900895CF93DF932091CA
:100830006C0030916D00D901A157BF4F211592E096
:10084000390728F0E0E9F0E0CFE8D0E008C08C9369
:100850002F5F3F4F30936D0020936C0006C0EA1766
:10086000FB0719F091919993FACFE0916C00F09108
:100870006D00E257FF4F8083DF91CF910895209163
:100880006C0030916D008217930728F4FC01E1574A
:10089000FF4F8081089580E0089520E030E0AC01B2
:1008A000022E02C0559547950A94E2F740FF0FC00B
:1008B000235031098091BF02829FA001839F500D78
:1008C000112450936B0040936A00CA0108952F5F72
:1008D0003F4F2330310519F7089582FD05C081FD92
:1008E00006C080FD07C0089520E030E005C021E08B
:1008F00030E002C022E030E083E090E0821B930B06
:100900004091BF02489F9001499F300D11243093C0
:100910006B0020936A00C9010895803121F0982F5F
:100920009F7E983039F410926B0010926A0080E03C
:1009300090E0089591E0282F207E09F490E0282F80
:10094000277021F09E5F923001F511C0913021F5A2
:1009500020916A0030916B0082958695877090E0B7
:1009600037FF0C946D040E944D04889708952091E0
:100970006A0030916B0090E01216130614F00C948C
:100980004D040E946D0488960895933029F4809157
:100990006A0090916B00089508950E947D018F3F39
:1009A00049F00E947D01982F9E7781E09E3719F0D3
:1009B00080E0089581E00895C0916C00D0916D00B1
:1009C000219784EB91E0909361008093600084E034
:1009D0000E948800882351F080916C0090916D00F6
:1009E000892B11F0219702C0CFEFDFEF88E00E9442
:1009F0008800882371F080916C0090916D009C01BB
:100A0000215031098217930710F4219602C0C0E0EB
:100A1000D0E0CE010E943F04682F70E080E090E0BB
:100A20000E94E200D4CF809168008F5F80936800BD
:100A30008436C0F00E947D0181508E3F28F0809165
:100A400069008F5F8093690080916900843140F074
:100A50001092690060E080E00E94AA000E94DC041D
:100A6000109268000C944601109269001092680080
:100A700084E00E948800811122C00E947D01F8CF8D
:100A800062E382E30E94AA00809164009091650075
:100A90008536910508F05EC18091660090916700EF
:100AA000C39708F465C1CAE18C2F90E0FC013B9725
:100AB000EF33F10530F00E94CD04811108C2C1E08E
:100AC000F3CFE65DFF4F0C94E60C6BE070E080E046
:100AD00090E00E94E2008BE00E9415040E947D01DC
:100AE0008C7C8C3029F158F48823D9F08430E1F6DD
:100AF0006FE080E50E94AA0082E290E065C3803842
:100B000049F0803C89F666EF80E50E94AA0086E401
:100B100090E05AC365E080E50E94AA008FE290E071
:100B200053C36AE080E50E94AA008DE290E04CC3C6
:100B300064E180E50E94AA008AE190E03CC06CE09C
:100B400070E080E090E00E94E2008CE00E941504DA
:100B50000E947D0183738330C9F060F48823E9F03B
:100B6000813009F0A1CF60E585E00E94AA0081ED07
:100B70009FEF2AC38032C1F0803309F095CF60E542
:100B800084E10E94AA0086EE9FEF15C060E586EF23
:100B90000E94AA008CE99FEF17C360E58AE00E94DB
:100BA000AA0083ED9FEF10C360E58FE00E94AA00CA
:100BB0008EED9FEF09C30E94930081CF65E170E045
:100BC00080E090E00E94E20085E10E94150480E050
:100BD00090E00E9493006CE38CE30E94AA001092C4
:100BE0006700109266001092650010926400C6E1E2
:100BF0005BCF66E170E080E090E00E94E20082E07E
:100C00000E94150480E090E00E9493006CE38CE366
:100C10000E94AA0080916600909167008734910538
:100C200038F480916400909165000B9708F43CCFF4
:100C30001092670010926600109265001092640096
:100C40008EC067E170E080E090E00E94E20087E102
:100C50000E9415048091640090916500853691058D
:100C6000B0F00E947D01883F31F41092670010922D
:100C70006600C8E119CF0E947D01803FB1F30E9458
:100C80007D01803E91F30E947D018C3F71F3809144
:100C900064009091650085369105B0F00E947D0159
:100CA0008F3131F41092670010926600C9E1FCCEDA
:100CB0000E947D018730B1F30E947D018F3091F356
:100CC0000E947D018F3371F30E947D018E77803108
:100CD000A1F1B8F4863071F140F4823059F18430DA
:100CE00009F0E2CE68EF87E145C2883001F18C302F
:100CF00009F0DACE6DEF87E10E94AA008AE090E069
:100D000063C28033E9F040F4883159F0803209F051
:100D1000CBCE64E18BEF48C28034C9F08036B9F0A5
:100D2000C3CE80E090E00E94930064E14EC163E096
:100D300087E11BC263EF87E122C264E185E02DC237
:100D400064E180E00E94AA0086EF9FEF3DC264E16B
:100D50008AE02FC20E947D018770873011F4C7E1BD
:100D6000A3CE0E947D018F708F3009F095CEF7CF12
:100D700080916400909165000B9708F094CE94CE1A
:100D800062E382E30E94AA00809164009091650072
:100D90008536910540F48091660090916700C39775
:100DA00068F0CBE181CE0E947D01807E803EB9F269
:100DB0000E947D01807F803F71F7D1CF80916400D8
:100DC000909165000B9768F76FCE68E170E080E066
:100DD00090E00E94E2008AE69FEF0E94930088E183
:100DE0000E9415046AE582EE0E94AA001092670034
:100DF00010926600CFE158CE69E170E080E090E0AB
:100E00000E94E20089E10E94150486E990E00E94B8
:100E1000930062EE8AE50E94AA0010926700109289
:100E20006600C9E241CE6FE170E080E090E00E9490
:100E3000E2008FE10E9415048091660090916700A6
:100E40008B3F910508F430CE109267001092660037
:100E5000C0E22ACE60E270E080E090E00E94E20012
:100E600080E20E9415040E947D01877E803209F095
:100E70001BCEB3C069E270E080E090E00E94E20027
:100E800089E20E9415048091660090916700893C78
:100E9000910508F409CE1092670010926600CAE22C
:100EA00003CE6AE270E080E090E00E94E2008AE215
:100EB0000E9415040E947D01877E843009F0F4CDE4
:100EC0008CC080EE90E00E947D01803E11F4C5E16F
:100ED000EBCD80EF90E00E947D01803FC1F363E3A2
:100EE00070E080E090E00E94E20083E30E9415043D
:100EF00080E090E00E94930066E486E40E94AA00ED
:100F000010926700109266001092650010926400C3
:100F1000C4E3CACD80916600909167008536910543
:100F200030F480916400909165000B9728F0109246
:100F3000670010926600C5E30E947D01807E803EBE
:100F400031F20E947D01807F803F09F0ADCDBFCF9F
:100F50000E947D0181110EC086E490E00E94930002
:100F60006CE382E30E94AA00109267001092660070
:100F7000C6E39ACD0E947D01877E883048F4863092
:100F8000C0F4882381F08350823008F08DCD11C0E9
:100F90008036B1F018F4803299F086CD803C81F033
:100FA000803E71F081CD80E090E00E9493006EE180
:100FB00005C08FE090E00E94930064E18EE1D0C014
:100FC00081EF9FEF0E9493006EE184E1C9C00E940F
:100FD0007D018C708C3009F067CD10926700109203
:100FE00066006DCD0E947D018770873009F46FCF58
:100FF0000E947D018F708F3009F469CF6DE370E03E
:1010000080E090E00E94E2008DE30E94150480E001
:1010100090E00E9493006AE58AE50E94AA0010927F
:101020006700109266001092650010926400CEE393
:101030003BCD80916600909167008536910530F434
:1010400080916400909165000B9728F010926700E2
:1010500010926600CFE30E947D018770873009F40B
:1010600036CF0E947D018F708F3009F01DCD2FCFBC
:101070000E947D01811118CD8AEB9FEF0E949300A1
:1010800068E28CE30E94AA0010926700109266004A
:10109000C0E40ACD0E947D018073803309F004CD45
:1010A0009CCF67E470E080E090E00E94E20087E47B
:1010B0000E94150464E684E60E94AA0080916600FE
:1010C000909167008536910538F480916400909185
:1010D00065000B9708F4E8CC109267001092660048
:1010E000C8E4E2CC0E947D0181110AC080E090E05A
:1010F0000E94930064E684E60E94AA00C9E4D4CC6E
:101100000E947D018E77803109F445C098F48630C5
:10111000D9F140F48230C1F1843009F0C5CC61E4EA
:101120008AE52DC08830F9F08C3009F0BDCC66E43A
:101130008AE520C08033B1F140F4883159F0803223
:1011400009F0B2CC6AE581E434C08034B9F180366C
:10115000A9F1AACC80E090E00E94930064E684E6C6
:101160000E94AA00A1CC61E18AE50E94AA0088E061
:1011700090E02AC00E94AA008DE090E025C00E9465
:10118000AA0082E190E020C06CE38AE50E94AA00F8
:101190008AE190E019C06AE58BE40E94AA0088EF1A
:1011A0009FEF12C06AE586E40E94AA0083EF9FEFDA
:1011B0000BC00E94AA008EEE9FEF06C06AE58CE38A
:1011C0000E94AA0086EE9FEF0E9493006DCC80E003
:1011D00090E00E94930064E684E60E94AA000E94C8
:1011E0007D0181116CCC60CC813019F480E590E0F8
:1011F00002C080EB9FEF0E9493000E947D0182302D
:10120000E0F308954F925F926F927F928F929F9238
:10121000AF92BF92CF92DF92EF92FF920F931F9304
:10122000CF93DF93EC01E090BF020E2D10E083E03E
:10123000E89E70011124CE01D7FF04C088279927AA
:101240008C1B9D0B60916E008E159F0551F4862FAF
:1012500090E02BEA629F612D11246695861B91090F
:101260008AC0209709F485C04801AA2497FCA0945D
:10127000BA2C70E080E090E01C161D06CCF50E94B0
:10128000A20B2B013C01B7016C1B7D0B882777FD5E
:101290008095982F0E94A20B20E030E040E450E4BB
:1012A0000E94070B6B017C01C501B4010E94A20BD7
:1012B0009B01AC01C701B6010E942E0C9B01AC0141
:1012C000C301B2010E942E0C0E946F0B7727882762
:1012D00077FD8095982F0E94A20B2AE939E949E110
:1012E0005EE30E942E0C9B01AC01C301B2013DC024
:1012F0000E94A20B6B017C012DEF2003B001219F06
:10130000700D11246C1B7D0B882777FD8095982F1D
:101310000E94A20B20E030E040E450EC0E94070B5A
:101320002B013C01C501B4010E94A20B9B01AC0141
:10133000C301B2010E942E0C9B01AC01C701B60192
:101340000E942E0C0E946F0B7727882777FD8095CF
:10135000982F0E94A20B2AE939E949E15EE30E9435
:101360002E0C9B01AC01C701B6010E94A20A0E948B
:101370006F0B862F90E0DF91CF911F910F91FF901F
:10138000EF90DF90CF90BF90AF909F908F907F9025
:101390006F905F904F900895FF920F931F93CF939C
:1013A000DF93109269000E94E4014091A9025091DC
:1013B000AA026091A7027091A8022BEA32E0809104
:1013C000BD029091BE020E94390380916E00682F89
:1013D0000E94AA0010E080916900843649F460E020
:1013E00080E0DF91CF911F910F91FF900C94AA00A4
:1013F0000E947D01C82F8FEF8C0F8E3F50F080919F
:1014000069008F5F80936900112319F0812F0E947A
:10141000F4088C2F8F718F3109F411E08C2F887FA5
:10142000883F09F412E08C2F0E948D04EC014BEAF6
:1014300052E0BC0180E090E00E946603F82E092F84
:10144000CE010E940209682F0E94AA008F2D902FC2
:1014500097FD0196959587950E949300612F70E006
:1014600080E090E00E94E200B6CF0E94B80168EBF5
:1014700072E280E090E00E94E20080E090E00E9452
:101480009300C3E7D1E082E00E948800882331F016
:10149000D0936100C09360000E94CC0984E00E9458
:1014A0008800882381F383E195E090936100809325
:1014B00060000E9434051F920F920FB60F92112404
:1014C0002F933F934F935F936F937F938F939F934C
:1014D000AF93BF93EF93FF93E0916000F0916100B1
:1014E0000995FF91EF91BF91AF919F918F917F915E
:1014F0006F915F914F913F912F910F900FBE0F9081
:101500001F9018951F920F920FB60F9211248F9370
:101510009F9380916400909165000196909365007F
:101520008093640080916200909163000196909393
:101530006300809362009F918F910F900FBE0F9078
:101540001F9018955058BB27AA270ED04DC13ED1E9
:1015500030F043D120F031F49F3F11F41EF433C139
:101560000EF4E095E7FB29C1E92F4FD180F3BA17BC
:10157000620773078407950718F071F49EF567C139
:101580000EF4E0950B2EBA2FA02D0B01B90190019E
:101590000C01CA01A0011124FF27591B99F0593FE2
:1015A00050F4503E68F11A16F040A22F232F342F2A
:1015B0004427585FF3CF469537952795A795F04078
:1015C0005395C9F77EF41F16BA0B620B730B840B8D
:1015D000BAF09150A1F0FF0FBB1F661F771F881F45
:1015E000C2F70EC0BA0F621F731F841F48F487959D
:1015F00077956795B795F7959E3F08F0B3CF93958C
:10160000880F08F09927EE0F9795879508950CD0CD
:10161000EBC0E3D040F0DAD030F021F45F3F19F0B6
:10162000CCC0511115C1CFC0F0D098F39923C9F3A4
:101630005523B1F3951B550BBB27AA2762177307D8
:10164000840738F09F5F5F4F220F331F441FAA1F8C
:10165000A9F333D00E2E3AF0E0E830D0915050404C
:10166000E695001CCAF729D0FE2F27D0660F771FFA
:10167000881FBB1F261737074807AB07B0E809F0DC
:10168000BB0B802DBF01FF2793585F4F2AF09E3F71
:10169000510568F092C0DCC05F3FECF3983EDCF38C
:1016A000869577956795B795F7959F5FC9F7880FEA
:1016B000911D9695879597F90895E1E0660F771F3C
:1016C000881FBB1F621773078407BA0720F0621BCD
:1016D000730B840BBA0BEE1F88F7E095089504D0C6
:1016E0006894B111B5C0089598D088F09F5790F0D4
:1016F000B92F9927B751A0F0D1F0660F771F881F37
:10170000991F1AF0BA95C9F712C0B13081F09FD075
:10171000B1E008959CC0672F782F8827B85F39F013
:10172000B93FCCF3869577956795B395D9F73EF495
:1017300090958095709561957F4F8F4F9F4F08953D
:10174000E89409C097FB3EF490958095709561955B
:101750007F4F8F4F9F4F9923A9F0F92F96E9BB2711
:101760009395F695879577956795B795F111F8CF8D
:10177000FAF4BB0F11F460FF1BC06F5F7F4F8F4FF8
:101780009F4F16C0882311F096E911C0772321F0EE
:101790009EE8872F762F05C0662371F096E8862F86
:1017A00070E060E02AF09A95660F771F881FDAF7DD
:1017B000880F9695879597F9089597F99F6780E820
:1017C00070E060E008959FEF80EC089500240A9493
:1017D0001616170618060906089500240A9412160C
:1017E0001306140605060895092E0394000C11F43F
:1017F000882352F0BB0F40F4BF2B11F460FF04C0EC
:101800006F5F7F4F8F4F9F4F089557FD9058440F44
:10181000551F59F05F3F71F04795880F97FB991F4F
:1018200061F09F3F79F0879508951216130614060C
:10183000551FF2CF4695F1DF08C016161706180699
:10184000991FF1CF86957105610508940895E89474
:10185000BB2766277727CB0197F908950BD0C4CF14
:10186000B5DF28F0BADF18F0952309F0A6CFABCF8B
:101870001124EECFCADFA0F3959FD1F3950F50E06E
:10188000551F629FF001729FBB27F00DB11D639F32
:10189000AA27F00DB11DAA1F649F6627B00DA11DD8
:1018A000661F829F2227B00DA11D621F739FB00D7E
:1018B000A11D621F839FA00D611D221F749F3327EE
:1018C000A00D611D231F849F600D211D822F762F87
:1018D0006A2F11249F5750408AF0E1F088234AF084
:1018E000EE0FFF1FBB1F661F771F881F91505040D0
:1018F000A9F79E3F510570F060CFAACF5F3FECF390
:10190000983EDCF3869577956795B795F795E795BB
:101910009F5FC1F7FE2B880F911D9695879597F9CC
:10192000089597FB072E16F4009407D077FD09D091
:101930000E94F40C07FC05D03EF4909581959F4FD2
:101940000895709561957F4F0895A1E21A2EAA1B04
:10195000BB1BFD010DC0AA1FBB1FEE1FFF1FA2175F
:10196000B307E407F50720F0A21BB30BE40BF50B5C
:10197000661F771F881F991F1A9469F760957095E5
:10198000809590959B01AC01BD01CF010895052E76
:1019900097FB1EF400940E94DE0C57FD07D00E94B6
:1019A000A50C07FC03D04EF40C94DE0C509540952A
:1019B000309521953F4F4F4F5F4F089590958095FB
:1019C000709561957F4F8F4F9F4F0895EE0FFF1FCA
:1019D0000590F491E02D0994B7FF0C94080D0E9436
:1019E000080D821B930B0895AA1BBB1B51E107C076
:1019F000AA1FBB1FA617B70710F0A61BB70B881F9F
:101A0000991F5A95A9F780959095BC01CD0108952D
:101A10000E94130DA59F900DB49F900DA49F800D63
:101A2000911D11240895A29FB001B39FC001A39FEF
:101A3000700D811D1124911DB29F700D811D112407
:101A4000911D0895DC01CB01FC01E199FECF06C098
:101A5000FFBBEEBBE09A31960DB20D924150504063
:101A6000B8F70895E199FECF9FBB8EBBE09A992706
:101A70008DB30895A8E1B0E042E050E00C94240D4D
:101A8000262FE199FECF9FBB8EBB2DBB0FB6F894DE
:101A9000E29AE19A0FBE019608950E94400D272F09
:081AA0000C94410DF894FFCFF6
:021AA800B40187
:00000001FF
