S00C0000436172312E73726563D1
S11300000C94D8000C94CB040C94EA000C94EA00F1
S11300100C94EA000C94EA000C94EA000C94EA00B4
S11300200C94EA000C94EA000C94EA000C94EA00A4
S11300300C94EA000C94EA000C94EA000C94EA0094
S11300400C94EA000C94EA000C94EA000C949E04CC
S11300500C94EA006F056705670567056705670582
S1130060670567056705670529067F066705670550
S1130070670567056705670567056705670567051C
S1130080670567056705670567056705670567050C
S113009067056705670567056705670567056705FC
S11300A067056705670567056705670567056705EC
S11300B06705670567056705D6060B07200767050B
S11300C06705670567056705670567055D079207A7
S11300D0A707E3056305CD056305D8056305B705E3
S11300E0630563056305C2056305CD056305F00576
S11300F06305630563056305630563056305AC0573
S1130100630563056305B7056305630563050606B3
S1130110630563056305630563056305630563059B
S11301206305630563056305630563056305FB05F3
S11301306305630563056305630563056305F005EE
S113014063056305630563056305630563051C06B1
S1130150630563056305630563056305630563055B
S1130160630563056305630563056305630563054B
S1130170630563056305630563056305630563053B
S1130180630563056305630563056305630511067C
S1130190630563056305630563056305630563051B
S11301A06305630563056305630563056305060667
S11301B011241FBECFE5D4E0DEBFCDBF20E0A0E612
S11301C0B0E001C01D92AC3AB207E1F70E942305EA
S11301D00C94600A0C940000982F86B38E708E30B5
S11301E081F02FEF37EE83E0215030408040E1F77B
S11301F000C0000026B3292B81E0921719F080E09B
S1130200089580E0089583B380958F7008958937A9
S11302102FEF920714F489E79FEF8838910514F0C3
S113022087E890E0880F991F880F991F8651944F93
S11302309BBD8ABD08958F929F92AF92BF92CF9239
S1130240DF92EF92FF920F931F93CF93DF938B0173
S113025080906A0090906B00A0906C00B0906D004C
S1130260BC01882777FD8095982F0E94E408A5019A
S113027094010E9474090E94B1086B017C01EB0196
S1130280B801882777FD8095982F0E94E4089B0188
S1130290AC01C501B4010E9474090E94B1089B011C
S11302A0DD235CF0909A9198E8ECEC9DA001ED9D23
S11302B0500D112459BD48BD0BC09098919AE8E3A4
S11302C0EC9DA001ED9D500D5C19112459BD48BD54
S11302D033237CF0939A96984FEF469F9001479F63
S11302E0300D1124C90164E670E00E94FB0963BD6E
S11302F00FC09398969A41E0469F9001479F300D16
S1130300361B1124C90164E670E00E94FB0963BD39
S1130310DF91CF911F910F91FF90EF90DF90CF90DD
S1130320BF90AF909F908F9008958FB9779BFECF29
S113033008950F931F93CF93DF93AC019C01ADEC11
S1130340BCEC0E94150A9695879596958795969587
S113035087959C01220F331F880F991F880F991FBF
S1130360880F991F820F931F9A01281B390BC9010B
S11303708068809377009A0136952795369527955E
S1130380ABE7B4E10E94150A9695879564E6689FE9
S11303909001699F300D1124CA01821B930B9C01AB
S11303A0ADECBCEC0E94150AFC01F695E795F695B8
S11303B0E795F695E7951E2FEA01D695C795D6954C
S11303C0C795D695C7959E01A5ECB0E20E94150A83
S11303D0929582958F7089279F70892768EE73E0C4
S11303E0869F9001879F300D969F300D1124421BEC
S11303F0530B9A013695279536952795ABE7B4E1CB
S11304000E94150AAC0156954795042F9E01A5EC50
S1130410B0E20E94150A929582958F7089279F7089
S11304208927882311F020E101C020E0822B8093EA
S11304307A00811115C001110CC00CC0112311F0F8
S113044080E403C080E001C080E4E82BE0937800FE
S11304500CC080E2482B40937900442379F3F4CF15
S113046040624093790080E4F0CFDF91CF911F91F7
S11304700F910895CF93E6E7F0E0908181E0890F32
S11304808083943019F41092760008C0813049F0CA
S113049028F0823049F0833051F00CC0C0917A00CA
S11304A00AC0C091790007C0C091780004C0C0910F
S11304B0770001C0C0E080917B0080950E94950187
S11304C08C2F0E949501C49AC498CF910895EF92FD
S11304D0FF920F931F93CF93DF930F2EFCE8EF2E21
S11304E0F0E0FF2EF02D0CE710E0C0E0D0E0E19941
S11304F0FECFCE010E94380AF701819391937F01C8
S1130500E199FECFCE0140960E94380AF80181930A
S113051091938F012296C031D10549F7CCE9D0E0FF
S11305204CE950E0ACE7B0E0ECE8F0E08191919167
S11305302D913D91820F931F969587958993999359
S1130540E417F50799F7DF91CF911F910F91FF9071
S1130550EF900895EF92FF920F931F93CF93DF9341
S11305600F2EFCE7EF2EF0E0FF2EF02D0CE810E04C
S1130570C0E0D0E0E199FECFF801619171918F0163
S1130580CE010E943E0AE199FECFF701619171917B
S11305907F01CE0140960E943E0A2296C031D105C9
S11305A049F7DF91CF911F910F91FF90EF9008953C
S11305B0806487B9369A349BFECF84B195B108958F
S11305C0CF92DF92EF92FF920F931F93CF93DF931B
S11305D0C82E0CE910E0C0E0D0E0D12CEE24E39466
S11305E0F12C8C2F0E94D802F801219131918F01B6
S11305F08217930740F497010C2E02C0220F331F79
S11306000A94E2F7D22A2196C830D10551F7D09244
S11306107B008D2D8C21DF91CF911F910F91FF9045
S1130620EF90DF90CF9008958F929F92AF92BF92F8
S1130630CF92DF92EF92FF920F931F93CF93DF93AA
S1130640CCE8D0E00CE710E00F2EFCE9EF2EF0E050
S1130650FF2EF02DD801FE0180E094E08193919368
S11306601D921D92EE15FF05C9F789E39BE10E94D7
S11306709901B02EA12E9C2E8D2EC12C87EF0E94A5
S1130680EC0081111FC00B2D1A2DC92DD82DDC2C87
S11306908D2D0E94D802288139818217930710F486
S11306A099838883F801208131812817390710F450
S11306B091838083D39422960E5F1F4FF8E0DF125C
S11306C0E7CFDCCFCCE9D0E0ACE7B0E0ECE8F0E099
S11306D0819191912D913D91820F931F96958795CC
S11306E089939993EE15FF0599F70E94AA0210E0E9
S11306F0F12CCBE7D0E001E08DEF0E94EC008823E1
S113070021F01F5F183008F01F2D8BEF0E94EC00C2
S11307108111115087EF0E94EC00811112C0E12F6A
S1130720F0E0EE0FFF1FE456FF4F808191810E949D
S11307309901802F012E01C0880F0A94EAF788835B
S1130740DBCFDF91CF911F910F91FF90EF90DF905E
S1130750CF90BF90AF909F908F90089580E487B919
S113076087E886B90E94670281EF87BB8FEF88BB59
S113077014BA85BB8BEF81BB12BA80E58DB981E0D9
S11307808EB98CE083BF8EE38CBF82E089BF82EA9E
S11307908FBD8AE18EBD80E29EE497BD86BD19BC03
S11307A018BC8FE685BD13BC789485B7836085BF7C
S11307B08BB780648BBF83E190E090937500809346
S11307C07400089510E0F12CCBE7D0E001E08DEF48
S11307D00E94EC00882359F060E070E084E690E029
S11307E00E941B018AE69FEF0E94070125C08BEF40
S11307F00E94EC00882321F01F5F1830E9F41BC02D
S113080087EF0E94EC00882359F064E670E080E0F2
S113081090E00E941B0186E990E00E9407010CC051
S113082060E070E080E090E00E941B0180E090E0D6
S11308300E94070101C01F2D812F0E94D8020E942F
S11308409901802F012E01C0880F0A94EAF788834A
S1130850BECF80E090E00E94070160E070E080E09D
S113086090E00E941B018FEF9FEF9093750080939F
S113087074000E940301682F70E080E090E00E9401
S1130880E40820E030E040E251E40E9449082DEC05
S11308903CEC4CEC5DE30E94E50760936E007093C2
S11308A06F00809370009093710060936A0070935E
S11308B06B0080936C0090936D0020E030E048EC76
S11308C052E40E9474090E94B608CB010E94990167
S11308D020E030E040E95FE360916A0070916B00D2
S11308E080916C0090916D000E9474099B01AC0191
S11308F063E373E383EB9FE30E94E4076093660082
S11309007093670080936800909369008FEF0E9452
S1130910E0028DEF0E94EC0081110FC08BEF0E946A
S1130920EC0081110E94E20387EF0E94EC0088230F
S113093009F49FCF0E9414039CCF08951F920F9235
S11309400FB60F9211242F933F934F935F936F939E
S11309507F938F939F93AF93BF93EF93FF93809174
S1130960620090916300019690936300809362000B
S11309700E943A02FF91EF91BF91AF919F918F91A5
S11309807F916F915F914F913F912F910F900FBE87
S11309900F901F9018951F920F920FB60F9211246B
S11309A08F939F9380916000909161000196909342
S11309B061008093600080917200909173000196B1
S11309C09093730080937200809165008F5F809391
S11309D065009F918F910F900FBE0F901F901895F7
S11309E08FEF0E94E0028F3F49F08EE70E94E00201
S11309F091E08E3709F090E0892F01C081E090E00A
S1130A0008958FE00E94E0028F3049F08FE10E9448
S1130A10E00291E08F3109F090E0892F01C081E07C
S1130A2090E0089580EF0E94E002803F49F088EF53
S1130A300E94E00291E0883F09F090E0892F01C014
S1130A4081E090E008950E94AE030E942904809101
S1130A506000909161000E9499018DEF0E94EC006A
S1130A60882321F010926100109260008BEF0E94A5
S1130A70EC00882361F381E080936400662463942E
S1130A800F2EFFE37F2EF02D0F2EF5E19F2EF02D7C
S1130A900F2EFEE35F2EF02D0F2EF5E38F2EF02D9B
S1130AA00F2EF4E34F2EF02DCAE0D0E00F2EFCE021
S1130AB03F2EF02DAA24AA94BA2C0F2EFBE02F2E41
S1130AC0F02D07E010E08091640090E001978F33EF
S1130AD09105E8F7FC01E65DFF4F0C940F0A81E0F5
S1130AE090E00E94990110937500009374000E9495
S1130AF0F004892B19F090926400E5CF0E9401055F
S1130B00892B61F0109261001092600010926300D2
S1130B101092620083E380936400D5CF0E94120593
S1130B20892B61F0109261001092600010926300B2
S1130B30109262008DE380936400C5CF8EE70E941B
S1130B40E00290E0FC013297EF36F10508F0BBCFEC
S1130B50E759FF4F0C940F0A80E090E00E940701D0
S1130B6064E670E084E690E00E941B01ACCF6AE585
S1130B7070E084E690E00E941B0180E190E00E9416
S1130B800701A1CF60E570E084E690E00E941B01BC
S1130B9088E190E00E94070196CF66E470E084E665
S1130BA090E00E941B018CE190E00E9407018BCF32
S1130BB06CE370E084E690E00E941B0189E390E01E
S1130BC00E94070180CF68E270E084E690E00E9412
S1130BD01B0182E590E00E9407012092640073CF1C
S1130BE064E670E08AE590E00E941B0180EF9FEFCD
S1130BF00E94070168CF64E670E080E590E00E94FF
S1130C001B0188EE9FEF0E9407015DCF64E670E050
S1130C1086E490E00E941B0184EE9FEF0E9407018E
S1130C2052CF64E670E08CE390E00E941B0187ECF5
S1130C309FEF0E94070147CF64E670E088E290E0EE
S1130C400E941B018EEA9FEF0E940701309264000C
S1130C503ACFD0937500C09374008BE090E00E946B
S1130C6099018CEC0E94E0028C30A9F128F48823CD
S1130C70E9F0843029F140C0803869F0803CE1F526
S1130C8066EF7FEF80E590E00E941B0186E690E02E
S1130C900E94070118CF65E070E080E590E00E94B3
S1130CA01B0187E590E00E9407010DCFBE0180E59E
S1130CB090E00E941B018BE490E00E94070103CFA7
S1130CC06FE070E080E590E00E941B0189E390E012
S1130CD00E940701F8CE64E170E080E590E00E9494
S1130CE01B0181E390E00E940701B0927500A0927D
S1130CF0740060926400E7CE20926400E4CE8CE03D
S1130D0090E00E949901D0937500C093740083E32E
S1130D100E94E002833059F028F48823F1F08130F6
S1130D2089F041C0803219F1803361F13CC060E543
S1130D3070E086EF9FEF0E941B018AE99FEF0E94FB
S1130D400701C1CE60E570E085E090E00E941B01E0
S1130D5089EA9FEF0E940701B6CE60E570E0CE01FC
S1130D600E941B0185EB9FEF0E940701ACCE60E55A
S1130D7070E08FE090E00E941B0186EC9FEF0E94E0
S1130D800701A1CE60E570E084E190E00E941B01C0
S1130D908FEC9FEF0E940701B0927500A09274003F
S1130DA06092640090CE309264008DCE83E390E034
S1130DB00E94990180EE0E94E002803E51F080EF93
S1130DC00E94E002803F29F088EF0E94E002883F01
S1130DD019F49092640077CE64E670E084E690E0C3
S1130DE00E941B018091600090916100499740F43A
S1130DF080916200909163008837910508F463CE76
S1130E00409264001092630010926200109261009C
S1130E101092600058CE84E390E00E94990183E22E
S1130E2090E00E94070160E570E084E690E00E9493
S1130E301B0180926400109263001092620043CE02
S1130E4085E390E00E949901809160009091610097
S1130E508536910508F5609162007091630080E029
S1130E6090E00E94E2086B017C0120E030E048E45D
S1130E7053E46091660070916700809168009091DE
S1130E8069000E9474099B01AC01C701B6010E946C
S1130E90700918160CF017CE80E30E94E00280332C
S1130EA009F011CE60926400109263001092620007
S1130EB080E090E00E94990106CE8DE390E00E94CC
S1130EC0990187E00E94E002873051F08FE00E9490
S1130ED0E0028F3029F08FE10E94E0028F3119F493
S1130EE090926400F0CD64E670E084E690E00E94A5
S1130EF01B018091600090916100499740F48091BA
S1130F006200909163008837910508F4DCCD50921B
S1130F1064001092630010926200109261001092BB
S1130F206000D1CD8EE390E00E9499018DED9FEF9A
S1130F300E94070164E670E080E590E00E941B01D6
S1130F40709264001092630010926200BCCD8FE333
S1130F5090E00E9499018091600090916100853633
S1130F60910508F5609162007091630080E090E063
S1130F700E94E2086B017C0120E030E048E453E485
S1130F80609166007091670080916800909169009B
S1130F900E9474099B01AC01C701B6010E9470094B
S1130FA018160CF090CD80E30E94E002803309F023
S1130FB08ACD60926400109263001092620080E017
S1130FC090E00E9499017FCD5058BB27AA270ED0EC
S1130FD04DC13ED130F043D120F031F49F3F11F4A4
S1130FE01EF433C10EF4E095E7FB29C1E92F4FD17C
S1130FF080F3BA17620773078407950718F071F432
S11310009EF567C10EF4E0950B2EBA2FA02D0B01AF
S1131010B90190010C01CA01A0011124FF27591B39
S113102099F0593F50F4503E68F11A16F040A22F3F
S1131030232F342F4427585FF3CF469537952795B0
S1131040A795F0405395C9F77EF41F16BA0B620BAF
S1131050730B840BBAF09150A1F0FF0FBB1F661FF6
S1131060771F881FC2F70EC0BA0F621F731F841F39
S113107048F4879577956795B795F7959E3F08F05F
S1131080B3CF9395880F08F09927EE0F979587951E
S113109008950CD0EBC0E3D040F0DAD030F021F466
S11310A05F3F19F0CCC0511115C1CFC0F0D098F3F7
S11310B09923C9F35523B1F3951B550BBB27AA27D5
S11310C062177307840738F09F5F5F4F220F331F47
S11310D0441FAA1FA9F333D00E2E3AF0E0E830D013
S11310E091505040E695001CCAF729D0FE2F27D016
S11310F0660F771F881FBB1F261737074807AB07E4
S1131100B0E809F0BB0B802DBF01FF2793585F4F58
S11311102AF09E3F510568F092C0DCC05F3FECF3BB
S1131120983EDCF3869577956795B795F7959F5F1D
S1131130C9F7880F911D9695879597F90895E1E071
S1131140660F771F881FBB1F621773078407BA07D0
S113115020F0621B730B840BBA0BEE1F88F7E0952B
S1131160089504D06894B111B5C0089598D088F05A
S11311709F5790F0B92F9927B751A0F0D1F0660F7F
S1131180771F881F991F1AF0BA95C9F712C0B1309A
S113119081F09FD0B1E008959CC0672F782F8827F5
S11311A0B85F39F0B93FCCF3869577956795B395D9
S11311B0D9F73EF490958095709561957F4F8F4F48
S11311C09F4F0895E89409C097FB3EF4909580954D
S11311D0709561957F4F8F4F9F4F9923A9F0F92FF9
S11311E096E9BB279395F695879577956795B79577
S11311F0F111F8CFFAF4BB0F11F460FF1BC06F5F5D
S11312007F4F8F4F9F4F16C0882311F096E911C06E
S1131210772321F09EE8872F762F05C0662371F08F
S113122096E8862F70E060E02AF09A95660F771FA3
S1131230881FDAF7880F9695879597F9089597F997
S11312409F6780E870E060E008959FEF80EC089568
S113125000240A9416161706180609060895002491
S11312600A9412161306140605060895092E03940B
S1131270000C11F4882352F0BB0F40F4BF2B11F47F
S113128060FF04C06F5F7F4F8F4F9F4F089557FDDE
S11312909058440F551F59F05F3F71F04795880FE0
S11312A097FB991F61F09F3F79F087950895121677
S11312B013061406551FF2CF4695F1DF08C0161623
S11312C017061806991FF1CF8695710561050894D4
S11312D00895E894BB2766277727CB0197F90895EB
S11312E066D008F48FEF08950BD0C0CFB1DF28F09B
S11312F0B6DF18F0952309F0A2CFA7CF1124EACFC7
S1131300C6DFA0F3959FD1F3950F50E0551F629F60
S1131310F001729FBB27F00DB11D639FAA27F00D4A
S1131320B11DAA1F649F6627B00DA11D661F829F71
S11313302227B00DA11D621F739FB00DA11D621F56
S1131340839FA00D611D221F749F3327A00D611D73
S1131350231F849F600D211D822F762F6A2F112455
S11313609F5750408AF0E1F088234AF0EE0FFF1FA8
S1131370BB1F661F771F881F91505040A9F79E3FDF
S1131380510570F05CCFA6CF5F3FECF3983EDCF3E1
S1131390869577956795B795F795E7959F5FC1F71C
S11313A0FE2B880F911D9695879597F90895990FAF
S11313B00008550FAA0BE0E8FEEF16161706E8071B
S11313C0F907C0F012161306E407F50798F0621B3C
S11313D0730B840B950B39F40A2661F0232B242B11
S11313E0252B21F408950A2609F4A140A6958FEF30
S11313F0811D811D089597FB072E16F4009407D0D4
S113140077FD09D00E94240A07FC05D03EF490958C
S113141081959F4F0895709561957F4F0895EE0FC4
S1131420FF1F0590F491E02D0994A29FB001B39F92
S1131430C001A39F700D811D1124911DB29F700DD9
S1131440811D1124911D0895AA1BBB1B51E107C0E6
S1131450AA1FBB1FA617B70710F0A61BB70B881F40
S1131460991F5A95A9F780959095BC01CD010895CF
S1131470A8E1B0E042E050E00C94450A0E94530A0F
S1131480272F0C94540ADC01CB01FC01E199FECF17
S113149006C0FFBBEEBBE09A31960DB20D924150EF
S11314A05040B8F70895262FE199FECF9FBB8EBB1D
S11314B02DBB0FB6F894E29AE19A0FBE01960895F7
S10714C0F894FFCFCA
S9030000FC
