S00A000058452E737265637D
S11300000C945F010C946C050C9471010C947101B7
S11300100C9471010C9471010C9471010C94710194
S11300200C9471010C9471010C9471010C94710184
S11300300C9471010C9471010C9471010C94710174
S11300400C9471010C9471010C9471010C9434059D
S11300500C9471010806B20AB20AB20AB20AB20AD0
S1130060B20AB20AB20AB20AC8067207B20AB20ADD
S1130070B20AB20AB20AB20AB20AB20A1908B20A37
S11300806108B20AB20A1F093509B20AB20AB20AF1
S11300904A095D09B20AB20AB20AB20AB20AB20A3B
S11300A0B20AB20A72098509B20AB20AB20AB20ADB
S11300B0B20AB20AB20AB20A9A09B20ACF09E40928
S11300C0B20AB20AB20AB20AB20AB20A160AB20AE8
S11300D04B0A600AB20AB20AB20AB20AB20AB20AF5
S11300E0B20AB20A8D0A7806FB056206FB056D06A4
S11300F0FB054C06FB05FB05FB055706FB056206E5
S1130100FB058606FB05FB05FB05FB05FB05FB055F
S1130110FB054106FB05FB05FB054C06FB05FB0542
S1130120FB059C06FB05FB05FB05FB05FB05FB0529
S1130130FB05FB05FB05FB05FB05FB05FB05FB05BB
S1130140FB059106FB05FB05FB05FB05FB05FB0514
S1130150FB058606FB05FB05FB05FB05FB05FB050F
S1130160FB05B206FB05FB05FB05FB05FB05FB05D3
S1130170FB05FB05FB05FB05FB05FB05FB05FB057B
S1130180FB05FB05FB05FB05FB05FB05FB05FB056B
S1130190FB05FB05FB05FB05FB05FB05FB05FB055B
S11301A0FB05A706FB05FB05FB05FB05FB05FB059E
S11301B0FB05FB05FB05FB05FB05FB05FB05FB053B
S11301C0FB059C06E8080509DE080509E30805099E
S11301D0D408050905090509D9080509DE08050932
S11301E0ED080509050905090509050905090509B4
S11301F0CF08050905090509D408050905090509F4
S1130200F708050905090509050905090509050989
S1130210050905090509050905090509050905096A
S1130220F20805090509050905090509050905096E
S1130230ED08050905090509050905090509050963
S1130240010905090509050905090509050905093E
S1130250050905090509050905090509050905092A
S1130260050905090509050905090509050905091A
S1130270050905090509050905090509050905090A
S1130280FC08050905090509050905090509050904
S113029005090509050905090509050905090509EA
S11302A0F7080509050905090509050905090509E9
S11302B0050905090509050905090509CA081124DF
S11302C01FBECFE5D4E0DEBFCDBF20E0A0E6B0E0A6
S11302D001C01D92AB3AB207E1F70E94B9050C9434
S11302E0A10C0C940000982F86B38E708E3081F090
S11302F02FEF37EE83E0215030408040E1F700C01B
S1130300000026B3292B81E0921719F080E00895AC
S113031080E00895CF93DF93C0E0D0E060E070E028
S1130320CB0123B330E0209530950C2E02C03595D7
S113033027950A94E2F720FF06C02DEC3CEC4CEC28
S11303405DE30E94B60A2196C430D10551F7DF91CE
S1130350CF91089580918D0090918E00A0918F008F
S1130360B09190008093930090939400A093950093
S1130370B093960008958A362FEF920714F48AE614
S11303809FEF8739910514F086E990E09C01220FD4
S1130390331F220F331F220F331FA901481B590B90
S11303A0CA018A57944F9BBD8ABD08958F929F922C
S11303B0AF92BF92CF92DF92EF92FF920F931F936F
S11303C0CF93DF938B018090930090909400A09042
S11303D09500B0909600BC01882777FD8095982FF2
S11303E00E944D0BA50194010E94D90B0E941A0B87
S11303F06B017C01EB01B801882777FD8095982F6C
S11304000E944D0B9B01AC01C501B4010E94D90BA4
S11304100E941A0B9B01DD235CF0909A9198E8EC02
S1130420EC9DA001ED9D500D112459BD48BD0BC09C
S11304309098919AE8E3EC9DA001ED9D500D5C1914
S1130440112459BD48BD33237CF0939A96984FEFFD
S1130450469F9001479F300D1124C90164E670E066
S11304600E943C0C63BD0FC09398969A41E0469F4E
S11304709001479F300D361B1124C90164E670E0DA
S11304800E943C0C63BDDF91CF911F910F91FF90AF
S1130490EF90DF90CF90BF90AF909F908F90089592
S11304A0909A919A80E29EE499BD88BD939A969A17
S11304B08FEF83BD08958FB9779BFECF08950F9377
S11304C01F93CF93DF93AC019C01ADECBCEC0E9475
S11304D0560C9695879596958795969587959C0144
S11304E0220F331F880F991F880F991F880F991F98
S11304F0820F931F9A01281B390BC90180688093CE
S113050088009A013695279536952795ABE7B4E18F
S11305100E94560C9695879564E6689F9001699FA2
S1130520300D1124CA01821B930B9C01ADECBCEC71
S11305300E94560CFC01F695E795F695E795F6951D
S1130540E7951E2FEA01D695C795D695C795D695FA
S1130550C7959E01A5ECB0E20E94560C9295829537
S11305608F7089279F70892768EE73E0869F9001BA
S1130570879F300D969F300D1124421B530B9A0117
S11305803695279536952795ABE7B4E10E94560C2E
S1130590AC0156954795042F9E01A5ECB0E20E944C
S11305A0560C929582958F7089279F70892788238E
S11305B011F020E101C020E0822B80938B00811197
S11305C015C001110CC00CC0112311F080E403C04C
S11305D080E001C080E4E82BE09389000CC080E255
S11305E0482B40938A00442379F3F4CF406240932C
S11305F08A0080E4F0CFDF91CF911F910F9108958D
S1130600CF93E7E8F0E0908181E0890F8083943014
S113061019F41092870008C0813049F028F0823024
S113062049F0833051F00CC0C0918B000AC0C091D6
S11306308A0007C0C091890004C0C091880001C02D
S1130640C0E080918C0080950E945B028C2F0E94F8
S11306505B02C49AC498CF910895EF92FF920F93CE
S11306601F93CF93DF930F2EF6E7EF2EF0E0FF2ECC
S1130670F02D07E910E0C0E0D0E0E199FECFCE0113
S11306800E94790CD7018D939D937D01E199FECF52
S1130690CE0140960E94790CF801819391938F01C9
S11306A02296C031D10549F742E650E006E810E051
S11306B0C7E9D0E0E6E7F0E00F2EF3E1FF2EF02DDE
S11306C08191919129913991820F931F96958795E4
S11306D0F89E9001F99E300D1124ADECBCEC0E9403
S11306E0560C929582958F7089279F708927DA011D
S11306F08D939D93AD01E017F10711F7DF91CF9131
S11307001F910F91FF90EF900895EF92FF920F9336
S11307101F93CF93DF930F2EF7E9EF2EF0E0FF2E18
S1130720F02D06E710E0C0E0D0E0E199FECFF8013B
S1130730619171918F01CE010E947F0CE199FECFEE
S1130740F701619171917F01CE0140960E947F0C67
S11307502296C031D10549F7DF91CF911F910F91B6
S1130760FF90EF900895806487B9369A349BFECF4A
S113077084B195B10895CF92DF92EF92FF920F93D7
S11307801F93CF93DF93C82E02E610E0C0E0D0E0C1
S1130790D12CEE24E394F12C8C2F0E94B303F801A6
S11307A0219131918F018217930740F497010C2E08
S11307B002C0220F331F0A94E2F7D22A2196C830CE
S11307C0D10551F7D0928C008D2D8C21DF91CF91E2
S11307D01F910F91FF90EF90DF90CF9008958F922B
S11307E09F92AF92BF92CF92DF92EF92FF920F93BC
S11307F01F93CF93DF93C6E7D0E007E910E00F2EF5
S1130800F6E8EF2EF0E0FF2EF02DD801FE0180E097
S113081094E0819391931D921D92EE15FF05C9F703
S113082081EE97E00E945F02B02EA12E9C2E8D2EA9
S1130830C12C8DEF0E94730181114BC087EF0E9480
S1130840730181111FC00B2D1A2DC92DD82DDC2C3D
S11308508D2D0E94B303288139818217930710F4E8
S113086099838883F801208131812817390710F48E
S113087091838083D39422960E5F1F4FF8E0DF129A
S1130880E7CFD7CF42E650E0C7E9D0E0E6E7F0E0B3
S113089013E18191919129913991820F931F96953A
S11308A08795189F9001199F300D1124ADECBCEC75
S11308B00E94560C929582958F7089279F70892784
S11308C0DA018D939D93AD01EE15FF0511F70E949A
S11308D08503DF91CF911F910F91FF90EF90DF90EF
S11308E0CF90BF90AF909F908F90089580E487B988
S11308F087E886B90E942D0381EF87BB8FEF88BB01
S113090014BA85BB8BEF81BB89E082BB80E58DB9CE
S113091081E08EB98CE083BF8EE38CBF82E089BF17
S113092082EA8FBD8AE18EBD80E29EE497BD86BDDA
S11309308FE685BD13BC789485B78A6085BF8BB775
S113094080648BBF83E190E0909392008093910048
S1130950089510E0F12CCCE8D0E001E08DEF0E9486
S11309607301882359F064E670E084E690E00E9405
S1130970D6018CE99FEF0E94BB0125C08BEF0E943A
S11309807301882321F01F5F1830E9F41BC087EF3F
S11309900E947301882359F06CE97FEF8CE99FEF83
S11309A00E94D60184E690E00E94BB010CC060E086
S11309B070E080E090E00E94D60180E090E00E9428
S11309C0BB0101C01F2D812F0E94B3030E945F024F
S11309D0802F012E01C0880F0A94EAF78883BECFC6
S11309E080E090E00E94BB0160E070E080E090E075
S11309F00E94D6010E948A012DEC3CEC4CEC5DE394
S1130A000E94B60A60938D0070938E0080938F00CD
S1130A10909390006093930070939400809395005A
S1130A209093960020E030E048EC52E40E94D90B09
S1130A300E941F0BCB010E945F028FEF0E94BB0339
S1130A408DEF0E94730181110EC08BEF0E94730120
S1130A5081110E94A90487EF0E947301882351F237
S1130A600E94EF03C7CF08951F920F920FB60F9203
S1130A7011242F933F934F935F936F937F938F939F
S1130A809F93AF93BF93EF93FF938091A9009091AD
S1130A90AA0001969093AA008093A9008091600017
S1130AA090916100019690936100809360000E9490
S1130AB0AA010E940003FF91EF91BF91AF919F9112
S1130AC08F917F916F915F914F913F912F910F90F3
S1130AD00FBE0F901F9018951F920F920FB60F9292
S1130AE011248F939F9380917200909173000196CB
S1130AF090937300809372009F918F910F900FBE1B
S1130B000F901F9018958FEF0E94BB038F3F51F0F9
S1130B108EE70E94BB0321E090E08E3709F020E0CD
S1130B20822F089581E090E008958FE00E94BB0336
S1130B308F3051F08FE10E94BB0321E090E08F31B0
S1130B4009F020E0822F089581E090E0089580EF7D
S1130B500E94BB03803F51F088EF0E94BB0321E059
S1130B6090E0883F09F020E0822F089581E090E032
S1130B7008950E9476040E94F0048091720090917E
S1130B8073000E945F028DEF0E947301882329F095
S1130B901092730010927200F0CF8BEF0E947301D9
S1130BA0882359F381E080938600C1E06894FF2490
S1130BB0F6F8D5E10F2EFFE38F2EF02D06E30F2E6E
S1130BC0F5E39F2EF02D0F2EFAE2CF2EF02D689430
S1130BD0DD24D5F819E20F2EF9E47F2EF02D0F2E27
S1130BE0FAE1EF2EF02D0F2EFBE1AF2EF02D0F2E9C
S1130BF0F7E1BF2EF02D8091860090E0FC01319743
S1130C00E934F10508F0AEC4E65DFF4F0C94500CD6
S1130C100E948305892B19F0D0938600ECCF0E94A3
S1130C209505892B61F01092730010927200109256
S1130C30AA001092A90083E380938600DCCF0E946F
S1130C40A705892B61F01092730010927200109224
S1130C50AA001092A9008DE380938600CCCF8AE08D
S1130C6090E00E945F028EE70E94BB0390E0FC01CB
S1130C703297EF36F10508F0BECFED58FF4F0C94D4
S1130C80500C80E090E00E94BB0164E670E084E6D2
S1130C9090E00E94D601AFCF6AE570E084E690E070
S1130CA00E94D6018EE090E00E94BB01A4CF60E5D3
S1130CB070E084E690E00E94D60186E190E00E9414
S1130CC0BB0199CF66E470E084E690E00E94D6010F
S1130CD083E290E00E94BB018ECF6CE370E084E677
S1130CE090E00E94D60187E390E00E94BB0183CF8D
S1130CF068E270E084E690E00E94D60180E590E02E
S1130D000E94BB018BE08093860075CF64E670E09F
S1130D108AE590E00E94D60182EF9FEF0E94BB011A
S1130D206ACF64E670E080E590E00E94D6018AEE26
S1130D309FEF0E94BB015FCF64E670E086E490E021
S1130D400E94D6018CED9FEF0E94BB0154CF64E654
S1130D5070E08CE390E00E94D60189EC9FEF0E9442
S1130D60BB0149CF64E670E088E290E00E94D601BE
S1130D7080EB9FEF0E94BB018CE080938600109271
S1130D80AA001092A900109273001092720033CF3F
S1130D908BE090E00E945F028FEF0E94BB038831DA
S1130DA009F491C0A8F48630B1F148F4833041F1DC
S1130DB0843009F488C0813009F443C01CCF8C30DE
S1130DC0A9F1803109F47FC0883009F014CF7BC0C9
S1130DD0813809F441C050F4803609F45EC080388B
S1130DE009F445C0803309F006CF62C0803E09F49F
S1130DF054C0803F09F45CC0803C09F443C0FBCE7E
S1130E008CE390E00E94BB0162E370E08AE590E02D
S1130E100E94D601F0CE87E390E00E94BB0162E31A
S1130E2070E08AE590E00E94D601E5CE88E290E089
S1130E300E94BB016CE370E08AE590E00E94D60159
S1130E40DACE8AE590E00E94BB016EE170E08AE5AB
S1130E5090E00E94D601CFCE8AE590E00E94BB01CB
S1130E6064E170E08AE590E00E94D601C4CE84E695
S1130E7090E00E94BB016AE070E08AE590E00E9485
S1130E80D601B9CE89E690E00E94BB0160E070E033
S1130E908AE590E00E94D601AECE88E790E00E94F9
S1130EA0BB0160E070E08AE590E00E94D601A3CE29
S1130EB082E890E00E94BB0166EF7FEF8AE590E054
S1130EC00E94D60198CEC0938600109273001092AF
S1130ED072001092AA001092A9008AE090E00E9489
S1130EE05F0289CE8CE090E00E945F028FEF0E9447
S1130EF0BB03803109F48EC0B0F4883050F48630DE
S1130F0008F072C0813009F459C0833009F461C01B
S1130F1072CE8C3009F473C08F3009F470C08830FD
S1130F2009F069CE77C08036E9F048F4803209F4DC
S1130F3071C0803311F1883109F05DCE6BC0813806
S1130F4091F1803C21F0803809F055CE21C084EC29
S1130F509FEF0E94BB016AE570E082E390E00E948B
S1130F60D60149CE89EC9FEF0E94BB016AE570E08F
S1130F7082E390E00E94D6013ECE88ED9FEF0E946E
S1130F80BB016AE570E08CE390E00E94D60133CEA9
S1130F9086EA9FEF0E94BB016AE570E08EE190E073
S1130FA00E94D60128CE86EA9FEF0E94BB016AE523
S1130FB070E084E190E00E94D6011DCE8BEA9FEFA1
S1130FC00E94BB016AE570E08AE090E00E94D601CD
S1130FD012CE87E99FEF0E94BB016AE570E080E0D2
S1130FE090E00E94D60107CE88E89FEF0E94BB01E3
S1130FF06AE570E080E090E00E94D601FCCD8EE7C7
S11310009FEF0E94BB016AE570E086EF9FEF0E94AC
S1131010D601F1CDC0938600109273001092720035
S11310201092AA001092A9008AE090E00E945F0248
S1131030E2CD85E190E00E945F0280E090E00E94B2
S1131040BB0140916000509161009A01ADECBCEC91
S11310500E94560C9695879596958795BC01660FC8
S1131060771F660F771F9B01280F391F42175307FD
S113107069F469EF7FEF89EF9FEF0E94D6018FE358
S11310809FE10197F1F700C0000002C00E945002E6
S11310908091A9009091AA008436910508F4ABCD03
S11310A08091720090917300459710F4B09286007D
S11310B01092AA001092A90010927300109272006C
S11310C09ACD87E190E00E945F0280917200909136
S11310D07300C39740F48091A9009091AA008135D0
S11310E0910508F443C08FEF0E94BB03883F79F059
S11310F08FEF0E94BB03803F51F08FEF0E94BB0330
S1131100803E29F08FEF0E94BB038C3F39F4E092BC
S113111086001092AA001092A9006DCD80917200F1
S113112090917300C39738F48091A9009091AA001C
S113113081359105D8F08FEF0E94BB038F3179F090
S11311408FEF0E94BB03873051F08FEF0E94BB03E7
S11311508F3029F08FEF0E94BB038F3339F4A092B4
S113116086001092AA001092A90045CD66E470E0B2
S113117086E490E00E94D6018EE70E94BB0390E0D3
S1131180FC013297ED37F10508F03FC0EE51FF4FF7
S11311900C94500C80E090E00E94BB0136C080E0CB
S11311A090E00E94BB0131C08EE090E00E94BB0140
S11311B02CC086E190E00E94BB0127C083E290E04E
S11311C00E94BB0122C087E390E00E94BB011DC0C6
S11311D080E590E00E94BB0118C082EF9FEF0E945F
S11311E0BB0113C08AEE9FEF0E94BB010EC08CEDC1
S11311F09FEF0E94BB0109C089EC9FEF0E94BB01D5
S113120004C080EB9FEF0E94BB018FEF0E94BB03E1
S11312108111F1CC7092860080E090E00E94BB01C5
S113122064E670E084E690E00E94D6011092AA0081
S11312301092A9001092730010927200DCCC8AE123
S113124090E00E945F028EE79FEF0E94BB0160E581
S113125070E084EC9FEF0E94D6018FE180938600BA
S11312601092AA001092A900C6CC8BE190E00E94D3
S11312705F0282E890E00E94BB0164EC7FEF80E5AE
S113128090E00E94D601109386001092AA0010925A
S1131290A900B1CC8FE190E00E945F028091A90087
S11312A09091AA00893C910508F4A5CCD0928600BF
S11312B01092AA001092A9009ECC80E290E00E94B5
S11312C05F0287EE0E94BB03803209F094CCC09386
S11312D0860010927300109272001092AA0010926D
S11312E0A90089CC89E290E00E945F028091A90064
S11312F09091AA00893C910508F47DCCC0928600A7
S11313001092AA001092A90076CC8AE290E00E9482
S11313105F0287EE0E94BB03843009F06CCCC0935B
S1131320860010927300109272001092AA0010921C
S1131330A90061CC80EE0E94BB03803E51F080EF97
S11313400E94BB03803F29F088EF0E94BB03883FC3
S113135019F4D09386004FCC83E390E00E945F029F
S113136060E570E080E590E00E94D6018091720013
S113137090917300499740F48091A9009091AA003C
S11313808F3A910508F437CC909286001092AA0007
S11313901092A90010927300109272002CCC85E375
S11313A090E00E945F0283E290E00E94BB0160E54E
S11313B070E085E590E00E94D601009386001092CB
S11313C0AA001092A90017CC86E390E00E945F0265
S11313D086E390E00E945F02809172009091730016
S11313E08536910540F48091A9009091AA00893C2A
S11313F0910508F400CC80E30E94BB03803309F01C
S1131400FACB65E570E080E590E00E94D6018CEEB1
S11314109FEF0E94BB01C09386001092AA00109215
S1131420A9008AE090E00E945F02E5CB87E00E9479
S1131430BB03873051F08FE00E94BB038F3029F04B
S11314408FE10E94BB038F3119F4D0938600D3CB74
S11314508DE390E00E945F0260E570E080E590E03B
S11314600E94D6018091720090917300499740F4D4
S11314708091A9009091AA008F3A910508F4BBCB02
S1131480809286001092AA001092A9001092730014
S113149010927200B0CB8FE390E00E945F028DED5A
S11314A09FEF0E94BB0165E570E080E590E00E943B
S11314B0D601F09286001092AA001092A9009BCB4C
S11314C080E490E00E945F0280917200909173002A
S11314D08536910538F48091A9009091AA00892B52
S11314E009F489CB80E30E94BB03803309F083CBEA
S11314F060E570E085E590E00E94D60184E190E02B
S11315000E94BB01C09386001092AA001092A90009
S11315108AE090E00E945F026ECB89E490E00E9432
S11315205F0264E670E084E690E00E94D60180E801
S11315300E94BB03882321F08EE190E00E94BB014E
S11315408C2F0E94BB03882321F082EE9FEF0E9420
S1131550BB018EE70E94BB03882309F44CCBC093E4
S1131560860049CBC093860046CB5058BB27AA2798
S11315700ED0E5C0D6D030F0DBD020F031F49F3F60
S113158011F41EF4CBC00EF4E095E7FBC1C0E92FC3
S1131590E7D080F3BA17620773078407950718F03A
S11315A071F49EF5FFC00EF4E0950B2EBA2FA02D1A
S11315B00B01B90190010C01CA01A0011124FF27FC
S11315C0591B99F0593F50F4503E68F11A16F040F7
S11315D0A22F232F342F4427585FF3CF46953795F6
S11315E02795A795F0405395C9F77EF41F16BA0BBB
S11315F0620B730B840BBAF09150A1F0FF0FBB1F69
S1131600661F771F881FC2F70EC0BA0F621F731FB1
S1131610841F48F4879577956795B795F7959E3F0E
S113162008F0B3CF9395880F08F09927EE0F97959C
S11316308795089504D06894B111B5C0089598D0E1
S113164088F09F5790F0B92F9927B751A0F0D1F0A7
S1131650660F771F881F991F1AF0BA95C9F712C031
S1131660B13081F09FD0B1E008959CC0672F782FEE
S11316708827B85F39F0B93FCCF38695779567959D
S1131680B395D9F73EF490958095709561957F4F09
S11316908F4F9F4F0895E89409C097FB3EF49095AF
S11316A08095709561957F4F8F4F9F4F9923A9F037
S11316B0F92F96E9BB279395F695879577956795C6
S11316C0B795F111F8CFFAF4BB0F11F460FF1BC00A
S11316D06F5F7F4F8F4F9F4F16C0882311F096E99D
S11316E011C0772321F09EE8872F762F05C066234B
S11316F071F096E8862F70E060E02AF09A95660F04
S1131700771F881FDAF7880F9695879597F90895BC
S113171097F99F6780E870E060E008959FEF80ECA0
S1131720089500240A941616170618060906089543
S113173000240A9412161306140605060895092EA9
S11317400394000C11F4882352F0BB0F40F4BF2B18
S113175011F460FF04C06F5F7F4F8F4F9F4F089558
S113176057FD9058440F551F59F05F3F71F047954E
S1131770880F97FB991F61F09F3F79F08795089533
S1131780121613061406551FF2CF4695F1DF08C052
S1131790161617061806991FF1CF8695710561056F
S11317A008940895E894BB2766277727CB0197F917
S11317B008950BD0C4CFB5DF28F0BADF18F0952315
S11317C009F0A6CFABCF1124EECFCADFA0F3959FCB
S11317D0D1F3950F50E0551F629FF001729FBB2714
S11317E0F00DB11D639FAA27F00DB11DAA1F649FC0
S11317F06627B00DA11D661F829F2227B00DA11D73
S1131800621F739FB00DA11D621F839FA00D611DF8
S1131810221F749F3327A00D611D231F849F600D19
S1131820211D822F762F6A2F11249F5750408AF052
S1131830E1F088234AF0EE0FFF1FBB1F661F771FDE
S1131840881F91505040A9F79E3F510570F060CF1A
S1131850AACF5F3FECF3983EDCF3869577956795C6
S1131860B795F795E7959F5FC1F7FE2B880F911DFC
S11318709695879597F9089597FB072E16F400948B
S113188007D077FD09D00E94650C07FC05D03EF413
S1131890909581959F4F0895709561957F4F089518
S11318A0EE0FFF1F0590F491E02D0994A29FB00163
S11318B0B39FC001A39F700D811D1124911DB29F80
S11318C0700D811D1124911D0895AA1BBB1B51E1AC
S11318D007C0AA1FBB1FA617B70710F0A61BB70B9C
S11318E0881F991F5A95A9F780959095BC01CD0141
S11318F00895A8E1B0E042E050E00C94860C0E9408
S1131900940C272F0C94950CDC01CB01FC01E1997C
S1131910FECF06C0FFBBEEBBE09A31960DB20D922E
S113192041505040B8F70895262FE199FECF9FBB50
S11319308EBB2DBB0FB6F894E29AE19A0FBE0196C6
S10919400895F894FFCFA6
S9030000FC
