:100000000C9427010C94280C0C9444010C9444018A
:100010000C9444010C9444010C9444010C9444014C
:100020000C9444010C9444010C9444010C9444013C
:100030000C9444010C9444010C9444010C9444012C
:100040000C9444010C9444010C9444010C94010C54
:100050000C9444019406DA068F068F068F068F06ED
:100060008F068F068F068F0621073C076507070856
:100070002D0853086A088F068F068F068108980896
:100080008F068F068F068F068F068F068F068F06C8
:10009000AD08C4088F068F068F068F068F068F0661
:1000A0008F068F06D9080209210967098F068F0676
:1000B0008F068F068F068F0673099A09B909CB0937
:1000C0008F068F068F068F068F068F06D709F809D1
:1000D000660ADA078406D1078406DA078406BF07B2
:1000E000840684068406C807840684068406E3071B
:1000F0008406840684068406840684068406B6077D
:100100008406840684068406840684068406F5072D
:10011000840684068406840684068406840684068F
:100120008406840684068406840684068406EC0716
:10013000840684068406840684068406840684066F
:100140008406840684068406840684068406FE07E4
:10015000840684068406840684068406840684064F
:10016000840684068406840684068406840684063F
:10017000840684068406840684068406840684062F
:100180008406840684068406840684068406FE07A4
:10019000390A8406300A8406390A84061E0A84064F
:1001A00084068406270A840684068406420A840696
:1001B000840684068406840684068406150A84065A
:1001C000840684068406840684068406540A84060B
:1001D00084068406840684068406840684068406CF
:1001E0008406840684068406840684064B0A8406F4
:1001F00084068406840684068406840684068406AF
:100200008406840684068406840684065D0A8406C1
:10021000840684068406840684068406840684068E
:10022000840684068406840684068406840684067E
:10023000840684068406840684068406840684066E
:100240008406840684068406840684065D0A1124D6
:100250001FBECFE5D4E0DEBFCDBF10E0A0E6B0E02A
:10026000E4EFFDE102C005900D92A236B107D9F787
:1002700022E0A2E6B0E001C01D92A03CB207E1F787
:100280000E94DB0B0C94F80E0C94000096B398239C
:1002900021F496B39823E9F302C080E0089581E049
:1002A00008958A362FEF920714F48AE69FEF873974
:1002B000910514F086E990E09C01220F331F820F14
:1002C000931F880F991F8E54934F9BBD8ABD08952D
:1002D0008F929F92AF92BF92CF92DF92EF92FF9256
:1002E000F62E682F70E080E090E00E94480D20E03C
:1002F00030E040E05FE30E94D40D4B015C016F2DC4
:1003000070E080E090E00E94480D20E030E040E0A6
:100310005FE30E94D40D6B017C019398C501B40189
:100320000E941A0D28EC629FB001112479BD68BDAE
:100330009698C701B6010E941A0D2FEF629FC00167
:10034000112464E670E00E94370E63BDFF90EF90C9
:10035000DF90CF90BF90AF909F908F9008958FB90E
:10036000779BFECF08954F925F926F927F928F920C
:100370009F92AF92BF92CF92DF92EF92FF926B016A
:100380007C010F2EFAE04F2E512C612C712CF02D98
:10039000A30192010E944B0E60686093A2020F2E8F
:1003A000F4E68F2E912CA12CB12CF02DC701B601B3
:1003B000A50194010E944B0EA30192010E944B0ED5
:1003C000722E622EC701B60128EE33E040E050E005
:1003D0000E944B0EF22EA50194010E944B0E922F0B
:1003E000FF2011F080E101C080E0F82AF092A50220
:1003F000F11016C091110DC080E00CC0662011F004
:1004000080E403C080E001C080E4782A7092A302F7
:100410000CC080E2282B2093A402222379F3F4CF8E
:1004200020622093A40280E4F0CFFF90EF90DF9051
:10043000CF90BF90AF909F908F907F906F905F9084
:100440004F900895CF93E1EAF2E0908181E0890F27
:100450008083943019F41092A10208C0813049F0D1
:1004600028F0823049F0833051F00CC0C091A502D1
:100470000AC0C091A40207C0C091A30204C0C091E9
:10048000A20201C0C0E08091A60280950E94AF0147
:100490008C2F0E94AF01C49AC498CF9108950E94F6
:1004A00022020895806487B9369A349BFECF84B1C6
:1004B00095B10895DF92EF92FF920F931F93CF9320
:1004C000DF93C0E0D0E0D12CEE24E394F12C8C2F0C
:1004D0000E9452028C018C2F0E945202800F911FA9
:1004E0008835924048F497010C2E02C0220F331F2A
:1004F0000A94E2F7D22A09C097010C2E02C0220FFB
:10050000331F0A94E2F72095D2222196C830D105F4
:10051000F1F6D092A6028D2DDF91CF911F910F9110
:10052000FF90EF90DF9008950E9422020E945A02ED
:10053000089580E487B987E886B981EF87BB8FEF9C
:1005400088BB14BA85BB8BEF81BB12BA80E58DB92D
:1005500081E08EB98CE083BF8EE38CBF82E089BFDF
:100560008FB5826A8FBD8EB58A618EBD80E29EE4B2
:1005700097BD86BD8FE685BD13BC789485B78A602C
:1005800085BF8BB780648BBF0895FF920F931F9335
:10059000CF93DF9380E090E00E94510110E0F12CB6
:1005A000C6EAD2E001E082E00E94460181111DC04E
:1005B00084E00E9446018111115088E00E944601AA
:1005C00081111F5F183008F01F2D812F0E945202E9
:1005D000BC0180E090E00E94B301802F012E01C099
:1005E000880F0A94EAF78883DECF86E090E00E94C5
:1005F000D80E8F3F19F080936E0003C080E5809382
:100600006E0082E00E944601882379F060916E00BE
:1006100086E090E00E94E60E87E090E00E94D80E0F
:100620008F3FF9F08093BF021FC084E00E94460113
:10063000882329F080916E008A5080936E0088E0B4
:100640000E944601882329F080916E00865F809386
:100650006E0060916E0070E080E090E00E94B30157
:10066000D0CF82E38093BF0282E00E9446018823BC
:1006700099F06091BF0287E090E00E94E60E84E06E
:1006800090E00E94E00E8F3F2FEF920709F19093C8
:10069000BE028093BD0222C084E00E9446018823EE
:1006A00029F08091BF0281508093BF0288E00E94B0
:1006B0004601882329F08091BF028F5F8093BF029B
:1006C0006091BF0270E080E090E00E94B301CCCF67
:1006D00089E690E09093BE028093BD0280E090E0B6
:1006E0000E94510182E00E9446018823A9F0609196
:1006F000BD027091BE0284E090E00E94F30E82E0A1
:1007000090E00E94E00E8F3F2FEF920751F19093FF
:10071000A8028093A7022BC084E00E944601882390
:1007200049F08091BD029091BE020A979093BE025B
:100730008093BD0288E00E944601882349F08091A1
:10074000BD029091BE020A969093BE028093BD02B4
:100750006091BD027091BE0280E090E00E94B30102
:10076000BDCF81E090E09093A8028093A70282E041
:100770000E9446018823A9F06091A7027091A80207
:1007800082E090E00E94F30E80E090E00E94E00E94
:100790008F3F2FEF920751F19093AA028093A90205
:1007A0002BC084E00E944601882349F08091A70273
:1007B0009091A80201979093A8028093A70288E0E5
:1007C0000E944601882349F08091A7029091A802D7
:1007D00001969093A8028093A7026091A70270915E
:1007E000A80280E090E00E94B301C1CF8BE090E0CE
:1007F0009093AA028093A90282E00E944601882376
:1008000049F06091A9027091AA0280E090E00E94F4
:10081000F30E25C084E00E944601882349F08091B0
:10082000A9029091AA020A979093AA028093A90222
:1008300088E00E944601882349F08091A9029091A6
:10084000AA020A969093AA028093A9026091A90233
:100850007091AA0280E090E00E94B301CDCFDF91B9
:10086000CF911F910F91FF900895CF93DF93FB01DC
:10087000E9011A821B821C821D82198218829F83C1
:100880008E83798768875B874A87BC016F5F7F4F5C
:100890008FEF9FE70E94370E7D876C879F012F5F48
:1008A0003F4F442737FD4095542F6FEF7FEF8FEF79
:1008B0009FE30E946D0E2E873F87488B598BDF91F7
:1008C000CF9108950F931F93CF93DF93EB01FA011C
:1008D000861B970B248535852817390784F03195B9
:1008E00021953109821793076CF026813781829F09
:1008F0008001839F100D929F100D112405C00FEFF2
:100900001FE702C001E010E8AA2797FDA095BA2FC3
:1009100042815381648175819A01AB01280F391F8F
:100920004A1F5B1F86859785A089B1898217930727
:10093000A407B5074CF482839383A483B5836FEF38
:100940007FEF8FEF9FE31DC0B095A09590958195A7
:100950009F4FAF4FBF4F281739074A075B074CF42B
:1009600082839383A483B58361E070E080E090ECA0
:1009700008C02283338344835583A085B1850E94B8
:10098000920E408151814C1B5D0B22853385429F25
:10099000D001439FB00D529FB00D1124D183C0836D
:1009A000222717FD2095322F060F171F281F391FEA
:1009B000CD01AA2797FDA095BA2F080F191F2A1F4E
:1009C0003B1FD901C801332324F481589F4FAF4FF7
:1009D000BF4F689416F8B595A79597958795169487
:1009E000D1F7813020E892072FEFA207B20724F455
:1009F00081E090E8AFEFBFEF811520E89207A105F5
:100A0000B10524F08FEF9FE7A0E0B0E0DF91CF9138
:100A10001F910F91089520916C0030916D00211568
:100A200092E0390720F02130310561F416C0F90158
:100A3000E157FF4F80832F5F3F4F30936D0020932E
:100A40006C000BC0E0E9F0E0AFE8B0E021573F4FA9
:100A500091919D93E217F307D9F7E0916C00F09123
:100A60006D00E257FF4F8083089520916C00309114
:100A70006D008217930728F4FC01E157FF4F808136
:100A8000089580E0089580FD0AC081FD05C082FFC1
:100A900017C082E090E005C081E090E002C080E0F5
:100AA00090E003974091BF02489F9001499F300D0D
:100AB000112430936B0020936A00822F932F0895A6
:100AC000089582FD0AC081FD05C080FF1CC082E040
:100AD00090E005C081E090E002C080E090E023E07B
:100AE00030E0A901481B590BCA014091BF02489F41
:100AF0009001499F300D112430936B0020936A00C0
:100B0000822F932F08950895803121F0982F9F7E92
:100B1000983039F410926B0010926A0020E030E0B7
:100B200040C091E0282F207E09F490E0282F277004
:100B300009F09E5F9130C1F420916A0030916B0002
:100B4000332344F082958695877090E00E9461057A
:100B50009C0127C082958695877090E00E9443058E
:100B60009C01285231091DC0923099F420916A00ED
:100B700030916B00121613062CF090E00E94430592
:100B80009C010FC090E00E9461059C01285D3F4FD1
:100B900008C0933029F420916A0030916B0001C0A5
:100BA0000895822F932F08950E945A028F3F49F093
:100BB0000E945A02982F9E7781E09E3719F080E0BC
:100BC000089581E00895C0916C00D0916D00219747
:100BD00084E992E09093610080936000EE24EA94AF
:100BE000FF24FA9400E010E084E00E94460188238C
:100BF00051F080916C0090916D00892B11F021973C
:100C000002C0CE2DDF2D88E00E944601882371F0BE
:100C100080916C0090916D009C01215031098217E8
:100C2000930710F4219602C0C02FD12FCE010E944D
:100C30003505682F70E080E090E00E94B301D4CFCA
:100C4000809168008F5F809368008436C0F00E94B6
:100C50005A0281508E3F28F0809169008F5F809307
:100C6000690080916900843140F01092690060E071
:100C700080E00E9468010E94E305109268000E94D3
:100C800022020895109269001092680084E00E9488
:100C90004601882389F0C1E0D5E111E00F2EFBE188
:100CA000DF2EF02D07E10F2EFAE1EF2EF02D0F2EA3
:100CB000F6E1FF2EF02D28C00E945A02E7CFC12F87
:100CC00023C0CD2F21C0C02F1FC0C02F1DC0CE2DCF
:100CD0001BC0CE2D19C0C02F17C0C02F15C0CD2DE1
:100CE00013C0CD2D11C0CD2F0FC0CD2F0DC0CD2FD6
:100CF0000BC0CD2F09C0CD2F07C0CD2F05C0CD2FE4
:100D000003C0CD2F01C0C12F4C2F50E0FA013B97FB
:100D1000EF33F10520F4E65DFF4F0C948C0E0E943A
:100D2000D4058111CECFCBCF6BE070E080E090E0B6
:100D30000E94B3018BE00E940B050E945A028C7C3A
:100D40008C3071F128F48823C9F0843001F1DCCFB4
:100D5000803859F0803CC1F666EF80E50E9468015A
:100D600086E490E00E945101CFCF65E080E50E94CB
:100D700068018FE290E00E945101C6CF6AE080E5F1
:100D80000E9468018DE290E00E945101BDCF6FE0AA
:100D900080E50E94680182E290E00E945101B4CF98
:100DA00064E180E50E9468018AE190E00E945101BF
:100DB000C12FAACF6CE070E080E090E00E94B30108
:100DC0008CE00E940B050E945A028373833059F015
:100DD00028F48823D1F0813079F096CF8032F1F079
:100DE000803329F191CF60E586EF0E9468018CE99C
:100DF0009FEF0E94510188CF60E585E00E94680165
:100E000081ED9FEF0E9451017FCF60E58AE00E9453
:100E1000680183ED9FEF0E94510176CF60E58FE07E
:100E20000E9468018EED9FEF0E9451016DCF60E539
:100E300084E10E94680186EE9FEF0E945101C12F5C
:100E400063CF65E170E080E090E00E94B3018D2FF8
:100E50000E940B0580E090E00E9451016CE38CE35E
:100E60000E9468011092670010926600109265005F
:100E700010926400CF2D48CF66E170E080E090E0F2
:100E80000E94B30182E00E940B0580E090E00E9486
:100E900051016CE38CE30E9468018091660090919F
:100EA00067008734910538F4809164009091650063
:100EB0000B9708F429CF10926700109266001092E9
:100EC000650010926400C02F1FCF67E170E080E0E2
:100ED00090E00E94B301802F0E940B058091640076
:100EE000909165008536910598F10E945A02883FDD
:100EF00061F00E945A02803F41F00E945A02803EF7
:100F000021F00E945A028C3F31F410926700109237
:100F10006600C8E1F9CE8091640090916500853645
:100F20009105B0F00E945A028F3161F00E945A027E
:100F3000873041F00E945A028F3021F00E945A02FD
:100F40008F3331F41092670010926600C9E1DCCE55
:100F50000E945A028E7790E0FC013297EF35F1053E
:100F600008F0D2CEE759FF4F0C948C0E80E090E051
:100F70000E94510164E184E10E946801C5CE63E0F2
:100F8000802F0E94680188E090E00E945101BCCE51
:100F90006DEF802F0E9468018AE090E00E9451016D
:100FA000B3CE68EF802F0E9468018DE090E00E9430
:100FB0005101AACE63EF802F0E94680182E190E088
:100FC0000E945101A1CE64E185E00E94680188EF92
:100FD0009FEF0E94510198CE64E180E00E94680179
:100FE00086EF9FEF0E9451018FCE64E18BEF0E944C
:100FF000680183EF9FEF0E94510186CE64E18AE091
:101000000E9468018EEE9FEF0E9451017DCE62E347
:1010100082E30E94680180916400909165008536AA
:10102000910560F00E945A028770873009F44BCE18
:101030000E945A028F708F3009F447CE809166006B
:1010400090916700C39708F042CE80916400909120
:1010500065000B9708F03DCE57CE62E382E30E9415
:10106000680180916400909165008536910560F07B
:101070000E945A02807E803E09F42DCE0E945A02C0
:10108000807F803F09F429CE8091660090916700AF
:10109000C39708F024CE80916400909165000B976F
:1010A00008F01FCE31CE68E170E080E090E00E9451
:1010B000B3018AE69FEF0E94510188E10E940B056F
:1010C0006AE582EE0E946801109267001092660045
:1010D000CFE11ACE69E170E080E090E00E94B301B8
:1010E00089E10E940B0586E990E00E94510162EEC1
:1010F0008AE50E9468011092670010926600C9E2BA
:1011000003CE6FE170E080E090E00E94B3018FE1D8
:101110000E940B0580916600909167008B3F9105BE
:1011200008F4F2CD1092670010926600C0E2ECCD98
:1011300060E270E080E090E00E94B30180E20E94F3
:101140000B050E945A02877E803209F0DDCD109295
:10115000670010926600C12FD7CD69E270E080E091
:1011600090E00E94B30189E20E940B058091660025
:1011700090916700893C910508F4C6CD10926700F4
:1011800010926600CAE2C0CD6AE270E080E090E0B2
:101190000E94B3018AE20E940B050E945A02877ED8
:1011A000843009F0B1CD1092670010926600C12F13
:1011B000ABCD80EE90E00E945A02803E09F493CDC0
:1011C00080EF90E00E945A02803F09F48ECD63E3E5
:1011D00070E080E090E00E94B30183E30E940B0581
:1011E00080E090E00E94510166E486E40E9468017C
:1011F00010926700109266001092650010926400D1
:10120000C4E382CD80916600909167008536910598
:1012100030F480916400909165000B9728F0109253
:10122000670010926600C5E30E945A02807E803EED
:1012300009F45DCD0E945A02807F803F09F064CDA1
:1012400058CD0E945A0281110EC086E490E00E949F
:1012500051016CE382E30E946801109267001092D2
:101260006600C6E351CD0E945A02877E883048F45A
:101270008630D8F4882381F08350823008F044CD42
:1012800014C08036D9F018F48032C1F03DCD803CD6
:10129000A9F0803E99F038CD80E090E00E945101A5
:1012A0006EE18EE10E9468012FCD8FE090E00E94F8
:1012B000510164E18EE10E94680126CD81EF9FEF2C
:1012C0000E9451016EE184E10E9468011DCD0E94DF
:1012D0005A028C708C3009F017CD10926700109272
:1012E0006600C12F11CD0E945A028770873009F421
:1012F00002CD0E945A028F708F3009F4FECC6DE34C
:1013000070E080E090E00E94B3018DE30E940B0545
:1013100080E090E00E9451016AE58AE50E94680140
:10132000109267001092660010926500109264009F
:10133000CEE3EACC809166009091670085369105F6
:1013400030F480916400909165000B9728F0109222
:10135000670010926600CFE30E945A0287708730C0
:1013600009F4CDCC0E945A028F708F3009F0CCCC9A
:10137000C8CC0E945A028111C7CC8AEB9FEF0E9411
:10138000510168E28CE30E9468011092670010929C
:101390006600C0E4B9CC0E945A028073803309F021
:1013A000B3CC1092670010926600C12FADCC67E4F9
:1013B00070E080E090E00E94B30187E40E940B059A
:1013C00064E684E60E94680180916600909167005F
:1013D0008536910538F480916400909165000B97F3
:1013E00008F492CC1092670010926600C8E48CCC8E
:1013F0000E945A0281110AC080E090E00E945101CF
:1014000064E684E60E946801C9E47ECC0E945A0228
:101410008E77482F50E0FA013297EF35F10508F04A
:1014200073CCE853FF4F0C948C0E80E090E00E9448
:10143000510164E684E60E94680166CC61E18AE5B8
:101440000E94680188E090E00E9451015DCC66E452
:101450008AE50E9468018DE090E00E94510154CC21
:1014600061E48AE50E94680182E190E00E945101F6
:101470004BCC6CE38AE50E9468018AE190E00E940F
:10148000510142CC6AE58BE40E94680188EF9FEF2E
:101490000E94510139CC6AE586E40E94680183EF1D
:1014A0009FEF0E94510130CC6AE581E40E946801FF
:1014B0008EEE9FEF0E94510127CC6AE58CE30E94DB
:1014C000680186EE9FEF0E9451011ECC80E090E003
:1014D0000E94510164E684E60E9468010E945A025B
:1014E000811111CC11CCCF93C82F80916E008695BD
:1014F000682F0E946801C13019F484E690E002C0B0
:101500008CE99FEF0E94510110926B0010926A00CB
:101510000E945A028823E1F3CF9108958F929F92FF
:10152000AF92BF92CF92DF92EF92FF92CF93DF9371
:101530005C01C091BF02D0E04E01880C991C8C0E5A
:101540009D1E9C01992324F422273327281B390B45
:101550002815390561F420916E00822F90E03BEA56
:10156000239F212D11242695821B9109A0C0A1142F
:10157000B10421F480916E0090E099C01A141B040C
:101580000CF045C060916E0070E080E090E00E9439
:10159000480D6B017C01B4016A197B09882777FD2E
:1015A0008095982F0E94480D20E030E040E450E400
:1015B0000E94AD0C4B015C01BE01882777FD809530
:1015C000982F0E94480D9B01AC01C501B4010E94F7
:1015D000D40D9B01AC01C701B6010E94D40D0E943D
:1015E000150D7727882777FD8095982F0E94480D45
:1015F0002AE939E949E15EE30E94D40D9B01AC017F
:10160000C701B6010E94480C0E94150D4EC0BB20B8
:101610000CF04BC060916E0070E080E090E00E94A2
:10162000480D6B017C01BE01660F771F6C0F7D1F9B
:101630007195619571096A197B09882777FD8095F5
:10164000982F0E94480D20E030E040E450EC0E94CA
:10165000AD0C4B015C01BE01882777FD8095982F6A
:101660000E94480D9B01AC01C501B4010E94D40D3C
:101670009B01AC01C701B6010E94D40D0E94150D5B
:101680007727882777FD8095982F0E94480D2AE9B3
:1016900039E949E15EE30E94D40D9B01AC01C70129
:1016A000B6010E94480C0E94150D862F90E0DF9134
:1016B000CF91FF90EF90DF90CF90BF90AF909F9031
:1016C0008F900895DF92EF92FF920F931F93CF9325
:1016D000DF93109269000E94C5024091A9025091C7
:1016E000AA026091A7027091A8022BEA32E08091D1
:1016F000BD029091BE020E94350480916E00682F59
:101700000E94680180916900843629F460E080E0DD
:101710000E94680148C0F12CDD24D3946894EE2423
:10172000E1F80E945A029FEF980F9E3F58F0809177
:1017300069008F5F80936900FF2049F18F2D0E941F
:10174000730A25C0982F9F709F30F1F0982F907FDB
:10175000903FE1F00E948405EC014BEA52E0BC01AD
:1017600080E090E00E9462048C01CE010E948E0A0B
:10177000682F0E946801C80199230CF40196959581
:1017800087950E94510103C0FD2C01C0FE2C6F2DD6
:1017900070E080E090E00E94B3018091690084369F
:1017A00009F0BFCFB3CFDF91CF911F910F91FF9081
:1017B000EF90DF9008950E94990268EB72E280E05A
:1017C00090E00E94B30180E090E00E945101CFE4DC
:1017D000D2E082E00E944601882331F0D09361007C
:1017E000C09360000E94620B84E00E94460188233F
:1017F00081F380E296E090936100809360000E9404
:1018000042061F920F920FB60F9211242F933F930F
:101810004F935F936F937F938F939F93AF93BF93F8
:10182000EF93FF93E0916000F09161000995FF91C3
:10183000EF91BF91AF919F918F917F916F915F9148
:101840004F913F912F910F900FBE0F901F901895C1
:101850001F920F920FB60F9211248F939F93809136
:1018600064009091650001969093650080936400F8
:101870008091620090916300019690936300809341
:1018800062009F918F910F900FBE0F901F9018953F
:101890005058BB27AA270ED04DC13ED130F043D1BE
:1018A00020F031F49F3F11F41EF433C10EF4E095A3
:1018B000E7FB29C1E92F4FD180F3BA1762077307FD
:1018C0008407950718F071F49EF567C10EF4E09552
:1018D0000B2EBA2FA02D0B01B90190010C01CA01EA
:1018E000A0011124FF27591B99F0593F50F4503E95
:1018F00068F11A16F040A22F232F342F4427585F87
:10190000F3CF469537952795A795F0405395C9F79E
:101910007EF41F16BA0B620B730B840BBAF0915056
:10192000A1F0FF0FBB1F661F771F881FC2F70EC0F5
:10193000BA0F621F731F841F48F4879577956795C8
:10194000B795F7959E3F08F0B3CF9395880F08F0B1
:101950009927EE0F9795879508950CD0EBC0E3D0AB
:1019600040F0DAD030F021F45F3F19F0CCC05111D3
:1019700015C1CFC0F0D098F39923C9F35523B1F323
:10198000951B550BBB27AA2762177307840738F0EE
:101990009F5F5F4F220F331F441FAA1FA9F333D04D
:1019A0000E2E3AF0E0E830D091505040E695001C01
:1019B000CAF729D0FE2F27D0660F771F881FBB1FBD
:1019C000261737074807AB07B0E809F0BB0B802D97
:1019D000BF01FF2793585F4F2AF09E3F510568F0E3
:1019E00092C0DCC05F3FECF3983EDCF386957795C0
:1019F0006795B795F7959F5FC9F7880F911D9695E5
:101A0000879597F90895E1E0660F771F881FBB1F40
:101A1000621773078407BA0720F0621B730B840BED
:101A2000BA0BEE1F88F7E095089504D06894B111C1
:101A3000B5C0089598D088F09F5790F0B92F992796
:101A4000B751A0F0D1F0660F771F881F991F1AF0C9
:101A5000BA95C9F712C0B13081F09FD0B1E00895B6
:101A60009CC0672F782F8827B85F39F0B93FCCF337
:101A7000869577956795B395D9F73EF490958095BF
:101A8000709561957F4F8F4F9F4F0895E89409C0DF
:101A900097FB3EF490958095709561957F4F8F4FA1
:101AA0009F4F9923A9F0F92F96E9BB279395F695B7
:101AB000879577956795B795F111F8CFFAF4BB0F35
:101AC00011F460FF1BC06F5F7F4F8F4F9F4F16C099
:101AD000882311F096E911C0772321F09EE8872F23
:101AE000762F05C0662371F096E8862F70E060E0DF
:101AF0002AF09A95660F771F881FDAF7880F969558
:101B0000879597F9089597F99F6780E870E060E0FE
:101B100008959FEF80EC089500240A941616170686
:101B200018060906089500240A94121613061406CE
:101B300005060895092E0394000C11F4882352F031
:101B4000BB0F40F4BF2B11F460FF04C06F5F7F4FE9
:101B50008F4F9F4F089557FD9058440F551F59F0D0
:101B60005F3F71F04795880F97FB991F61F09F3F8A
:101B700079F087950895121613061406551FF2CFB3
:101B80004695F1DF08C0161617061806991FF1CF03
:101B900086957105610508940895E894BB2766272A
:101BA0007727CB0197F908950BD0C4CFB5DF28F084
:101BB000BADF18F0952309F0A6CFABCF1124EECFF2
:101BC000CADFA0F3959FD1F3950F50E0551F629F98
:101BD000F001729FBB27F00DB11D639FAA27F00D86
:101BE000B11DAA1F649F6627B00DA11D661F829FAD
:101BF0002227B00DA11D621F739FB00DA11D621F92
:101C0000839FA00D611D221F749F3327A00D611DAE
:101C1000231F849F600D211D822F762F6A2F112490
:101C20009F5750408AF0E1F088234AF0EE0FFF1FE3
:101C3000BB1F661F771F881F91505040A9F79E3F1A
:101C4000510570F060CFAACF5F3FECF3983EDCF314
:101C5000869577956795B795F795E7959F5FC1F757
:101C6000FE2B880F911D9695879597F9089597FB00
:101C7000072E16F4009407D077FD09D00E949A0E23
:101C800007FC05D03EF4909581959F4F089570957F
:101C900061957F4F0895A1E21A2EAA1BBB1BFD017F
:101CA0000DC0AA1FBB1FEE1FFF1FA217B307E4073B
:101CB000F50720F0A21BB30BE40BF50B661F771F93
:101CC000881F991F1A9469F7609570958095909573
:101CD0009B01AC01BD01CF010895052E97FB1EF4B9
:101CE00000940E94840E57FD07D00E944B0E07FC03
:101CF00003D04EF40C94840E509540953095219568
:101D00003F4F4F4F5F4F0895909580957095619527
:101D10007F4F8F4F9F4F0895EE0FFF1F0590F49157
:101D2000E02D0994B7FF0C94AE0E0E94AE0E821BFC
:101D3000930B0895AA1BBB1B51E107C0AA1FBB1F31
:101D4000A617B70710F0A61BB70B881F991F5A9547
:101D5000A9F780959095BC01CD0108950E94B90E18
:101D6000A59F900DB49F900DA49F800D911D1124EF
:101D70000895A29FB001B39FC001A39F700D811D64
:101D80001124911DB29F700D811D1124911D089584
:101D9000DC01CB01FC01E199FECF06C0FFBBEEBB2D
:101DA000E09A31960DB20D9241505040B8F7089527
:101DB000E199FECF9FBB8EBBE09A99278DB3089522
:101DC000A8E1B0E042E050E00C94CA0E262FE19961
:101DD000FECF9FBB8EBB2DBB0FB6F894E29AE19A63
:101DE0000FBE019608950E94E60E272F0C94E70E71
:041DF000F894FFCF95
:021DF400940257
:00000001FF
