:100000000C942A000C942F100C9447000C94470079
:100010000C9447000C9447000C9447000C94470044
:100020000C9447000C9447000C9447000C94470034
:100030000C9447000C9447000C9447000C94470024
:100040000C9447000C9447000C9447000C94081043
:100050000C94470011241FBECFE5D4E0DEBFCDBF16
:1000600010E0A0E6B0E0E4E3F6E202C005900D92F5
:10007000A436B107D9F722E0A4E6B0E001C01D9292
:10008000A339B207E1F70E94DC0F0C9418130C940B
:1000900000009091740281E0890F80937402943083
:1000A000C1F08130D9F0B8F0823081F08330C9F4EA
:1000B000909175028091790280958FB9779BFECFE0
:1000C0009FB9779BFECFC49AC49808959091760209
:1000D000F1CF1092740290917802ECCF9091770258
:1000E000E9CF90E0E7CF9091740281E0890F80938F
:1000F00074029430C1F08130D9F0B8F0823081F0D0
:100100008330C9F4909175028091790280958FB9FE
:10011000779BFECF9FB9779BFECFC49AC498089572
:1001200090917602F1CF1092740290917802ECCF08
:1001300090917702E9CF90E0E7CF9091740281E04F
:10014000890F809374029430C1F08130D9F0B8F0F7
:10015000823081F08330C9F49091750280917902E8
:1001600080958FB9779BFECF9FB9779BFECFC49ABE
:10017000C498089590917602F1CF109274029091F4
:100180007802ECCF90917702E9CF90E0E7CF9091A1
:10019000740281E0890F80937402943051F18130B0
:1001A00069F148F1823011F1833059F5909175026F
:1001B0008091790280958FB9779BFECF9FB9779B0D
:1001C000FECFC49AC49820E0322F306437B9369AF3
:1001D000349BFECF84B195B137B9369A349BFECFAC
:1001E00084B195B12F5F283079F708959091760208
:1001F000DFCF1092740290917802DACF909177025B
:10020000D7CF90E0D5CF8F929F92AF92BF92CF92EF
:10021000DF92EF92FF925B01BC0180E090E00E94D0
:10022000481123E333E343E35FE30E94FA116B01D8
:100230007C01B50180E090E00E94481120E030E0B0
:1002400040E05FE30E94FA114B015C019398C70103
:10025000B6010E941C1148EC469F9001479F300D4B
:10026000112439BD28BD9698C501B4010E941C1106
:100270004FEF469F9001479F300D112436952795EB
:1002800036952795ABE7B4E10E94C61296958795FF
:1002900083BDFF90EF90DF90CF90BF90AF909F9085
:1002A0008F9008954F925F926F927F928F929F925C
:1002B000AF92BF92CF92DF92EF92FF926B017C01DF
:1002C000EAE04E2E512C612C712CA30192010E9468
:1002D0008512606860937502F4E68F2E912CA12C34
:1002E000B12CC701B601A50194010E948512A3019A
:1002F00092010E948512722E622EC701B60128EE6D
:1003000033E040E050E00E948512F22EA5019401F6
:100310000E948512922FFF2091F080E1F82AF0923E
:100320007802F11012C0911124C080E0282B209394
:100330007702211124C0611022C080E00AC080E051
:10034000F82AF0927802FF2071F32062209377025E
:1003500080E4782A70927602FF90EF90DF90CF9041
:10036000BF90AF909F908F907F906F905F904F90D5
:10037000089580E2282B209377022223E1F280E483
:10038000E8CF80E487B987E886B981EF87BB8FEF34
:1003900088BB14BA85BB8BEF81BB12BA80E58DB9DF
:1003A00081E08EB98CE083BF8EE38CBF82E089BF91
:1003B0008FB5826A8FBD8EB58A618EBD80E29EE464
:1003C00097BD86BD8FE685BD13BC789485B78A60DE
:1003D00085BF8BB780648BBF08953F924F925F9229
:1003E0006F927F928F929F92AF92BF92CF92DF9245
:1003F000EF92FF920F931F93CF93DF9382EB9CE0DA
:100400009BBD8ABDB19B62C000E0332433946AE097
:10041000462E512C612C712C74E6872E912CA12C28
:10042000B12CB29BB4C2B39BA8C2083008F0ABC2D7
:10043000D32D002E01C0DD0F0A94EAF7802F8064CF
:1004400087B9369A349BFECFC4B0D5B0E12CF12CDD
:10045000C701B601A30192010E94851260686093F2
:100460007502C701B601A50194010E948512A3017E
:1004700092010E948512C22F122FC701B60128EEE9
:1004800033E040E050E00E948512F22EA501940175
:100490000E948512922FFF2009F4D6C280E1F82A2B
:1004A000F0927802F110CBC29111DCC280E0282BCF
:1004B000209377022111CAC21111C8C280E0C82B53
:1004C000C0937602D0937902B199ABCFB19BFECFA6
:1004D00086E090E00E9400138F3F2FEF920709F40F
:1004E000C9C290936D0080936C00EC01B19B5DC01C
:1004F0004AE0442E512C612C712C54E6852E912C0F
:10050000A12CB12C16C080E1F82AF0927802F110EB
:1005100043C09111ADC280E0282B209377022111B6
:100520009BC2011199C280E0182B10937602B19BF7
:100530003CC0B29B38C2B39B2EC26E01E12CF12CA1
:10054000C701B601A30192010E9485126068609301
:100550007502C701B601A50194010E948512A3018D
:1005600092010E948512122F022FC701B60128EEB8
:1005700033E040E050E00E948512F22EA501940184
:100580000E948512922FF110BECF80E0F82AF092DF
:100590007802FF2009F4BDCF20622093770280E427
:1005A000182B10937602B199C4CFB19BFECFBE0138
:1005B00086E090E00E94131388E090E00E94F81219
:1005C0008F3F09F475C280939202D82FB19B52C01D
:1005D0002AE0422E512C612C712C34E6832E912C72
:1005E000A12CB12C0EC080E2282B209377028C2FF7
:1005F00021113AC0C11138C0C82BC0937602B19BFB
:1006000039C0B29BDEC1B39BD6C1CD2ED12CE12C1B
:10061000F12CC701B601A30192010E948512606806
:1006200060937502C701B601A50194010E9485126D
:10063000A30192010E948512C22FC701B60128EEC4
:1006400033E040E050E00E948512A50194010E9431
:100650008512109278022111C6CF80E0282B2093BA
:1006600077028C2F222331F280E4C82BC0937602CC
:10067000B199C7CFB19BFECF6D2F88E090E00E946B
:10068000061384E090E00E9400138F3F2FEF920743
:1006900009F40BC2909391028093900282EB9CE04C
:1006A0009BBD8ABDB19B66C08AE0482E512C612C4F
:1006B000712C94E6892E912CA12CB12C02EB1CE01C
:1006C00018C080E1F82AF0927802F11048C0911128
:1006D000CDC180E0282B209377022111BBC1D1111D
:1006E000B9C180E0C82BC09376021BBD0ABDB19B87
:1006F00041C0B29B76C1C0909002D0909102B39B52
:1007000066C1E12CF12CC701B601A30192010E9440
:100710008512606860937502C701B601A501940156
:100720000E948512A30192010E948512C22FD22F2E
:10073000C701B60128EE33E040E050E00E94851288
:10074000F22EA50194010E948512922FF110B9CFCB
:1007500080E0F82AF0927802FF2009F4B8CF2062F6
:100760002093770280E4C82BC09376021BBD0ABD9C
:10077000B199BFCFB19BFECF609190027091910271
:1007800084E090E00E94131382E090E00E94001346
:100790008F3F2FEF920709F47FC190937B028093E4
:1007A0007A02EC01B19B5DC01AE0412E512C612C04
:1007B000712C04E6802E912CA12CB12C16C080E166
:1007C000F82AF0927802F11043C0911149C180E0FB
:1007D000282B20937702211141C101113FC180E0F4
:1007E000182B10937602B19B3CC0B29B10C1B39BF7
:1007F00006C16E01E12CF12CC701B601A3019201E3
:100800000E948512606860937502C701B601A50158
:1008100094010E948512A30192010E948512122F59
:10082000022FC701B60128EE33E040E050E00E94FD
:100830008512F22EA50194010E948512922FF110CB
:10084000BECF80E0F82AF0927802FF2009F4BDCFF5
:1008500020622093770280E4182B10937602B199DE
:10086000C4CFB19BFECFBE0182E090E00E94131383
:1008700080E090E00E9400138F3F2FEF920709F471
:1008800002C190937D0280937C02EC01B19B5DC01C
:10089000AAE04A2E512C612C712CB4E68B2E912C9F
:1008A000A12CB12C16C080E1F82AF0927802F11048
:1008B00043C09111D9C080E0282B209377022111E9
:1008C000C7C00111C5C080E0182B10937602B19B00
:1008D0003CC0B29BACC0B39BA2C06E01E12CF12C1A
:1008E000C701B601A30192010E948512606860935E
:1008F0007502C701B601A50194010E948512A301EA
:1009000092010E948512122F022FC701B60128EE14
:1009100033E040E050E00E948512F22EA5019401E0
:100920000E948512922FF110BECF80E0F82AF0923B
:100930007802FF2009F4BDCF20622093770280E483
:10094000182B10937602B199C4CFB19BFECFBE0194
:1009500080E090E0DF91CF911F910F91FF90EF9099
:10096000DF90CF90BF90AF909F908F907F906F90CF
:100970005F904F903F900C941313B39BFECF0F5F8B
:10098000083008F455CD80E4D1E000E059CDB29BA9
:10099000FECF015048CDB39BFECF2A96D0936D0079
:1009A000C0936C00CACDB29BFECF2A97D0936D0046
:1009B000C0936C00C0CDB39BFECFDF5FD09392029B
:1009C00024CEB29BFECFD150D09392021CCEB39BCB
:1009D000FECF2AE0C20ED11CD0929102C0929002AA
:1009E00090CEB29BFECFC0909002D09091028AE050
:1009F000C81AD108D0929102C092900280CEB39BC7
:100A0000FECF2196D0937B02C0937A02F2CEB29BA6
:100A1000FECF2197D0937B02C0937A02E8CEB39B9E
:100A2000FECF2A96D0937D02C0937C0256CFB29B14
:100A3000FECF2A97D0937D02C0937C024CCF2062D8
:100A40002093770280E43BCD80E029CD80E437CD50
:100A500080E43ACF80E446CE80E466CD80E4C0CE28
:100A600080E2B6CE80E223CD80E226CF80E232CE95
:100A700080E252CD80E590E090936D0080936C0011
:100A8000C0E5D0E033CD81E090E090937D0280938B
:100A90007C02C1E0D0E0FACE82E090E090937B024D
:100AA00080937A02C2E0D0E07DCE8FE590E0F2CD77
:100AB00082E380939202D2E389CD8F929F92AF928C
:100AC000BF92CF92DF92EF92FF92CF93DF93EB0131
:100AD000FA019C01261B370B8485958582179307A5
:100AE0007CF0919581959109281739070CF091C0F8
:100AF00088248394A0E89A2EAA24AA94BA2C06C02B
:100B000088248A94BFE79B2EA12CB12C442737FD63
:100B10004095542F82819381A481B581280F391F7C
:100B20004A1F5B1FC684D784E088F188C216D306AB
:100B3000E406F5060CF04EC0C282D382E482F58250
:100B40006FEF7FEF8FEF9FE3208131812C1B3D0BF7
:100B5000A285B3852A9FA0012B9F500D3A9F500D6F
:100B60001124D183C083DC01CB01880D991DAA1DFE
:100B7000BB1D662757FD6095762F840F951FA61F16
:100B8000B71FB7FD54C0E7E0B595A7959795879532
:100B9000EA95D1F7813020E892072FEFA207B2073C
:100BA00024F481E090E8AFEFBFEF811520E89207D1
:100BB000A105B10524F08FEF9FE7A0E0B0E0DF9141
:100BC000CF91FF90EF90DF90CF90BF90AF909F902C
:100BD0008F900895F094E094D094C094C11CD11CDF
:100BE000E11CF11C2C153D054E055F054CF4C2823D
:100BF000D382E482F58261E070E080E090ECA4CFE3
:100C00002283338344835583A085B1850E94D51206
:100C10009BCF86819781289F4001299F900C389F08
:100C2000900C1124AA2497FCA094BA2C6FCF815861
:100C30009F4FAF4FBF4FA7CF42EB5CE02EE239E0B2
:100C400086E390E1B19B0AC0B29B0EC0B399FACF84
:100C5000B39BFECF9BBD8ABDB199F6CFB19BFECFB2
:100C60005BBD4ABDB299F2CFB29BFECF3BBD2ABD60
:100C7000EDCFCF92DF92EF92FF920F931F93CF931E
:100C8000109269001092680060916C0070916D0084
:100C90007695679580E090E00E9448116B017C0199
:100CA000939823E333E343E35FE30E94FA110E9446
:100CB0001C1148EC469F9001479F300D112439BD0F
:100CC00028BD969820E030E040E05FE3C701B60120
:100CD0000E94FA110E941C114FEF469F9001479FFE
:100CE000300D11243695279536952795ABE7B4E15D
:100CF0000E94C6129695879583BDE7EEF3E061E00A
:100D000070E0AAE5CA2EAAE0DA2E0AE01FE0A2EB04
:100D1000BCE020E030E0C0E0822F806487B9369AE2
:100D2000349BFECF44B155B187B9369A349BFECF80
:100D300084B195B1840F951F969587954091620077
:100D4000509163008417950758F5CB01022E01C01E
:100D5000880F0A94EAF7C82B2F5F3F4F28303105E0
:100D6000D9F6C83091F128F5C13019F0C0F1C3307F
:100D700011F41BBD0ABD3197309759F688E880936E
:100D8000750281E18093780283E28093770283E4A5
:100D900080937602939819BC18BC969813BCFFCF29
:100DA000CB01022E01C0880F0A94EAF78095C82370
:100DB000D3CFC83151F038F0C03811F0C03CD9F66B
:100DC000DBBCCABCD8CFC031B1F610926400CF9161
:100DD0001F910F91FF90EF90DF90CF900895BBBDD2
:100DE000AABDC9CFCF92DF92EF92FF9287E880939E
:100DF000750287E18093780287E28093770287E427
:100E00008093760260E070E021E030E0683020F00E
:100E1000772371F160E070E0862F806487B9369A9D
:100E2000349BFECF44B155B187B9369A349BFECF7F
:100E300084B195B1840F951F969587954091620076
:100E4000509163008417950748F4C901062E01C02C
:100E5000880F0A94EAF7782B6F5FD8CFC901062E66
:100E600001C0880F0A94EAF7809578236F5FCECF90
:100E700060916C0070916D0080E090E00E944811DC
:100E800023E333E343E35FE30E94FA110E941C1162
:100E9000939848EC469F9001479F300D112439BD2F
:100EA00028BD969813BC86E390E19BBD8ABDE8EE11
:100EB000F3E061E070E020E030E0A0E0822F8064A9
:100EC00087B9369A349BFECF44B155B187B9369A6B
:100ED000349BFECF84B195B1840F951F969587956D
:100EE00040916200509163008417950718F5CB017B
:100EF000022E01C0880F0A94EAF7A82B2F5F3F4FFC
:100F000028303105D9F6A831F1F03197309799F6AC
:100F100088E88093750281E18093780283E2809370
:100F2000770283E480937602939819BC18BC969854
:100F300013BCFFCFCB01022E01C0880F0A94EAF741
:100F40008095A823DBCF1092690010926800109260
:100F5000650060916C0070916D0080E090E00E94EF
:100F600048116B017C01939823E333E343E35FE390
:100F70000E94FA110E941C1148EC469F9001479F65
:100F8000300D112439BD28BD969820E030E040E0B6
:100F90005FE3C701B6010E94FA110E941C114FEFD6
:100FA000469F9001479F300D112436952795369521
:100FB0002795ABE7B4E10E94C6129695879583BD4D
:100FC000FF90EF90DF90CF900895CF92DF92EF9255
:100FD000FF9286E88093750286E18093780286E22C
:100FE0008093770286E48093760260E070E021E0EF
:100FF00030E0683020F0772371F160E070E0862FF8
:10100000806487B9369A349BFECF44B155B187B915
:10101000369A349BFECF84B195B1840F951F969577
:10102000879540916200509163008417950748F4BA
:10103000C901062E01C0880F0A94EAF7782B6F5F6A
:10104000D8CFC901062E01C0880F0A94EAF780950F
:1010500078236F5FCECF60916C0070916D0080E05F
:1010600090E00E94481120E030E040E05FE30E9401
:10107000FA110E941C11939819BC18BC96984FEF56
:10108000469F9001479F300D112436952795369540
:101090002795ABE7B4E10E94C6129695879583BD6C
:1010A0008EE299E09BBD8ABDE8EEF3E061E070E07E
:1010B00020E030E0A0E0822F806487B9369A349B2C
:1010C000FECF44B155B187B9369A349BFECF84B177
:1010D00095B1840F951F9695879540916200509128
:1010E00063008417950718F5CB01022E01C0880F05
:1010F0000A94EAF7A82B2F5F3F4F28303105D9F625
:10110000A831F1F03197309799F688E8809375020D
:1011100081E18093780283E28093770283E4809375
:101120007602939819BC18BC969813BCFFCFCB01DC
:10113000022E01C0880F0A94EAF78095A823DBCF1E
:1011400010926900109268001092650060916C0026
:1011500070916D0080E090E00E9448116B017C016D
:10116000939823E333E343E35FE30E94FA110E9481
:101170001C1148EC469F9001479F300D112439BD4A
:1011800028BD969820E030E040E05FE3C701B6015B
:101190000E94FA110E941C114FEF469F9001479F39
:1011A000300D11243695279536952795ABE7B4E198
:1011B0000E94C6129695879583BDFF90EF90DF90B1
:1011C000CF9008954F925F926F927F928F929F92ED
:1011D000AF92BF92CF92DF92EF92FF920F931F9345
:1011E000CF93DF9389E290E00E9400138F3F2FEFAF
:1011F000920709F48FC09093630080936200EC0122
:10120000B19B5DC05AE0452E512C612C712C64E6D7
:10121000862E912CA12CB12C16C080E1F82AF092D8
:101220007802F11043C0911173C080E0282B209305
:10123000770221116BC0011169C080E0182B109357
:101240007602B19B3CC0B29B59C0B39B4FC06E01AC
:10125000E12CF12CC701B601A30192010E94851275
:10126000606860937502C701B601A50194010E94F0
:101270008512A30192010E948512122F022FC7012D
:10128000B60128EE33E040E050E00E948512F22ED5
:10129000A50194010E948512922FF110BECF80E02B
:1012A000F82AF0927802FF2009F4BDCF2062209343
:1012B000770280E4182B10937602B199C4CFB19BCA
:1012C000FECFBE0189E290E0DF91CF911F910F9197
:1012D000FF90EF90DF90CF90BF90AF909F908F9056
:1012E0007F906F905F904F900C941313B39BFECF41
:1012F0002A96D0936300C0936200A9CFB29BFECF21
:101300002A97D0936300C09362009FCF80E496CF6A
:1013100080E28CCF82EC91E0909363008093620036
:10132000C2ECD1E06DCFCF93DF93CDB7DEB7279777
:101330000FB6F894DEBF0FBECDBF0E94ED01409105
:101340007C0250917D0220917A0230917B02809143
:10135000900290919102109280021092810210925C
:1013600082021092830210927F0210927E0290936A
:1013700085028093840230938702209386025093E3
:10138000890240938802BC016F5F7F4F8FEF9FE718
:101390000E94711270938B0260938A022F5F3F4FFD
:1013A000442737FD4095542F6FEF7FEF8FEF9FE37A
:1013B0000E94A71220938C0230938D0240938E02DC
:1013C00050938F0269E375E080E090E00E94520143
:1013D00080916C0090916D009093710280937002E7
:1013E0009093730280937202BC010E94030110E08B
:1013F000C12CD12C7601B0906500A09066000091C0
:10140000640084E6482E512C612C712C22242394F4
:10141000312CC982DA82EB82FC82C701B6012AE054
:1014200030E040E050E00E948512606860937502F1
:1014300069817A818B819C81A30192010E9485122E
:101440002AE030E040E050E00E948512F22E6981EF
:101450007A818B819C8128EE33E040E050E00E944D
:101460008512A30192010E94851210927802222314
:1014700009F46EC080E2282B209377028F2D211172
:1014800065C0F11063C0F82AF092760240E8B49E7D
:101490009001112450E4059FC0011124822B8A2958
:1014A00080937902123009F477C008F053C01123F9
:1014B00009F4CCC0113009F06AC020E030E060E0EF
:1014C000822F806487B9369A349BFECF44B155B1E0
:1014D00087B9369A349BFECF84B195B1840F951F9E
:1014E0009695879540916200509163008417950707
:1014F00020F5C101022E01C0880F0A94EAF7682B7B
:101500002F5F3F4F28303105D9F6677009F08CC046
:10151000B0906500B110ACC382E08093660010E02B
:1015200019821A821B821C82E2E0AE2E00916400B6
:1015300069817A818B819C8172CFC101022E01C0A9
:10154000880F0A94EAF780956823DACF80E49BCF6E
:1015500080E091CF133009F4E4C11A30C1F4A11036
:1015600007C2BB2069F01092650010E019821A8250
:101570001B821C82B12C69817A818B819C814FCF27
:10158000011144C310E019821A821B821C826981F6
:101590007A818B819C8143CF20E030E060E0822F14
:1015A000806487B9369A349BFECF44B155B187B970
:1015B000369A349BFECF84B195B1840F951F9695D2
:1015C000879540916200509163008417950718F544
:1015D000C101022E01C0880F0A94EAF7682B2F5F21
:1015E0003F4F28303105D9F6607EF1F4B0906500A8
:1015F000B11039C381E08093660010E019821A822D
:101600001B821C82AA24A3940091640069817A81C0
:101610008B819C8104CFC101022E01C0880F0A94E6
:10162000EAF780956823DBCF13E083E090E0A0E049
:10163000B0E089839A83AB83BC83B0906500A090AF
:10164000660000916400BC01CD01E9CE8091670085
:10165000843609F412C320E030E060E0822F806419
:1016600087B9369A349BFECF44B155B187B9369AC3
:10167000349BFECF84B195B1840F951F96958795C5
:1016800040916200509163008417950708F02EC1C5
:10169000C101022E01C0880F0A94EAF7682B2F5F60
:1016A0003F4F28303105D1F66F3F09F402C220E0E8
:1016B00030E060E0822F806487B9369A349BFECF99
:1016C00044B155B187B9369A349BFECF84B195B1F8
:1016D000840F951F96958795409162005091630005
:1016E0008417950708F00BC1C101022E01C0880FB5
:1016F0000A94EAF7682B2F5F3F4F28303105D1F667
:101700006C3F09F49BC2677F603F09F491C280E09F
:1017100090E060E0282F206427B9369A349BFECFF2
:1017200044B155B127B9369A349BFECF24B135B1B7
:10173000240F351F36952795409162005091630024
:101740002417350708F0E4C09101082E01C0220FCC
:101750000A94EAF7622B019688309105D9F66F3327
:1017600009F47BC26F7E6F3009F4E7C280E090E03D
:1017700060E0282F206427B9369A349BFECF44B10D
:1017800055B127B9369A349BFECF24B135B1240F19
:10179000351F3695279540916200509163002417BC
:1017A000350708F0DCC09101082E01C0220F0A9411
:1017B000EAF7622B019688309105D9F6662309F481
:1017C000B6C280E090E060E0282F206427B9369A06
:1017D000349BFECF44B155B127B9369A349BFECF26
:1017E00024B135B1240F351F3695279540916200FD
:1017F000509163002417350708F026C29101082E86
:1018000001C0220F0A94EAF7622B019688309105F5
:10181000D9F6683109F484C2603109F478C26830BD
:1018200009F4ABC281E0962F907E09F480E0962FF8
:10183000977009F08E5F823009F485C2833009F415
:10184000D1C2813009F43FC21F821E824EE752E0AE
:101850006E817F8180E090E00E945D05082F9D836E
:1018600080916500882309F40EC280916C009091EC
:101870006D0063E070E00E945D12709371026093EE
:1018800070027093730260937202802F9D8197FDA6
:101890000196959587958A363FEF930714F48AE66B
:1018A0009FEF8739910514F086E990E046E0489F64
:1018B0009001499F300D1124C9018E54934F9BBD57
:1018C0008ABD609172027091730280917002909152
:1018D00071020E940301B0906500A0906600009123
:1018E000640069817A818B819C8199CDC101022E2E
:1018F00001C0880F0A94EAF780956823D0CEC10111
:10190000022E01C0880F0A94EAF780956823F3CE6F
:101910009101082E01C0220F0A94EAF72095622354
:101920001ACF9FEFA0E7B2E09150A040B040E1F79E
:1019300000C0000081E080936500809364001092F5
:10194000660010E019821A821B821C82BB24B394A9
:10195000A12C01E069817A818B819C8160CD91010C
:10196000082E01C0220F0A94EAF72095622322CFA5
:1019700085E88093750285E18093780285E2809303
:10198000770285E48093760241E000916C0010912B
:101990006D009398B801A41609F4EFC07695679589
:1019A00080E090E00E94481123E333E343E35FE3E8
:1019B0000E94FA110E941C1148EC469F9001479F1B
:1019C000300D112439BD28BD9698B80180E090E013
:1019D0000E94481120E030E040E05FE30E94FA11ED
:1019E0000E941C114FEF469F9001479F300D11241C
:1019F0003695279536952795ABE7B4E10E94C61238
:101A00009695879583BD88E79AE09BBD8ABD8091B6
:101A10006600813009F464C068EE73E020E030E0D5
:101A2000E0E0822F806487B9369A349BFECF44B1C0
:101A300055B187B9369A349BFECF84B195B1840FE6
:101A4000951F969587954091620050916300841789
:101A5000950730F5C101022E01C0880F0A94EAF7FC
:101A6000E82B2F5F3F4F28303105D9F6EE7109F092
:101A7000BCC0615071096115710581F688E88093D9
:101A8000750281E18093780283E28093770283E498
:101A900080937602939819BC18BC969813BCFFCF1C
:101AA000C101022E01C0880F0A94EAF78095E8234D
:101AB000D8CF809167008F5F8093670013E023E0A9
:101AC00030E040E050E029833A834B835C83B09060
:101AD0006500A090660000916400CA01B9019FCC26
:101AE00048EE53E020E030E0E0E0822F806487B9E8
:101AF000369A349BFECF64B175B187B9369A349B60
:101B0000FECF84B195B1860F971F9695879560910A
:101B10006200709163008617970730F5C101022EAD
:101B200001C0880F0A94EAF7E82B2F5F3F4F283057
:101B30003105D9F6E87709F058C0415051094115EF
:101B4000510581F688E88093750281E180937802DF
:101B500083E28093770283E480937602939819BCA2
:101B600018BC969813BCFFCFC101022E01C0880F8C
:101B70000A94EAF78095E823D8CF80E090E00E94AD
:101B8000481123E333E343E35FE30E94FA110E9429
:101B90001C1148EC469F9001479F300D112439BD20
:101BA00028BD9698B8017695679580E090E00E94F0
:101BB000481120E030E040E05FE30E94FA110E940B
:101BC0001C114FEF469F9001479F300D1124369511
:101BD000279536952795ABE7B4E10E94C6129695F6
:101BE000879583BD8CEE9EE010CF1092660010E0CA
:101BF00019821A821B821C82B0906500A12C009170
:101C0000640069817A818B819C8109CC0E943906AC
:101C100010E019821A821B821C82B0906500A0908D
:101C200066000091640069817A818B819C81F7CB89
:101C300011E081E090E0A0E0B0E0FBCC11E021E019
:101C400030E040E050E03FCF9101082E01C0220F6C
:101C50000A94EAF720956223D8CD12E022E030E022
:101C600040E050E030CF109264000E94F206D0CFE6
:101C7000109264000E94E507CBCF939819BC18BC62
:101C8000969813BCFFCFAE81BF81BD01882777FD39
:101C90008095982F0E944A116B017C0120E030E072
:101CA00046E953E40E94AB108111ABC080916C00F7
:101CB00090916D00109271021092700290937302D5
:101CC00080937202E2CD809168009091690097FD47
:101CD000DEC0862F82958695877067FDD5C081FD11
:101CE000F7C080FFB1CD22E030E083E090E0821BBE
:101CF000930B20919202289FA001299F500D11243F
:101D000050936900409368005F834E839FCD89E1C3
:101D100090E090936900809368009F838E8396CDB6
:101D200010926900109268001F821E828FCD1AE007
:101D30002AE030E040E050E0C6CE12E082E090E0E1
:101D4000A0E0B0E076CC8091680090916900181610
:101D50001906B4F562FD31C061FD2CC060FD18C0EC
:101D600040E050E020919202CA01A3E02A9F800D3A
:101D7000911D11249F838E8369CD87EE9FEF9093F1
:101D8000690080936800A7EEBFEFBF83AE835ECD8E
:101D900022E030E083E090E0821B930B20919202DE
:101DA000289FA001299F500D112450936900409352
:101DB0006800DACF21E030E0EDCF20E030E0EACF7C
:101DC000262F30E080E090E0A901082E02C0559552
:101DD00047950A94E2F740FD2BC0019683309105A8
:101DE00099F732CD209168003091690012161306E0
:101DF00074F580919202F901E80FF11DFF83EE83E3
:101E000025CD20E030E046E953ECC701B6010E9441
:101E1000AB10811128C080916C0090916D0090935F
:101E200071028093700210927302109272022DCD93
:101E3000039720919202289FA001299F500D112401
:101E400050936900409368005F834E83FFCC211557
:101E5000310509F4F9CC80919202A901481B51097E
:101E60005F834E83F3CCEE81FF81EF2BA1F5809150
:101E70006C0090916D00909371028093700290932A
:101E800073028093720201CD20E030E02ECF262F26
:101E900022952695277030E080E090E0A901082E79
:101EA00002C0559547950A94E2F740FD67C0019638
:101EB0008330910599F740E050E020919202FA01B9
:101EC00033E0239FE019F1091124FF83EE83BECC98
:101ED00021E030E00ACF2E813F8160916C0070914B
:101EE0006D0080E090E0121613060CF054C00E94C2
:101EF00048114B015C01A701960160E070E086E9A2
:101F000093E40E94461020E030E046E953E40E944A
:101F1000AF109B01AC01C501B4010E94FA110E94EF
:101F2000171180E090E00E9448112AE939E949E957
:101F30005EE30E94FA119B01AC01C501B4010E944D
:101F400046100E9417116B017C018E819F816BEFFF
:101F50007FEF0E9471126C0D7D1D70937102609372
:101F600070028E819F8165E070E00E9471126C0D9D
:101F70007D1D709373026093720287CC039720914A
:101F80009202289FA001299F500D112450936900AF
:101F90004093680094CF0E9448114B015C01A70157
:101FA000960160E070E086E993EC0E94461020E024
:101FB00030E046E953ECABCF0E94C10168EB72E21E
:101FC00080E090E00E94520182EB9CE09BBD8ABDC4
:101FD0000E94E20887EC90E090936100809360009B
:101FE000B19B0CC0B299FCCFB29BFECF8DE990E0C3
:101FF00090936100809360000E941C06B19BFECF0D
:1020000089E490E090936100809360000E949309BE
:102010001F920F920FB60F9211242F933F934F935D
:102020005F936F937F938F939F93AF93BF93EF9340
:10203000FF93E0916000F09161000995FF91EF91AD
:10204000BF91AF919F918F917F916F915F914F91D0
:102050003F912F910F900FBE0F901F9018951F92D8
:102060000F920FB60F9211248F939F9380916A0065
:1020700090916B00019690936B0080936A009F9102
:102080008F910F900FBE0F901F9018955058BB273F
:10209000AA270ED075C166D130F06BD120F031F493
:1020A0009F3F11F41EF45BC10EF4E095E7FB51C1B4
:1020B000E92F77D180F3BA17620773078407950772
:1020C00018F071F49EF58FC10EF4E0950B2EBA2F27
:1020D000A02D0B01B90190010C01CA01A00111242E
:1020E000FF27591B99F0593F50F4503E68F11A16DA
:1020F000F040A22F232F342F4427585FF3CF46956B
:1021000037952795A795F0405395C9F77EF41F168C
:10211000BA0B620B730B840BBAF09150A1F0FF0F56
:10212000BB1F661F771F881FC2F70EC0BA0F621F42
:10213000731F841F48F4879577956795B795F79532
:102140009E3F08F0B3CF9395880F08F09927EE0FC4
:10215000979587950895D9D008F481E008950CD01B
:102160000FC107D140F0FED030F021F45F3F19F0ED
:10217000F0C0511139C1F3C014D198F39923C9F3B8
:102180005523B1F3951B550BBB27AA27621773077D
:10219000840738F09F5F5F4F220F331F441FAA1F31
:1021A000A9F333D00E2E3AF0E0E830D091505040F1
:1021B000E695001CCAF729D0FE2F27D0660F771F9F
:1021C000881FBB1F261737074807AB07B0E809F081
:1021D000BB0B802DBF01FF2793585F4F2AF09E3F16
:1021E000510568F0B6C000C15F3FECF3983EDCF3E8
:1021F000869577956795B795F7959F5FC9F7880F8F
:10220000911D9695879597F90895E1E0660F771FE0
:10221000881FBB1F621773078407BA0720F0621B71
:10222000730B840BBA0BEE1F88F7E095089504D06A
:102230006894B111D9C00895BCD088F09F5790F030
:10224000B92F9927B751A0F0D1F0660F771F881FDB
:10225000991F1AF0BA95C9F712C0B13081F0C3D0F6
:10226000B1E00895C0C0672F782F8827B85F39F094
:10227000B93FCCF3869577956795B395D9F73EF43A
:1022800090958095709561957F4F8F4F9F4F0895E2
:10229000E89409C097FB3EF4909580957095619500
:1022A0007F4F8F4F9F4F9923A9F0F92F96E9BB27B6
:1022B0009395F695879577956795B795F111F8CF32
:1022C000FAF4BB0F11F460FF1BC06F5F7F4F8F4F9D
:1022D0009F4F16C0882311F096E911C0772321F093
:1022E0009EE8872F762F05C0662371F096E8862F2B
:1022F00070E060E02AF09A95660F771F881FDAF782
:10230000880F9695879597F90895990F0008550FAE
:10231000AA0BE0E8FEEF16161706E807F907C0F06B
:1023200012161306E407F50798F0621B730B840B73
:10233000950B39F40A2661F0232B242B252B21F44D
:1023400008950A2609F4A140A6958FEF811D811DED
:10235000089597F99F6780E870E060E008959FEF27
:1023600080EC089500240A9416161706180609062C
:10237000089500240A9412161306140605060895FB
:10238000092E0394000C11F4882352F0BB0F40F483
:10239000BF2B11F460FF04C06F5F7F4F8F4F9F4FC3
:1023A000089557FD9058440F551F59F05F3F71F045
:1023B0004795880F97FB991F61F09F3F79F08795AC
:1023C0000895121613061406551FF2CF4695F1DF35
:1023D00008C0161617061806991FF1CF86957105C5
:1023E000610508940895E894BB2766277727CB01F9
:1023F00097F908950BD0C4CFB5DF28F0BADF18F0F5
:10240000952309F0A6CFABCF1124EECFCADFA0F3FE
:10241000959FD1F3950F50E0551F629FF001729F79
:10242000BB27F00DB11D639FAA27F00DB11DAA1F98
:10243000649F6627B00DA11D661F829F2227B00DE5
:10244000A11D621F739FB00DA11D621F839FA00D70
:10245000611D221F749F3327A00D611D231F849FC0
:10246000600D211D822F762F6A2F11249F57504017
:102470008AF0E1F088234AF0EE0FFF1FBB1F661FB2
:10248000771F881F91505040A9F79E3F510570F06B
:1024900060CFAACF5F3FECF3983EDCF3869577954B
:1024A0006795B795F795E7959F5FC1F7FE2B880F66
:1024B000911D9695879597F90895AA1BBB1B51E12D
:1024C00007C0AA1FBB1FA617B70710F0A61BB70BA4
:1024D000881F991F5A95A9F780959095BC01CD0149
:1024E000089597FB072E16F4009407D077FD09D0C6
:1024F0000E945D1207FC05D03EF4909581959F4F98
:102500000895709561957F4F0895A1E21A2EAA1B38
:10251000BB1BFD010DC0AA1FBB1FEE1FFF1FA21793
:10252000B307E407F50720F0A21BB30BE40BF50B90
:10253000661F771F881F991F1A9469F76095709519
:10254000809590959B01AC01BD01CF010895052EAA
:1025500097FB1EF400940E94BE1257FD07D00E9404
:10256000851207FC03D04EF40C94BE125095409592
:10257000309521953F4F4F4F5F4F0895909580952F
:10258000709561957F4F8F4F9F4F0895A29FB00127
:10259000B39FC001A39F700D811D1124911DB29F97
:1025A000700D811D1124911D0895B7FF0C94DD124B
:1025B0000E94DD12821B930B08950E94C612A59FF4
:1025C000900DB49F900DA49F800D911D112408952E
:1025D000DC01CB01FC01E199FECF06C0FFBBEEBBE5
:1025E000E09A31960DB20D9241505040B8F70895DF
:1025F000E199FECF9FBB8EBBE09A99278DB30895DA
:10260000A8E1B0E042E050E00C94EA12262FE199F4
:10261000FECF9FBB8EBB2DBB0FB6F894E29AE19A1A
:102620000FBE019608950E940613272F0C940713DE
:04263000F894FFCF4C
:042634007300C2016C
:00000001FF
