S00C0000566572312E73726563BA
S11300000C9406020C94A0060C9423020C94230274
S11300100C9423020C9423020C9423020C942302C8
S11300200C9423020C9423020C9423020C942302B8
S11300300C9423020C9423020C9423020C942302A8
S11300400C9423020C9423020C9423020C94710646
S11300500C9423024007F6074508030C030C030C19
S1130060030C030C030C030C030C9508AF080309E1
S1130070030C030CA309B909030C030C030CCE09EC
S1130080E109030C030C030C030C030C030C030C19
S1130090030CF009030A030C030C030C030C030CFC
S11300A0030C030C030C120A470A600A030C030C2A
S11300B0030C030C030C030C030C990ACE0AE70A85
S11300C0030C030C030C030C030C030C030C200B98
S11300D03F0BDF0BB00733079A073307A507330736
S11300E084073307330733078F0733079A07330728
S11300F0BD073307330733073307330733073307A2
S11301007907330733073307840733073307330784
S1130110D30733073307330733073307330733076B
S113012033073307330733073307330733073307FB
S1130130C807330733073307330733073307330756
S1130140BD07330733073307330733073307330751
S1130150E907330733073307330733073307330715
S113016033073307330733073307330733073307BB
S113017033073307330733073307330733073307AB
S1130180330733073307330733073307330733079B
S1130190DE073307330733073307330733073307E0
S11301A0330733073307330733073307330733077B
S11301B0D307EA083307E5083307EA083307DB08FF
S11301C0330733073307E008330733073307EF08F0
S11301D03307330733073307330733073307D608A7
S11301E03307330733073307330733073307F90874
S11301F0330733073307330733073307330733072B
S11302003307330733073307330733073307F40858
S1130210330733073307330733073307330733070A
S11302203307330733073307330733073307FE082E
S113023033073307330733073307330733073307EA
S113024033073307330733073307330733073307DA
S113025033073307330733073307330733073307CA
S11302603307330733073307330733073307FE08EE
S11302708A093307850933078A0933077B0933075A
S11302803307330780093307330733078F093307ED
S11302903307330733073307330733077609330745
S11302A03307330733073307330733079909330712
S11302B0330733073307330733073307330733076A
S11302C033073307330733073307330794093307F7
S11302D0330733073307330733073307330733074A
S11302E03307330733073307330733079E093307CD
S11302F0330733073307330733073307330733072A
S11303003307330733073307330733073307330719
S11303103307330733073307330733073307330709
S11303203307330733073307330733079E09990B22
S11303303307830B33078E0B33076D0B33073307F8
S11303403307780B3307830B3307A60B33073307C5
S113035033073307330733073307620B3307330796
S113036033076D0B330733073307BC0B33073307EE
S113037033073307330733073307330733073307A9
S113038033073307330733073307B10B3307330717
S113039033073307330733073307A60B3307330712
S11303A033073307330733073307D20B33073307D6
S11303B03307330733073307330733073307330769
S11303C03307330733073307330733073307330759
S11303D03307330733073307330733073307330749
S11303E033073307330733073307C70B33073307A1
S11303F03307330733073307330733073307330729
S113040033073307330733073307BC0B11241FBEED
S1130410CFE5D4E0DEBFCDBF10E0A0E6B0E0E0E180
S1130420FDE102C005900D92A236B107D9F720E094
S1130430A2E6B0E001C01D92A03BB207E1F70E9422
S1130440F1060C94860E0C940000982F86B38E70DF
S11304508E3081F02FEF37EE83E021503040804022
S1130460E1F700C0000026B3292B81E0921719F0B0
S113047080E0089580E0089583B380958F70089597
S1130480809177008F5F80937700843108F496C061
S1130490809178009091790099238CF48091710077
S11304A090917200A0917300B091740080936D00DC
S11304B090936E00A0936F00B09370006AC09C018B
S11304C0992314F42F5F3F4F35952795809175003C
S11304D09091760082179307BCF420E030E040E866
S11304E05EE360917100709172008091730090914D
S11304F074000E94070C60936D0070936E008093EB
S11305006F00909370002AC028173907BCF42AE9B9
S113051039E949E95EE3609171007091720080915C
S11305207300909174000E94060C60936D007093A8
S11305306E0080936F009093700010C080917100E2
S113054090917200A0917300B091740080936D003B
S113055090936E00A0936F00B093700020E030E0A1
S1130560A90160916D0070916E0080916F0090916F
S113057070000E946B0C181664F08DEC9CECACECD3
S1130580BDE380936D0090936E00A0936F00B093D1
S11305907000809175009091760020916100AC010B
S11305A0421B510950936800409367008093610097
S11305B01092760010927500109277000895873497
S11305C02FEF920714F487E49FEF8A3B910514F010
S11305D089EB90E0880F991F880F991F825B934FD6
S11305E09BBD8ABD08958F929F92AF92BF92CF9286
S11305F0DF92EF92FF920F931F93CF93DF938B01C0
S113060080906D0090906E00A0906F00B09070008C
S1130610BC01882777FD8095982F0E940A0DA501BB
S113062094010E94BE0D0E94D70C6B017C01EB016A
S1130630B801882777FD8095982F0E940A0D9B01A9
S1130640AC01C501B4010E94BE0D0E94D70C9B01F0
S1130650DD235CF0909A9198E8ECEC9DA001ED9D6F
S1130660500D112459BD48BD0BC09098919AE8E3F0
S1130670EC9DA001ED9D500D5C19112459BD48BDA0
S113068033237CF0939A96984FEF469F9001479FAF
S1130690300D1124C90164E670E00E94210E63BD8F
S11306A00FC09398969A41E0469F9001479F300D62
S11306B0361B1124C90164E670E00E94210E63BD5B
S11306C0DF91CF911F910F91FF90EF90DF90CF902A
S11306D0BF90AF909F908F9008958FB9779BFECF76
S11306E008950F931F93CF93DF93AC019C01ADEC5E
S11306F0BCEC0E943B0E96958795969587959695AA
S113070087959C01220F331F880F991F880F991F0B
S1130710880F991F820F931F9A01281B390BC90157
S1130720806880937B009A013695279536952795A6
S1130730ABE7B4E10E943B0E9695879564E6689F0B
S11307409001699F300D1124CA01821B930B9C01F7
S1130750ADECBCEC0E943B0EFC01F695E795F695DA
S1130760E795F695E7951E2FEA01D695C795D69598
S1130770C795D695C7959E01A5ECB0E20E943B0EA5
S1130780929582958F7089279F70892768EE73E010
S1130790869F9001879F300D969F300D1124421B38
S11307A0530B9A013695279536952795ABE7B4E117
S11307B00E943B0EAC0156954795042F9E01A5EC73
S11307C0B0E20E943B0E929582958F7089279F70AC
S11307D08927882311F020E101C020E0822B809337
S11307E07E00811115C001110CC00CC0112311F041
S11307F080E403C080E001C080E4E82BE0937C0047
S11308000CC080E2482B40937D00442379F3F4CF5D
S1130810406240937D0080E4F0CFDF91CF911F913F
S11308200F910895CF93EAE7F0E0908181E0890F7A
S11308308083943019F410927A0008C0813049F012
S113084028F0823049F0833051F00CC0C0917E0012
S11308500AC0C0917D0007C0C0917C0004C0C09153
S11308607B0001C0C0E080917F0080950E946D03F1
S11308708C2F0E946D03C49AC498CF910895EF926F
S1130880FF920F931F93CF93DF930F2EF0E9EF2E78
S1130890F0E0FF2EF02D00E810E0C0E0D0E0E19998
S11308A0FECFCE010E945E0EF701819391937F01EA
S11308B0E199FECFCE0140960E945E0EF80181932D
S11308C091938F012296C031D10549F7C0EAD0E057
S11308D040EA50E0A0E8B0E0E0E9F0E081919191D5
S11308E02D913D91820F931F9695879589939993A6
S11308F0E417F50799F7DF91CF911F910F91FF90BE
S1130900EF900895EF92FF920F931F93CF93DF938D
S11309100F2EF0E8EF2EF0E0FF2EF02D00E910E0AE
S1130920C0E0D0E0E199FECFF801619171918F01AF
S1130930CE010E94640EE199FECFF701619171919D
S11309407F01CE0140960E94640E2296C031D105EB
S113095049F7DF91CF911F910F91FF90EF90089588
S1130960806487B9369A349BFECF84B195B10895DB
S1130970DF92EF92FF920F931F93CF93DF9300EADE
S113098010E0C0E0D0E0D12CEE24E394F12C8C2FC5
S11309900E94B004F801219131918F0182179307CD
S11309A040F497010C2E02C0220F331F0A94E2F781
S11309B0D22A2196C830D10551F7D0927F008D2DCF
S11309C0DF91CF911F910F91FF90EF90DF900895E9
S11309D08F929F92AF92BF92CF92DF92EF92FF924B
S11309E00F931F93CF93DF93C0E9D0E000E810E0AA
S11309F00F2EF0EAEF2EF0E0FF2EF02DD801FE01CD
S1130A0080E094E0819391931D921D92EE15FF0571
S1130A10C9F789E39BE10E947103B02EA12E9C2E9D
S1130A208D2EC12C87EF0E94250281111FC00B2D32
S1130A301A2DC92DD82DDC2C8D2D0E94B0042881AF
S1130A4039818217930710F499838883F8012081F0
S1130A5031812817390710F491838083D394229627
S1130A600E5F1F4FF8E0DF12E7CFDCCFC0EAD0E023
S1130A70A0E8B0E0E0E9F0E0819191912D913D9101
S1130A80820F931F9695879589939993EE15FF0589
S1130A9099F70E94820410E0F12CCFE7D0E001E046
S1130AA08DEF0E942502882321F01F5F183008F083
S1130AB01F2D8BEF0E9425028111115087EF0E9498
S1130AC02502811112C0E12FF0E0EE0FFF1FE05666
S1130AD0FF4F808191810E947103802F012E01C0FC
S1130AE0880F0A94EAF78883DBCFDF91CF911F91B7
S1130AF00F91FF90EF90DF90CF90BF90AF909F90B9
S1130B008F90089580E487B987E886B90E943F04EE
S1130B1081EF87BB8FEF88BB14BA85BB8BEF81BB9A
S1130B2012BA80E58DB981E08EB98CE083BF8EE383
S1130B308CBF82E089BF82EA8FBD8AE18EBD80E2EC
S1130B409EE497BD86BD19BC18BC8FE685BD13BC59
S1130B50789485B7836085BF8BB780648BBF83E14E
S1130B6090E09093790080937800089510E0F12C40
S1130B70CFE7D0E001E08DEF0E942502882359F0F1
S1130B806CE97FEF84E690E00E94F30287E49FEF34
S1130B900E94DF0225C08BEF0E942502882321F0EA
S1130BA01F5F1830E9F41BC087EF0E9425028823D9
S1130BB059F064E670E08CE99FEF0E94F30289EB40
S1130BC090E00E94DF020CC060E070E080E090E002
S1130BD00E94F30280E090E00E94DF0201C01F2D1A
S1130BE0812F0E94B0040E947103802F012E01C046
S1130BF0880F0A94EAF78883BECF80E090E00E94D1
S1130C00DF0260E070E080E090E00E94F3028FEF8A
S1130C109FEF90937900809378000E943C02682FA4
S1130C2070E080E090E00E940A0D20E030E040E2B5
S1130C3051E40E946F0C20E030E040E85EE30E9443
S1130C40070C60937100709372008093730090930B
S1130C50740060936D0070936E0080936F009093A6
S1130C60700020E030E048EC52E40E94BE0D0E9487
S1130C70DC0CCB010E94710320E030E040E95FE32B
S1130C8060916D0070916E0080916F009091700082
S1130C900E94BE0D9B01AC0163E373E383EB9FE30E
S1130CA00E94060C6093690070936A0080936B0045
S1130CB090936C000E94B8048DEF0E94250281116C
S1130CC00FC08BEF0E94250281110E94B60587EFA9
S1130CD00E942502882309F4A0CF0E94E8049DCF36
S1130CE008951F920F920FB60F9211242F933F93E2
S1130CF04F935F936F937F938F939F93AF93BF9320
S1130D00EF93FF930E9440020E94120480916400BA
S1130D109091650001969093650080936400FF9123
S1130D20EF91BF91AF919F918F917F916F915F915F
S1130D304F913F912F910F900FBE0F901F901895D8
S1130D401F920F920FB60F9211248F939F9380914D
S1130D506200909163000196909363008093620017
S1130D60809175009091760001969093760080931F
S1130D7075009F918F910F900FBE0F901F90189543
S1130D800E94B804809366008F3F39F08E7791E01B
S1130D908E3709F090E0892F089581E008950E942C
S1130DA0B80480936600982F9F709F3039F08F713C
S1130DB091E08F3109F090E0892F089581E0089542
S1130DC00E94B80480936600982F907F903F39F07A
S1130DD0887F91E0883F09F090E0892F089581E0B1
S1130DE008950E9482050E94FD0580916200909101
S1130DF063000E9471038DEF0E942502882321F075
S1130E0010926300109262008BEF0E9425028823E7
S1130E1061F38AE080936000CAE00F2EFCE05F2E4D
S1130E20F02D0F2EFBE06F2EF02D0F2EF9E47F2E08
S1130E30F02D0F2EF8E4AF2EF02D0F2EFFE3BF2E72
S1130E40F02DD5E10F2EFEE34F2EF02D05E30F2EEE
S1130E50F4E33F2EF02D0F2EFAE28F2EF02D68943E
S1130E60992495F819E28091600090E0FC013A978A
S1130E70E034F10508F0C7C4E65DFF4F0C94350E6D
S1130E808AE090E00E9471030E94C006882319F052
S1130E90D0936000E8CF0E94E006882361F083E3EA
S1130EA080936000109265001092640010926300B9
S1130EB010926200D8CF0E94CF06882361F08DE3A0
S1130EC08093600010926500109264001092630099
S1130ED010926200C8CF0E94B8048E7790E0FC01A3
S1130EE03297EF36F10508F0BECFE659FF4F0C9468
S1130EF0350E80E090E00E94DF0264E670E084E654
S1130F0090E00E94F302AFCF64E670E084E690E0E4
S1130F100E94F30289E090E00E94DF02A4CF64E61D
S1130F2070E084E690E00E94F30281E190E00E9488
S1130F30DF0299CF65E570E084E690E00E94F30259
S1130F408FE190E00E94DF028ECF60E570E084E6DE
S1130F5090E00E94F30282E390E00E94DF0283CFDC
S1130F6066E470E084E690E00E94F3028BE490E093
S1130F700E94DF026092600076CF64E670E084E64F
S1130F8090E00E94F30287EF9FEF0E94DF026BCF95
S1130F9064E670E084E690E00E94F3028FEE9FEF37
S1130FA00E94DF0260CF64E670E085E590E00E9475
S1130FB0F30281EE9FEF0E94DF0255CF64E670E0FA
S1130FC080E590E00E94F3028EEC9FEF0E94DF0226
S1130FD04ACF64E670E086E490E00E94F30285EB79
S1130FE09FEF0E94DF02509260003DCF8BE090E0C3
S1130FF00E9471030E94B8048C7C8C30B1F128F4F7
S11310008823E9F0843031F13DC0803869F0803CB8
S1131010C9F566EF7FEF80E590E00E94F30289E670
S113102090E00E94DF021FCF65E070E080E590E071
S11310300E94F3028AE590E00E94DF0214CF6AE086
S113104070E080E590E00E94F3028EE490E00E945C
S1131050DF0209CF6FE070E080E590E00E94F302C8
S11310608CE390E00E94DF02FECE64E170E080E554
S113107090E00E94F30284E390E00E94DF02C093B8
S11310806000F1CE60926000EECE8CE090E00E94B1
S113109071030E94B8048373833059F028F48823C1
S11310A0F1F0813089F03EC0803221F1803369F162
S11310B039C060E570E086EF9FEF0E94F30287E994
S11310C09FEF0E94DF02CFCE60E570E085E090E004
S11310D00E94F30286EA9FEF0E94DF02C4CE60E51D
S11310E070E08AE090E00E94F30282EB9FEF0E949E
S11310F0DF02B9CE60E570E08FE090E00E94F30279
S113110084EC9FEF0E94DF02AECE60E570E084E1E4
S113111090E00E94F3028CEC9FEF0E94DF02C093E8
S11311206000A1CE509260009ECE85E190E00E94C6
S1131130710380E090E00E94DF0262EE7FEF82EEB6
S11311409FEF0E94F30210926500109264001092C7
S113115063001092620086E18093600084CE86E191
S113116090E00E94710380916100811111C06BE1D4
S113117070E08BE190E00E94F30287E180936000CD
S11311801092650010926400109263001092620045
S11311900E94B8048E7790E0FC013297EF35F10598
S11311A008F061CEE752FF4F0C94350E80E090E0DA
S11311B00E94DF0258CE88E090E00E94DF0253CE06
S11311C08AE090E00E94DF024ECE8DE090E00E9423
S11311D0DF0249CE82E190E00E94DF0244CE88EF34
S11311E09FEF0E94DF023FCE86EF9FEF0E94DF0257
S11311F03ACE83EF9FEF0E94DF0235CE8EEE9FEF53
S11312000E94DF0230CE87E190E00E9471030E94C9
S1131210B804809366002091620030916300263503
S1131220310538F440916400509165004739510507
S1131230D0F1982F987F983F61F0982F907F903F3E
S113124041F0982F907E903E21F0982F9C7F9C3FF8
S113125041F48AE18093600010926500109264006A
S113126002CE2635310538F42091640030916500B2
S113127027393105C0F0982F9F719F3161F0982F65
S11312809770973041F0982F9F709F3021F0982FDE
S11312909F739F3341F48BE180936000109265004B
S11312A010926400E0CD811114C07092600080E05F
S11312B090E00E94DF0264E670E084E690E00E9421
S11312C0F302109265001092640010926300109271
S11312D062008091660090E0FC013297EF35F105E1
S11312E008F0C1CDE85CFE4F0C94350E80E090E030
S11312F00E94DF02B8CD88E090E00E94DF02B3CD07
S11313008AE090E00E94DF02AECD8DE090E00E9482
S1131310DF02A9CD82E190E00E94DF02A4CD88EF34
S11313209FEF0E94DF029FCD86EF9FEF0E94DF02B6
S11313309ACD83EF9FEF0E94DF0295CD8EEE9FEF53
S11313400E94DF0290CD8AE190E00E94710387E45D
S11313509FEF0E94DF0260E570E088E290E00E9467
S1131360F3028FE180936000109265001092640094
S11313707ACD8BE190E00E94710389EB90E00E94AA
S1131380DF0268E270E080E590E00E94F3021093CF
S11313906000109265001092640065CD8FE190E0CA
S11313A00E9471038091640090916500893C9105CD
S11313B008F459CD90926000109265001092640078
S11313C052CD80E290E00E9471030E94B8048093A1
S11313D06600877E803209F046CDC093600043CD1D
S11313E089E290E00E94710380916400909165000D
S11313F0893C910508F437CD809260001092650015
S11314001092640030CD8AE290E00E9471030E9441
S1131410B80480936600877E843009F024CDC0939D
S1131420600021CD83E390E00E9471030E94B80420
S113143080936600982F9770973039F0982F9F709B
S11314409F3019F08F718F3119F4D09360000BCD58
S113145064E670E084E690E00E94F302809162000A
S113146090916300499740F48091640090916500E5
S11314708837910508F4F7CC30926000109265002B
S1131480109264001092630010926200ECCC84E32A
S113149090E00E9471038EEC9FEF0E94DF0264E6ED
S11314A070E080E590E00E94F302009360001092E7
S11314B06500109264001092630010926200D3CC15
S11314C085E390E00E9471030E94B804282E809363
S11314D0660080916200909163008536910508F55D
S11314E0609164007091650080E090E00E94080DB6
S11314F06B017C0120E030E048E453E46091690032
S113150070916A0080916B0090916C000E94BE0DF6
S11315109B01AC01C701B6010E94BA0D18160CF06C
S1131520A2CC822D8073803309F09DCCC0936000DF
S11315309ACC8DE390E00E9471030E94B8048093DA
S11315406600982F907E903E39F0982F907F903FC0
S113155019F0887F883F19F4D093600084CC64E646
S113156070E084E690E00E94F30280916200909122
S11315706300499740F48091640090916500883736
S1131580910508F470CC40926000109265001092AE
S11315906400109263001092620065CC8EE390E0C8
S11315A00E94710382E390E00E94DF0260E570E034
S11315B084E690E00E94F302B0926000109265000D
S11315C01092640010926300109262004CCC8FE37E
S11315D090E00E9471030E94B804282E8093660054
S11315E080916200909163008536910508F56091C1
S11315F064007091650080E090E00E94080D6B012A
S11316007C0120E030E048E453E46091690070918B
S11316106A0080916B0090916C000E94BE0D9B014A
S1131620AC01C701B6010E94BA0D18160CF01BCC10
S1131630822D8073803309F016CCC093600013CCE4
S113164087E490E00E94710364E670E084E690E031
S11316500E94F302809164009091650085369105A3
S113166038F480916200909163000B9708F4FBCBEF
S1131670A09260001092650010926400F4CB88E49C
S113168090E00E9471030E94B80480936600811167
S11316900DC080E090E00E94DF0264E670E084E622
S11316A090E00E94F30270926000DDCB8E7790E0B0
S11316B0FC013297EF36F10508F0D5CBE956FE4F21
S11316C00C94350E80E090E00E94DF0264E670E046
S11316D084E690E00E94F302C6CB6AE570E084E6FB
S11316E090E00E94F30283E190E00E94DF02BBCB12
S11316F060E570E084E690E00E94F3028BE190E004
S11317000E94DF02B0CB66E470E084E690E00E94C1
S1131710F30289E290E00E94DF02A5CB6CE370E063
S113172084E690E00E94F3028CE390E00E94DF02E2
S11317309ACB68E270E084E690E00E94F30285E5CB
S113174090E00E94DF02609260008DCB64E670E05E
S11317508AE590E00E94F3028DEE9FEF0E94DF0283
S113176082CB64E670E080E590E00E94F30285EEAF
S11317709FEF0E94DF0277CB64E670E086E490E09E
S11317800E94F30287ED9FEF0E94DF026CCB64E6B8
S113179070E08CE390E00E94F30284EC9FEF0E94DF
S11317A0DF0261CB64E670E088E290E00E94F3021D
S11317B08BEA9FEF0E94DF025092600054CB89E4D1
S11317C090E00E94710364E670E084E690E00E9479
S11317D0F3020E94B80480936600882324F48EE107
S11317E090E00E94DF028091660080FF04C082EED8
S11317F09FEF0E94DF02809166008E7709F433CB5D
S1131800C093600030CBC09360002DCB5058BB27F1
S1131810AA270ED075C166D130F06BD120F031F417
S11318209F3F11F41EF45BC10EF4E095E7FB51C138
S1131830E92F77D180F3BA176207730784079507F6
S113184018F071F49EF58FC10EF4E0950B2EBA2FAB
S1131850A02D0B01B90190010C01CA01A0011124B2
S1131860FF27591B99F0593F50F4503E68F11A165E
S1131870F040A22F232F342F4427585FF3CF4695EF
S113188037952795A795F0405395C9F77EF41F1611
S1131890BA0B620B730B840BBAF09150A1F0FF0FDB
S11318A0BB1F661F771F881FC2F70EC0BA0F621FC7
S11318B0731F841F48F4879577956795B795F795B7
S11318C09E3F08F0B3CF9395880F08F09927EE0F49
S11318D0979587950895D9D008F481E008950CD0A0
S11318E00FC107D140F0FED030F021F45F3F19F072
S11318F0F0C0511139C1F3C014D198F39923C9F33D
S11319005523B1F3951B550BBB27AA276217730701
S1131910840738F09F5F5F4F220F331F441FAA1FB5
S1131920A9F333D00E2E3AF0E0E830D09150504075
S1131930E695001CCAF729D0FE2F27D0660F771F23
S1131940881FBB1F261737074807AB07B0E809F005
S1131950BB0B802DBF01FF2793585F4F2AF09E3F9A
S1131960510568F0B6C000C15F3FECF3983EDCF36C
S1131970869577956795B795F7959F5FC9F7880F13
S1131980911D9695879597F90895E1E0660F771F65
S1131990881FBB1F621773078407BA0720F0621BF6
S11319A0730B840BBA0BEE1F88F7E095089504D0EF
S11319B06894B111D9C00895BCD088F09F5790F0B5
S11319C0B92F9927B751A0F0D1F0660F771F881F60
S11319D0991F1AF0BA95C9F712C0B13081F0C3D07B
S11319E0B1E00895C0C0672F782F8827B85F39F019
S11319F0B93FCCF3869577956795B395D9F73EF4BF
S1131A0090958095709561957F4F8F4F9F4F089566
S1131A10E89409C097FB3EF4909580957095619584
S1131A207F4F8F4F9F4F9923A9F0F92F96E9BB273A
S1131A309395F695879577956795B795F111F8CFB6
S1131A40FAF4BB0F11F460FF1BC06F5F7F4F8F4F21
S1131A509F4F16C0882311F096E911C0772321F017
S1131A609EE8872F762F05C0662371F096E8862FAF
S1131A7070E060E02AF09A95660F771F881FDAF706
S1131A80880F9695879597F90895990F0008550F33
S1131A90AA0BE0E8FEEF16161706E807F907C0F0F0
S1131AA012161306E407F50798F0621B730B840BF8
S1131AB0950B39F40A2661F0232B242B252B21F4D2
S1131AC008950A2609F4A140A6958FEF811D811D72
S1131AD0089597F99F6780E870E060E008959FEFAC
S1131AE080EC089500240A941616170618060906B1
S1131AF0089500240A941216130614060506089580
S1131B00092E0394000C11F4882352F0BB0F40F407
S1131B10BF2B11F460FF04C06F5F7F4F8F4F9F4F47
S1131B20089557FD9058440F551F59F05F3F71F0C9
S1131B304795880F97FB991F61F09F3F79F0879530
S1131B400895121613061406551FF2CF4695F1DFB9
S1131B5008C0161617061806991FF1CF8695710549
S1131B60610508940895E894BB2766277727CB017D
S1131B7097F908958ADF08F48FEF08950BD0C0CF4A
S1131B80B1DF28F0B6DF18F0952309F0A2CFA7CF74
S1131B901124EACFC6DFA0F3959FD1F3950F50E04F
S1131BA0551F629FF001729FBB27F00DB11D639F0B
S1131BB0AA27F00DB11DAA1F649F6627B00DA11DB1
S1131BC0661F829F2227B00DA11D621F739FB00D57
S1131BD0A11D621F839FA00D611D221F749F3327C7
S1131BE0A00D611D231F849F600D211D822F762F60
S1131BF06A2F11249F5750408AF0E1F088234AF05D
S1131C00EE0FFF1FBB1F661F771F881F91505040A8
S1131C10A9F79E3F510570F05CCFA6CF5F3FECF370
S1131C20983EDCF3869577956795B795F795E79594
S1131C309F5FC1F7FE2B880F911D9695879597F9A5
S1131C40089597FB072E16F4009407D077FD09D06A
S1131C500E944A0E07FC05D03EF4909581959F4F53
S1131C600895709561957F4F0895EE0FFF1F0590BD
S1131C70F491E02D0994A29FB001B39FC001A39FEA
S1131C80700D811D1124911DB29F700D811D1124B1
S1131C90911D0895AA1BBB1B51E107C0AA1FBB1FBE
S1131CA0A617B70710F0A61BB70B881F991F5A95E4
S1131CB0A9F780959095BC01CD010895A8E1B0E005
S1131CC042E050E00C946B0E0E94790E272F0C9486
S1131CD07A0EDC01CB01FC01E199FECF06C0FFBB0B
S1131CE0EEBBE09A31960DB20D9241505040B8F7D8
S1131CF00895262FE199FECF9FBB8EBB2DBB0FB657
S1131D00F894E29AE19A0FBE01960895F894FFCFF1
S1051D100AFFC4
S9030000FC
