S00C0000566572312E73726563BA
S11300000C94B7010C9491060C94D4010C94D40173
S11300100C94D4010C94D4010C94D4010C94D40108
S11300200C94D4010C94D4010C94D4010C94D401F8
S11300300C94D4010C94D4010C94D4010C94D401E8
S11300400C94D4010C94D4010C94D4010C94620645
S11300500C94D4013907F10751088D0B8D0B8D0BCE
S11300608D0B8D0B8D0B8D0B8D0BAB08C5082309E8
S11300708D0B8D0BC609DF098D0B8D0B8D0BF809CC
S11300800F0A8D0B8D0B8D0B8D0B8D0B8D0B8D0B2B
S11300908D0B1E0A310A8D0B8D0B8D0B8D0B8D0B69
S11300A08D0B8D0B8D0B400A760A8F0A8D0B8D0BF1
S11300B08D0B8D0B8D0B8D0B8D0BC80AFD0A160B4A
S11300C08D0B8D0B8D0B8D0B8D0B8D0B8D0B8D0B6C
S11300D08D0B4F0BA9072C0793072C079E072C07A2
S11300E07D072C072C072C0788072C0793072C0760
S11300F0B7072C072C072C072C072C072C072C07D9
S113010072072C072C072C077D072C072C072C07BC
S1130110CD072C072C072C072C072C072C072C07A2
S11301202C072C072C072C072C072C072C072C0733
S1130130C2072C072C072C072C072C072C072C078D
S1130140B7072C072C072C072C072C072C072C0788
S1130150E3072C072C072C072C072C072C072C074C
S11301602C072C072C072C072C072C072C072C07F3
S11301702C072C072C072C072C072C072C072C07E3
S11301802C072C072C072C072C072C072C072C07D3
S1130190D8072C072C072C072C072C072C072C0717
S11301A02C072C072C072C072C072C072C072C07B3
S11301B0CD0705092C07FB082C0700092C07F108BB
S11301C02C072C072C07F6082C07FB082C070A0918
S11301D02C072C072C072C072C072C072C07EC08C2
S11301E02C072C072C07F1082C072C072C071409C3
S11301F02C072C072C072C072C072C072C072C0763
S11302002C072C072C072C072C072C072C070F096D
S11302102C072C072C072C072C072C072C070A0962
S11302202C072C072C072C072C072C072C071E093E
S11302302C072C072C072C072C072C072C072C0722
S11302402C072C072C072C072C072C072C072C0712
S11302502C072C072C072C072C072C072C072C0702
S11302602C072C072C072C072C072C072C07190903
S11302702C072C072C072C072C072C072C072C07E2
S11302802C072C072C072C072C072C072C071409E8
S1130290A8092C079E092C07A3092C0794092C07ED
S11302A02C072C0799092C079E092C07AD092C074C
S11302B02C072C072C072C072C072C078F092C073D
S11302C02C072C0794092C072C072C07B7092C079B
S11302D02C072C072C072C072C072C072C072C0782
S11302E02C072C072C072C072C072C07B2092C07EA
S11302F02C072C072C072C072C072C07AD092C07DF
S11303002C072C072C072C072C072C07C1092C07BA
S11303102C072C072C072C072C072C072C072C0741
S11303202C072C072C072C072C072C072C072C0731
S11303302C072C072C072C072C072C072C072C0721
S11303402C072C072C072C072C072C07BC092C077F
S11303502C072C072C072C072C072C072C072C0701
S11303602C072C072C072C072C072C07B709112462
S11303701FBECFE5D4E0DEBFCDBF10E0A0E6B0E005
S1130380E4E2FCE102C005900D92A236B107D9F770
S113039020E0A2E6B0E001C01D92A13BB207E1F764
S11303A00E94E2060C94100E0C940000982F86B361
S11303B08E708E3081F02FEF37EE83E02150304085
S11303C08040E1F700C0000026B3292B81E092179A
S11303D019F080E0089580E0089583B380958F70CC
S11303E00895809178008F5F80937800843108F4B9
S11303F0D6C08091790090917A0099238CF48091F1
S1130400720090917300A0917400B0917500809374
S11304106E0090936F00A0937000B09371009FC022
S11304209C01992314F42F5F3F4FA90155954795DB
S1130430209176003091770024173507BCF42AE91F
S113044039E949E95EE3609172007091730080912B
S11304507400909175000E94910B60936E007093EC
S11304606F0080937000909371005EC02817390765
S1130470BCF42DEC3CEC4CEC5DE3609172007091AB
S1130480730080917400909175000E94910B6093A9
S11304906E0070936F00809370009093710044C05D
S11304A082179307BCF423E333E343EB5EE36091E9
S11304B072007091730080917400909175000E9495
S11304C0900B60936E0070936F0080937000909314
S11304D071002AC042175307BCF420E030E040E822
S11304E05EE360917200709173008091740090914A
S11304F075000E94900B60936E0070936F00809360
S113050070009093710010C08091720090917300FC
S1130510A0917400B091750080936E0090936F0069
S1130520A0937000B093710020E030E0A9016091C5
S11305306E0070916F0080917000909171000E9424
S1130540F50B181664F08DEC9CECACECBDE38093D9
S11305506E0090936F00A0937000B093710080912F
S113056076009091770020916100AC01421B510903
S113057050936800409367001416150634F42091D4
S113058069002F5F2093690002C010926900809374
S1130590610010927700109276001092780008950E
S11305A087342FEF920714F487E49FEF8A3B910579
S11305B014F089EB90E0880F991F880F991F8A5DCA
S11305C0934F9BBD8ABD08958F929F92AF92BF9225
S11305D0CF92DF92EF92FF920F931F93CF93DF930B
S11305E08B0180906E0090906F00A0907000B0908E
S11305F07100BC01882777FD8095982F0E94940C88
S1130600A50194010E94480D0E94610C6B017C01BC
S1130610EB01B801882777FD8095982F0E94940CF0
S11306209B01AC01C501B4010E94480D0E94610CFC
S11306309B01DD235CF0909A9198E8ECEC9DA0017D
S1130640ED9D500D112459BD48BD0BC09098919A51
S1130650E8E3EC9DA001ED9D500D5C19112459BDFA
S113066048BD33237CF0939A96984FEF469F9001B0
S1130670479F300D1124C90164E670E00E94AB0D60
S113068063BD0FC09398969A41E0469F9001479F9F
S1130690300D361B1124C90164E670E00E94AB0DD5
S11306A063BDDF91CF911F910F91FF90EF90DF9089
S11306B0CF90BF90AF909F908F9008958FB9779B04
S11306C0FECF08950F931F93CF93DF93AC019C014A
S11306D0ADECBCEC0E94C50D9695879596958795D3
S11306E0969587959C01220F331F880F991F880FB9
S11306F0991F880F991F820F931F9A01281B390B8A
S1130700C901806880937C009A01369527953695B7
S11307102795ABE7B4E10E94C50D9695879564E6ED
S1130720689F9001699F300D1124CA01821B930BAD
S11307309C01ADECBCEC0E94C50DFC01F695E7955F
S1130740F695E795F695E7951E2FEA01D695C79598
S1130750D695C795D695C7959E01A5ECB0E20E94A3
S1130760C50D929582958F7089279F70892768EEB1
S113077073E0869F9001879F300D969F300D112462
S1130780421B530B9A013695279536952795ABE76F
S1130790B4E10E94C50DAC0156954795042F9E0106
S11307A0A5ECB0E20E94C50D929582958F708927C1
S11307B09F708927882311F020E101C020E0822B5B
S11307C080937F00811115C001110CC00CC011234E
S11307D011F080E403C080E001C080E4E82BE093E2
S11307E07D000CC080E2482B40937E00442379F3C3
S11307F0F4CF406240937E0080E4F0CFDF91CF914C
S11308001F910F910895CF93EBE7F0E0908181E081
S1130810890F8083943019F410927B0008C08130D2
S113082049F028F0823049F0833051F00CC0C09177
S11308307F000AC0C0917E0007C0C0917D0004C043
S1130840C0917C0001C0C0E08091800080950E942E
S11308505E038C2F0E945E03C49AC498CF910895BE
S1130860EF92FF920F931F93CF93DF930F2EF1E933
S1130870EF2EF0E0FF2EF02D01E810E0C0E0D0E014
S1130880E199FECFCE010E94E80DF7018193919387
S11308907F01E199FECFCE0140960E94E80DF80158
S11308A0819391938F012296C031D10549F7C1EA12
S11308B0D0E041EA50E0A1E8B0E0E1E9F0E0819164
S11308C091912D913D91820F931F969587958993D0
S11308D09993E417F50799F7DF91CF911F910F9141
S11308E0FF90EF900895EF92FF920F931F93CF9391
S11308F0DF930F2EF1E8EF2EF0E0FF2EF02D01E94B
S113090010E0C0E0D0E0E199FECFF801619171916F
S11309108F01CE010E94EE0DE199FECFF7016191A6
S113092071917F01CE0140960E94EE0D2296C03156
S1130930D10549F7DF91CF911F910F91FF90EF906F
S11309400895806487B9369A349BFECF84B195B1FB
S11309500895DF92EF92FF920F931F93CF93DF934B
S113096001EA10E0C0E0D0E0D12CEE24E394F12CB5
S11309708C2F0E94A104F801219131918F018217DB
S1130980930740F497010C2E02C0220F331F0A94E0
S1130990E2F7D22A2196C830D10551F7D0928000CF
S11309A08D2DDF91CF911F910F91FF90EF90DF90EC
S11309B008958F929F92AF92BF92CF92DF92EF925F
S11309C0FF920F931F93CF93DF93C1E9D0E001E827
S11309D010E00F2EF1EAEF2EF0E0FF2EF02DD801FB
S11309E0FE0180E094E0819391931D921D92EE1597
S11309F0FF05C9F789E39BE10E946203B02EA12E93
S1130A009C2E8D2EC12C87EF0E94D60181111FC010
S1130A100B2D1A2DC92DD82DDC2C8D2D0E94A1044F
S1130A20288139818217930710F499838883F80108
S1130A30208131812817390710F491838083D3945E
S1130A4022960E5F1F4FF8E0DF12E7CFDCCFC1EA3A
S1130A50D0E0A1E8B0E0E1E9F0E0819191912D913D
S1130A603D91820F931F9695879589939993EE15DF
S1130A70FF0599F70E94730410E0F12CC0E8D0E060
S1130A8001E08DEF0E94D601882321F01F5F18300A
S1130A9008F01F2D8BEF0E94D6018111115087EFB2
S1130AA00E94D601811112C0E12FF0E0EE0FFF1F6A
S1130AB0EF55FF4F808191810E946203802F012EA8
S1130AC001C0880F0A94EAF78883DBCFDF91CF91C6
S1130AD01F910F91FF90EF90DF90CF90BF90AF9058
S1130AE09F908F90089580E487B987E886B90E9423
S1130AF0300481EF87BB8FEF88BB14BA85BB8BEFC3
S1130B0081BB12BA80E58DB981E08EB98CE083BFD8
S1130B108EE38CBF82E089BF82EA8FBD8AE18EBDFD
S1130B2080E29EE497BD86BD19BC18BC8FE685BDE6
S1130B3013BC789485B7836085BF8BB780648BBF03
S1130B4083E190E090937A0080937900089510E017
S1130B50F12CC0E8D0E001E08DEF0E94D60188239B
S1130B6059F06CE97FEF84E690E00E94E40287E4A8
S1130B709FEF0E94D00225C08BEF0E94D6018823EC
S1130B8021F01F5F1830E9F41BC087EF0E94D601E3
S1130B90882359F064E670E08CE99FEF0E94E40238
S1130BA089EB90E00E94D0020CC060E070E080E02D
S1130BB090E00E94E40280E090E00E94D00201C034
S1130BC01F2D812F0E94A1040E946203802F012EF9
S1130BD001C0880F0A94EAF78883BECF80E090E0D2
S1130BE00E94D00260E070E080E090E00E94E402A5
S1130BF08FEF9FEF90937A00809379000E94ED012C
S1130C00682F70E080E090E00E94940C20E030E0D7
S1130C1040EA51E40E94F90B20E030E040E85EE352
S1130C200E94910B60937200709373008093740020
S1130C309093750060936E0070936F0080937000C2
S1130C409093710020E030E048EC52E40E94480D9B
S1130C500E94660CCB010E94620320E030E040E970
S1130C605FE360916E0070916F00809170009091CD
S1130C7071000E94480D9B01AC0163E373E383EBB5
S1130C809FE30E94900B60936A0070936B008093C3
S1130C906C0090936D000E94A9048DEF0E94D60110
S1130CA081110FC08BEF0E94D60181110E94A7050C
S1130CB087EF0E94D601882309F4A0CF0E94D904AB
S1130CC09DCF08951F920F920FB60F9211242F9368
S1130CD03F934F935F936F937F938F939F93AF93C0
S1130CE0BF93EF93FF930E9403040E94F10180914C
S1130CF06400909165000196909365008093640070
S1130D00FF91EF91BF91AF919F918F917F916F91DF
S1130D105F914F913F912F910F900FBE0F901F90B5
S1130D2018951F920F920FB60F9211248F939F93D1
S1130D308091620090916300019690936300809388
S1130D4062008091760090917700019690937700ED
S1130D50809376009F918F910F900FBE0F901F90FC
S1130D6018950E94A904809366008F3F39F08E770E
S1130D7091E08E3709F090E0892F089581E008957D
S1130D800E94A90480936600982F9F709F3039F0C9
S1130D908F7191E08F3109F090E0892F089581E0FF
S1130DA008950E94A90480936600982F907F903F35
S1130DB039F0887F91E0883F09F090E0892F089509
S1130DC081E008950E9473050E94EE050E94A90423
S1130DD080916200909163000E9462038DEF0E94F3
S1130DE0D601882321F010926300109262008BEFE9
S1130DF00E94D601882351F38AE0809360008FEF2C
S1130E009FEF90937A00809379000F2EFAE0BF2E23
S1130E10F02DCCE0D0E00FEF1FEF0F2EFFE36F2E8D
S1130E20F02D0F2EF5E1AF2EF02D0F2EFEE33F2E09
S1130E30F02D0F2EF5E37F2EF02D0F2EFAE25F2E0C
S1130E40F02D6894442445F80F2EF9E28F2EF02DEE
S1130E500F2EFFE19F2EF02D8091600090E0FC01A9
S1130E603A97E034F10508F058C4E65DFF4F0C945E
S1130E70BF0D8AE090E00E9462030E94B1068823BD
S1130E8019F0A0926000E8CF0E94D106882361F097
S1130E9083E38093600010926500109264001092C6
S1130EA0630010926200D8CF0E94C006882361F0CC
S1130EB08DE380936000109265001092640010929C
S1130EC0630010926200C8CF0E94A9048E7790E05C
S1130ED0FC013297EF36F10508F0BECFE659FF4F1B
S1130EE00C94BF0D80E090E00E94D00264E670E0B4
S1130EF084E690E00E94E402AFCF64E670E084E60A
S1130F0090E00E94E40289E090E00E94D002A4CF25
S1130F1064E670E084E690E00E94E40281E190E0FF
S1130F200E94D00299CF65E570E084E690E00E94CB
S1130F30E4028FE190E00E94D0028ECF60E570E081
S1130F4084E690E00E94E40282E390E00E94D002F2
S1130F5083CF66E470E084E690E00E94E4028BE4D0
S1130F6090E00E94D0028BE08093600075CF64E62D
S1130F7070E084E690E00E94E40287EF9FEF0E9415
S1130F80D0026ACF64E670E084E690E00E94E40256
S1130F908FEE9FEF0E94D0025FCF64E670E085E59C
S1130FA090E00E94E40281EE9FEF0E94D00254CFB1
S1130FB064E670E080E590E00E94E4028EEC9FEF2E
S1130FC00E94D00249CF64E670E086E490E00E947B
S1130FD0E40285EB9FEF0E94D0028CE080936000D6
S1130FE03BCF8BE090E00E946203D0937A00C093E1
S1130FF079000E94A9048C7C8C30D1F128F48823D8
S113100009F1843051F149C0803889F0803C21F0E5
S1131010803609F042C03DC066EF7FEF80E590E086
S11310200E94E40289E690E00E94D00215CF65E0B8
S113103070E080E590E00E94E4028AE590E00E947E
S1131040D0020ACF6AE070E080E590E00E94E402FA
S11310508EE490E00E94D002FFCE6FE070E080E565
S113106090E00E94E4028CE390E00E94D002F4CE6F
S113107064E170E080E590E00E94E40284E390E0A3
S11310800E94D002B092600010937A00009379001D
S1131090E3CE8CE080936000DFCE8BE08093600031
S11310A0DBCECE010E946203D0937A00C093790014
S11310B00E94A9048373833069F028F4882301F122
S11310C0813099F044C0803231F1803379F1863037
S11310D0F1F539C060E570E086EF9FEF0E94E4020D
S11310E087E99FEF0E94D002B7CE60E570E085E00B
S11310F090E00E94E40286EA9FEF0E94D002ACCE08
S113110060E570E08AE090E00E94E40282EB9FEFE9
S11311100E94D002A1CE60E570E08FE090E00E94D2
S1131120E40284EC9FEF0E94D00296CE60E570E06A
S113113084E190E00E94E4028CEC9FEF0E94D002D4
S1131140B092600089CE8BE08093600085CE8CE005
S11311508093600081CE85E190E00E94620380E08C
S113116090E00E94D00268ED7FEF88ED9FEF0E942F
S1131170E4021092650010926400109263001092D1
S1131180620086E18093600067CE86E190E00E9471
S1131190620380916100833088F462E370E082E34B
S11311A090E00E94E40287E1809360001092650061
S11311B01092640010926300109262000E94A904CD
S11311C08E7790E0FC013297EF36F10508F044CEBB
S11311D0E752FF4F0C94BF0D80E090E00E94D002D4
S11311E03BCE89E090E00E94D00236CE81E190E0CF
S11311F00E94D00231CE8FE190E00E94D0022CCE2A
S113120082E390E00E94D00227CE8BE490E00E941B
S1131210D00222CE87EF9FEF0E94D0021DCE8FEE28
S11312209FEF0E94D00218CE81EE9FEF0E94D00261
S113123013CE8EEC9FEF0E94D0020ECE85EB9FEF73
S11312400E94D00209CE87E190E00E9462030E94CE
S1131250A9048093660020916200309163002D30D0
S11312603105C0F1982F987F983F61F0982F907FB7
S1131270903F41F0982F907E903E21F0982F9C7FD4
S11312809C3F61F48AE180936000109265001092A3
S113129064001092630010926200DECD982F9F715B
S11312A09F3161F0982F9770973041F0982F9F707D
S11312B09F3021F0982F9F739F3361F48BE18093CB
S11312C06000109265001092640010926300109206
S11312D06200C2CD8E77A9F489E48093600080E037
S11312E090E00E94D00264E670E084E690E00E9400
S11312F0E402109265001092640010926300109250
S113130062000E94A9048E7790E0FC013297EF36C8
S1131310F10508F0A1CDE85BFE4F0C94BF0D80E011
S113132090E00E94D00298CD89E090E00E94D00223
S113133093CD81E190E00E94D0028ECD8FE190E0C8
S11313400E94D00289CD82E390E00E94D00284CD35
S11313508BE490E00E94D0027FCD87EF9FEF0E9444
S1131360D0027ACD8FEE9FEF0E94D00275CD81EE30
S11313709FEF0E94D00270CD8EEC9FEF0E94D002AE
S11313806BCD85EB9FEF0E94D00266CD8AE190E0A1
S11313900E94620387E49FEF0E94D00260E570E040
S11313A08CE99FEF0E94E402909260001092650025
S11313B01092640010926300109262004DCD8BE194
S11313C090E00E94620389EB90E00E94D0026CE9F5
S11313D07FEF80E590E00E94E4028092600010922A
S11313E0650010926400109263001092620034CD84
S11313F08FE190E00E946203809164009091650007
S1131400893C910508F428CD409260001092650053
S11314101092640010926300109262001DCD80E26D
S113142090E00E9462030E94A90480936600877E74
S1131430803209F011CDB09260000ECD89E290E0C7
S11314400E9462038091640090916500893C91053B
S113145008F402CD5092600010926500109264006E
S1131460FBCC8AE290E00E9462030E94A90480936C
S11314706600877E843009F0EFCCB0926000ECCC3B
S113148083E390E00E9462030E94A90480936600B3
S1131490982F9770973039F0982F9F709F3019F0DC
S11314A08F718F3119F4A0926000D6CC64E670E09D
S11314B084E690E00E94E4028091620090916300CF
S11314C0499740F4809164009091650088379105B4
S11314D008F4C2CC84E380936000109265001092FB
S11314E064001092630010926200B6CC84E390E032
S11314F00E9462038EEC9FEF0E94D00264E670E0CB
S113150080E590E00E94E402709260001092650011
S11315101092640010926300109262009DCC85E3E7
S113152090E00E9462030E94A904282E8093660022
S113153080916200909163008536910508F5609171
S113154064007091650080E090E00E94920C6B0151
S11315507C0120E030E048E453E460916A0070913B
S11315606B0080916C0090916D000E94480D9B016E
S1131570AC01C701B6010E94440D18160CF06CCCE6
S1131580822D8073803309F067CCB092600064CC04
S11315908DE390E00E9462030E94A9048093660098
S11315A0982F907E903E39F0982F907F903F19F0BD
S11315B0887F883F19F4A09260004ECC64E670E006
S11315C084E690E00E94E4028091620090916300BE
S11315D0499740F4809164009091650088379105A3
S11315E008F43ACC309260001092650010926400C6
S11315F010926300109262002FCC8EE390E00E9460
S1131600620382E390E00E94D00260E570E084E629
S113161090E00E94E40260926000109265001092D3
S11316206400109263001092620016CC8FE390E085
S11316300E9462030E94A904282E80936600809170
S11316406200909163008536910508F5609164000D
S11316507091650080E090E00E94920C6B017C0127
S113166020E030E048E453E460916A0070916B003C
S113167080916C0090916D000E94480D9B01AC011B
S1131680C701B6010E94440D18160CF0E5CB822D5B
S11316908073803309F0E0CBB0926000DDCB89E445
S11316A090E00E946203D0937A00C09379006CE3C7
S11316B070E08CE390E00E94E4020E94A90480930D
S11316C06600807C803C21F488E290E00E94D00295
S11316D080916600882324F48EE190E00E94D00279
S11316E0809166008370833021F488ED9FEF0E941F
S11316F0D0028091660080FF04C082EE9FEF0E94BA
S1131700D002809166008C7309F4A6CBB09260007D
S113171010937A00009379009FCBB09260009CCB29
S11317205058BB27AA270ED075C166D130F06BD1B3
S113173020F031F49F3F11F41EF45BC10EF4E095E8
S1131740E7FB51C1E92F77D180F3BA17620773071A
S11317508407950718F071F49EF58FC10EF4E09597
S11317600B2EBA2FA02D0B01B90190010C01CA0157
S1131770A0011124FF27591B99F0593F50F4503E02
S113178068F11A16F040A22F232F342F4427585FF4
S1131790F3CF469537952795A795F0405395C9F70C
S11317A07EF41F16BA0B620B730B840BBAF09150C4
S11317B0A1F0FF0FBB1F661F771F881FC2F70EC063
S11317C0BA0F621F731F841F48F487957795679536
S11317D0B795F7959E3F08F0B3CF9395880F08F01F
S11317E09927EE0F979587950895D9D008F481E04D
S11317F008950CD00FC107D140F0FED030F021F491
S11318005F3F19F0F0C0511139C1F3C014D198F3FE
S11318109923C9F35523B1F3951B550BBB27AA276D
S113182062177307840738F09F5F5F4F220F331FDF
S1131830441FAA1FA9F333D00E2E3AF0E0E830D0AB
S113184091505040E695001CCAF729D0FE2F27D0AE
S1131850660F771F881FBB1F261737074807AB077C
S1131860B0E809F0BB0B802DBF01FF2793585F4FF1
S11318702AF09E3F510568F0B6C000C15F3FECF30B
S1131880983EDCF3869577956795B795F7959F5FB6
S1131890C9F7880F911D9695879597F90895E1E00A
S11318A0660F771F881FBB1F621773078407BA0769
S11318B020F0621B730B840BBA0BEE1F88F7E095C4
S11318C0089504D06894B111D9C00895BCD088F0AB
S11318D09F5790F0B92F9927B751A0F0D1F0660F18
S11318E0771F881F991F1AF0BA95C9F712C0B13033
S11318F081F0C3D0B1E00895C0C0672F782F882746
S1131900B85F39F0B93FCCF3869577956795B39571
S1131910D9F73EF490958095709561957F4F8F4FE0
S11319209F4F0895E89409C097FB3EF490958095E5
S1131930709561957F4F8F4F9F4F9923A9F0F92F91
S113194096E9BB279395F695879577956795B7950F
S1131950F111F8CFFAF4BB0F11F460FF1BC06F5FF5
S11319607F4F8F4F9F4F16C0882311F096E911C007
S1131970772321F09EE8872F762F05C0662371F028
S113198096E8862F70E060E02AF09A95660F771F3C
S1131990881FDAF7880F9695879597F90895990F18
S11319A00008550FAA0BE0E8FEEF16161706E80725
S11319B0F907C0F012161306E407F50798F0621B46
S11319C0730B840B950B39F40A2661F0232B242B1B
S11319D0252B21F408950A2609F4A140A6958FEF3A
S11319E0811D811D089597F99F6780E870E060E08C
S11319F008959FEF80EC089500240A9416161706A4
S1131A0018060906089500240A94121613061406EB
S1131A1005060895092E0394000C11F4882352F04E
S1131A20BB0F40F4BF2B11F460FF04C06F5F7F4F06
S1131A308F4F9F4F089557FD9058440F551F59F0ED
S1131A405F3F71F04795880F97FB991F61F09F3FA7
S1131A5079F087950895121613061406551FF2CFD0
S1131A604695F1DF08C0161617061806991FF1CF20
S1131A7086957105610508940895E894BB27662747
S1131A807727CB0197F908958ADF08F48FEF08953B
S1131A900BD0C0CFB1DF28F0B6DF18F0952309F0E2
S1131AA0A2CFA7CF1124EACFC6DFA0F3959FD1F32D
S1131AB0950F50E0551F629FF001729FBB27F00DF8
S1131AC0B11D639FAA27F00DB11DAA1F649F66274D
S1131AD0B00DA11D661F829F2227B00DA11D621F9C
S1131AE0739FB00DA11D621F839FA00D611D221F56
S1131AF0749F3327A00D611D231F849F600D211D3A
S1131B00822F762F6A2F11249F5750408AF0E1F0DC
S1131B1088234AF0EE0FFF1FBB1F661F771F881F25
S1131B2091505040A9F79E3F510570F05CCFA6CF6D
S1131B305F3FECF3983EDCF3869577956795B79510
S1131B40F795E7959F5FC1F7FE2B880F911D96953A
S1131B50879597F9089597FB072E16F4009407D0FC
S1131B6077FD09D00E94D40D07FC05D03EF4909572
S1131B7081959F4F0895709561957F4F0895EE0F5D
S1131B80FF1F0590F491E02D0994A29FB001B39F2B
S1131B90C001A39F700D811D1124911DB29F700D72
S1131BA0811D1124911D0895AA1BBB1B51E107C07F
S1131BB0AA1FBB1FA617B70710F0A61BB70B881FD9
S1131BC0991F5A95A9F780959095BC01CD01089568
S1131BD0A8E1B0E042E050E00C94F50D0E94030E41
S1131BE0272F0C94040EDC01CB01FC01E199FECFFC
S1131BF006C0FFBBEEBBE09A31960DB20D92415088
S1131C005040B8F70895262FE199FECF9FBB8EBBB5
S1131C102DBB0FB6F894E29AE19A0FBE019608958F
S1071C20F894FFCF62
S1051C240AFFB1
S9030000FC
