S00C0000566572312E73726563BA
S11300000C94B7010C94D3060C94D4010C94D40131
S11300100C94D4010C94D4010C94D4010C94D40108
S11300200C94D4010C94D4010C94D4010C94D401F8
S11300300C94D4010C94D4010C94D4010C94D401E8
S11300400C94D4010C94D4010C94D4010C94A40603
S11300500C94D40182073A089A08D60BD60BD60B17
S1130060D60BD60BD60BD60BD60BF4080E096C099F
S1130070D60BD60B0F0A280AD60BD60BD60B410A81
S1130080580AD60BD60BD60BD60BD60BD60BD60BE3
S1130090D60B670A7A0AD60BD60BD60BD60BD60B21
S11300A0D60BD60BD60B890ABF0AD80AD60BD60BA9
S11300B0D60BD60BD60BD60BD60B110B460B5F0B00
S11300C0D60BD60BD60BD60BD60BD60BD60BD60B24
S11300D0D60B980BF2077507DC077507E70775075A
S11300E0C607750775077507D1077507DC07750718
S11300F00008750775077507750775077507750790
S1130100BB07750775077507C60775077507750774
S11301101608750775077507750775077507750759
S113012075077507750775077507750775077507EB
S11301300B08750775077507750775077507750744
S1130140000875077507750775077507750775073F
S11301502C08750775077507750775077507750703
S113016075077507750775077507750775077507AB
S1130170750775077507750775077507750775079B
S1130180750775077507750775077507750775078B
S113019021087507750775077507750775077507CE
S11301A0750775077507750775077507750775076B
S11301B016084E09750744097507490975073A0970
S11301C07507750775073F097507440975075309CE
S11301D07507750775077507750775077507350979
S11301E07507750775073A097507750775075D097A
S11301F0750775077507750775077507750775071B
S11302007507750775077507750775077507580925
S1130210750775077507750775077507750753091A
S113022075077507750775077507750775076709F6
S113023075077507750775077507750775077507DA
S113024075077507750775077507750775077507CA
S113025075077507750775077507750775077507BA
S113026075077507750775077507750775076209BB
S1130270750775077507750775077507750775079A
S113028075077507750775077507750775075D09A0
S1130290F1097507E7097507EC097507DD097507A5
S11302A075077507E2097507E7097507F609750704
S11302B0750775077507750775077507D8097507F5
S11302C075077507DD09750775077507000A750752
S11302D0750775077507750775077507750775073A
S11302E0750775077507750775077507FB097507A2
S11302F0750775077507750775077507F609750797
S11303007507750775077507750775070A0A750771
S113031075077507750775077507750775077507F9
S113032075077507750775077507750775077507E9
S113033075077507750775077507750775077507D9
S1130340750775077507750775077507050A750736
S113035075077507750775077507750775077507B9
S1130360750775077507750775077507000A112462
S11303701FBECFE5D4E0DEBFCDBF10E0A0E6B0E005
S1130380E6EBFCE102C005900D92A436B107D9F763
S113039020E0A4E6B0E001C01D92A33BB207E1F760
S11303A00E9424070C94590E0C940000982F86B3D5
S11303B08E708E3081F02FEF37EE83E02150304085
S11303C08040E1F700C0000026B3292B81E092179A
S11303D019F080E0089580E0089583B380958370D8
S11303E0089583B380958470089580917A008F5F17
S11303F080937A00843108F4D6C080917B00909178
S11304007C0099238CF48091740090917500A091E4
S11304107600B09177008093700090937100A09360
S11304207200B09373009FC09C01992314F42F5F52
S11304303F4FA90155954795209178003091790057
S113044024173507BCF42AE939E949E95EE36091E8
S113045074007091750080917600909177000E94ED
S1130460DA0B609370007093710080937200909324
S113047073005EC028173907BCF42DEC3CEC4CEC3F
S11304805DE36091740070917500809176009091A5
S113049077000E94DA0B6093700070937100809370
S11304A072009093730044C082179307BCF423E353
S11304B033E343EB5EE360917400709175008091C7
S11304C07600909177000E94D90B6093700070932E
S11304D0710080937200909373002AC042175307EF
S11304E0BCF420E030E040E85EE360917400709179
S11304F0750080917600909177000E94D90B6093EB
S1130500700070937100809372009093730010C018
S11305108091740090917500A0917600B09177005D
S11305208093700090937100A0937200B093730055
S113053020E030E0A9016091700070917100809119
S11305407200909173000E943E0C181664F08DECBA
S11305509CECACECBDE38093700090937100A0938D
S11305607200B0937300809178009091790020918B
S11305706100AC01421B510950936A004093690029
S11305801416150634F420916B002F5F20936B0032
S113059002C010926B008093610010927900109257
S11305A0780010927A00089585362FEF920714F49C
S11305B085E69FEF8C39910514F08BE990E09C015E
S11305C0220F331F220F331F820F931F20916200CB
S11305D030916300820F931F9BBD8ABD08958F9253
S11305E09F92AF92BF92CF92DF92EF92FF920F93BE
S11305F01F93CF93DF938B018090700090907100D4
S1130600A0907200B0907300BC01882777FD80959C
S1130610982F0E94DD0CA50194010E94910D0E9467
S1130620AA0C6B017C01EB01B801882777FD80954A
S1130630982F0E94DD0C9B01AC01C501B4010E94FE
S1130640910D0E94AA0C9B01DD235CF0909A919875
S1130650E8ECEC9DA001ED9D500D112459BD48BD61
S11306600BC09098919AE8E3EC9DA001ED9D500D8C
S11306705C19112459BD48BD33237CF0939A969894
S11306804FEF469F9001479F300D1124C90164E646
S113069070E00E94F40D63BD0FC09398969A41E0F8
S11306A0469F9001479F300D361B1124C90164E613
S11306B070E00E94F40D63BDDF91CF911F910F9103
S11306C0FF90EF90DF90CF90BF90AF909F908F906E
S11306D008958FB9779BFECF08950F931F93CF93FF
S11306E0DF93AC019C01ADECBCEC0E940E0E969520
S11306F0879596958795969587959C01220F331F2C
S1130700880F991F880F991F880F991F820F931FB5
S11307109A01281B390BC901806880937E009A01D5
S11307203695279536952795ABE7B4E10E940E0ED2
S11307309695879564E6689F9001699F300D112412
S1130740CA01821B930B9C01ADECBCEC0E940E0E03
S1130750FC01F695E795F695E795F695E7951E2F36
S1130760EA01D695C795D695C795D695C7959E01A6
S1130770A5ECB0E20E940E0E929582958F708927A7
S11307809F70892768EE73E0869F9001879F300DE4
S1130790969F300D1124421B530B9A0136952795D1
S11307A036952795ABE7B4E10E940E0EAC01569541
S11307B04795042F9E01A5ECB0E20E940E0E92957F
S11307C082958F7089279F708927882311F020E1F3
S11307D001C020E0822B80938100811115C001119A
S11307E00CC00CC0112311F080E403C080E001C0F0
S11307F080E4E82BE0937F000CC080E2482B409318
S11308008000442379F3F4CF40624093800080E475
S1130810F0CFDF91CF911F910F910895CF93EDE722
S1130820F0E0908181E0890F8083943019F4109274
S11308307D0008C0813049F028F0823049F08330CF
S113084051F00CC0C09181000AC0C091800007C063
S1130850C0917F0004C0C0917E0001C0C0E08091BF
S1130860820080950E9469038C2F0E946903C49AB8
S1130870C498CF910895EF92FF920F931F93CF9353
S1130880DF930F2EF3E9EF2EF0E0FF2EF02D03E8B7
S113089010E0C0E0D0E0E199FECFCE010E94310E1D
S11308A0F701819391937F01E199FECFCE014096A8
S11308B00E94310EF801819391938F012296C031E9
S11308C0D10549F7C3EAD0E043EA50E0A3E8B0E039
S11308D0E3E9F0E0819191912D913D91820F931F75
S11308E09695879589939993E417F50799F7DF917E
S11308F0CF911F910F91FF90EF900895EF92FF9287
S11309000F931F93CF93DF930F2EF3E8EF2EF0E0B6
S1130910FF2EF02D03E910E0C0E0D0E0E199FECF16
S1130920F801619171918F01CE010E94370EE19916
S1130930FECFF701619171917F01CE0140960E9433
S1130940370E2296C031D10549F7DF91CF911F911F
S11309500F91FF90EF900895806487B9369A349B85
S1130960FECF84B195B10895DF92EF92FF920F9379
S11309701F93CF93DF9303EA10E0C0E0D0E0D12CC3
S1130980EE24E394F12C8C2F0E94AC04F801219105
S113099031918F018217930740F497010C2E02C006
S11309A0220F331F0A94E2F7D22A2196C830D105C8
S11309B051F7D09282008D2DDF91CF911F910F912D
S11309C0FF90EF90DF9008958F929F92AF92BF9225
S11309D0CF92DF92EF92FF920F931F93CF93DF9307
S11309E0C3E9D0E003E810E00F2EF3EAEF2EF0E0C5
S11309F0FF2EF02DD801FE0180E094E081939193C5
S1130A001D921D92EE15FF05C9F789E39BE10E9433
S1130A106D03B02EA12E9C2E8D2EC12C87EF0E942B
S1130A20D60181111FC00B2D1A2DC92DD82DDC2CF8
S1130A308D2D0E94AC04288139818217930710F40C
S1130A4099838883F801208131812817390710F4AC
S1130A5091838083D39422960E5F1F4FF8E0DF12B8
S1130A60E7CFDCCFC3EAD0E0A3E8B0E0E3E9F0E00D
S1130A70819191912D913D91820F931F9695879528
S1130A8089939993EE15FF0599F70E947E0410E06F
S1130A90F12CC2E8D0E001E08DEF0E94D60188235A
S1130AA021F01F5F183008F01F2D8BEF0E94D60134
S1130AB08111115087EF0E94D601811112C0E12FDC
S1130AC0F0E0EE0FFF1FED55FF4F808191810E94F2
S1130AD06D03802F012E01C0880F0A94EAF78883E2
S1130AE0DBCFDF91CF911F910F91FF90EF90DF90BB
S1130AF0CF90BF90AF909F908F90089580E487B976
S1130B0087E886B90E943B0481EF87BB8FEF88BBDF
S1130B1014BA85BB8BEF81BB12BA80E58DB981E035
S1130B208EB98CE083BF8EE38CBF82E089BF82EAFA
S1130B308FBD8AE18EBD80E29EE497BD86BD19BC5F
S1130B4018BC8FE685BD13BC789485B7836085BFD8
S1130B508BB780648BBF83E190E090937C0080939B
S1130B607B00089510E0F12CC2E8D0E001E08DEFA5
S1130B700E94D601882359F06CE97FEF84E690E067
S1130B800E94EF0285E69FEF0E94D40225C08BEFFE
S1130B900E94D601882321F01F5F1830E9F41BC09E
S1130BA087EF0E94D601882359F064E670E08CE94F
S1130BB09FEF0E94EF028BE990E00E94D4020CC0E8
S1130BC060E070E080E090E00E94EF0280E090E05E
S1130BD00E94D40201C01F2D812F0E94AC040E94E8
S1130BE06D03802F012E01C0880F0A94EAF78883D1
S1130BF0BECFCF93DF93C0E0D0E0CE01DD2324F459
S1130C00882799278C1B9D0B0E946D030E94B404B6
S1130C10CE010E94D4028DEF0E94D601811121974A
S1130C208BEF0E94D601811107C087EF0E94D60185
S1130C30882319F32196E1CFCE01880F991F880FDD
S1130C40991FC80FD91F8091620090916300C80F4B
S1130C50D91FD0936300C0936200DF91CF910895B0
S1130C6080E090E00E94D40260E070E080E090E0D8
S1130C700E94EF028FEF9FEF90937C0080937B00A4
S1130C800E94ED01682F70E080E090E00E94DD0C8E
S1130C9020E030E040EA51E40E94420C20E030E0E1
S1130CA040E85EE30E94DA0B609374007093750071
S1130CB08093760090937700609370007093710036
S1130CC0809372009093730020E030E048EC52E48B
S1130CD00E94910D0E94AF0CCB010E946D0320E095
S1130CE030E040E95FE360917000709171008091A1
S1130CF07200909173000E94910D9B01AC0163E31B
S1130D0073E383EB9FE30E94D90B60936C007093B1
S1130D106D0080936E0090936F000E94B4048DEF79
S1130D200E94D60181110FC08BEF0E94D601811160
S1130D300E94B20587EF0E94D601882309F4A0CF50
S1130D400E94E4049DCF08951F920F920FB60F9254
S1130D5011242F933F934F935F936F937F938F93BC
S1130D609F93AF93BF93EF93FF930E940E040E944F
S1130D70F501809166009091670001969093670059
S1130D8080936600FF91EF91BF91AF919F918F91F6
S1130D907F916F915F914F913F912F910F900FBE73
S1130DA00F901F9018951F920F920FB60F92112457
S1130DB08F939F9380916400909165000196909326
S1130DC06500809364008091780090917900019689
S1130DD090937900809378009F918F910F900FBE2C
S1130DE00F901F9018950E94B404809368008F3F61
S1130DF039F08E7791E08E3709F090E0892F0895CD
S1130E0081E008950E94B40480936800982F9F7035
S1130E109F3039F08F7191E08F3109F090E0892F84
S1130E20089581E008950E94B40480936800982F87
S1130E30907F903F39F0887F91E0883F09F090E0FF
S1130E40892F089581E008950E947E050E9430064E
S1130E500E94F101882319F00E94F90516C00E942E
S1130E60B40480916400909165000E946D038DEF3D
S1130E700E94D601882321F010926500109264002C
S1130E808BEF0E94D601882351F38AE0809360009F
S1130E908FEF9FEF90937C0080937B000F2EFAE0FE
S1130EA0BF2EF02DCCE0D0E00FEF1FEF0F2EFFE3AD
S1130EB06F2EF02D0F2EF5E1AF2EF02D0F2EFEE349
S1130EC03F2EF02D0F2EF5E37F2EF02D0F2EFAE29C
S1130ED05F2EF02D6894442445F80F2EF9E28F2EEE
S1130EE0F02D0F2EFFE19F2EF02D8091600090E0F9
S1130EF0FC013A97E034F10508F058C4E65DFF4F71
S1130F000C94080E8AE090E00E946D030E94F306A0
S1130F10882319F0A0926000E8CF0E941307882369
S1130F2061F083E380936000109267001092660082
S1130F301092650010926400D8CF0E9402078823A3
S1130F4061F08DE380936000109267001092660058
S1130F501092650010926400C8CF0E94B4048E778A
S1130F6090E0FC013297EF36F10508F0BECFE65968
S1130F70FF4F0C94080E80E090E00E94D40264E6D7
S1130F8070E084E690E00E94EF02AFCF64E670E088
S1130F9084E690E00E94EF0289E090E00E94D4028F
S1130FA0A4CF64E670E084E690E00E94EF0281E161
S1130FB090E00E94D40299CF65E570E084E690E069
S1130FC00E94EF028FE190E00E94D4028ECF60E590
S1130FD070E084E690E00E94EF0282E390E00E94D9
S1130FE0D40283CF66E470E084E690E00E94EF02CE
S1130FF08BE490E00E94D4028BE08093600075CF74
S113100064E670E084E690E00E94EF0287EF9FEFD1
S11310100E94D4026ACF64E670E084E690E00E9405
S1131020EF028FEE9FEF0E94D4025FCF64E670E080
S113103085E590E00E94EF0281EE9FEF0E94D402CA
S113104054CF64E670E080E590E00E94EF028EECFD
S11310509FEF0E94D40249CF64E670E086E490E0FA
S11310600E94EF0285EB9FEF0E94D4028CE08093F4
S113107060003BCF8BE090E00E946D03D0937C0036
S1131080C0937B000E94B4048C7C8C30D1F128F492
S1131090882309F1843051F149C0803889F0803CBB
S11310A021F0803609F042C03DC066EF7FEF80E555
S11310B090E00E94EF0289E690E00E94D40215CFEE
S11310C065E070E080E590E00E94EF028AE590E040
S11310D00E94D4020ACF6AE070E080E590E00E94AA
S11310E0EF028EE490E00E94D402FFCE6FE070E045
S11310F080E590E00E94EF028CE390E00E94D4022D
S1131100F4CE64E170E080E590E00E94EF0284E3B5
S113111090E00E94D402B092600010937C0000938F
S11311207B00E3CE8CE080936000DFCE8BE0809385
S11311306000DBCECE010E946D03D0937C00C0938F
S11311407B000E94B4048373833069F028F48823FD
S113115001F1813099F044C0803231F1803379F16A
S11311608630F1F539C060E570E086EF9FEF0E94AC
S1131170EF0287E99FEF0E94D402B7CE60E570E0EA
S113118085E090E00E94EF0286EA9FEF0E94D4027D
S1131190ACCE60E570E08AE090E00E94EF0282EB62
S11311A09FEF0E94D402A1CE60E570E08FE090E052
S11311B00E94EF0284EC9FEF0E94D40296CE60E579
S11311C070E084E190E00E94EF028CEC9FEF0E94BB
S11311D0D402B092600089CE8BE08093600085CE0B
S11311E08CE08093600081CE85E190E00E946D03E5
S11311F080E090E00E94D40268ED7FEF88ED9FEFDD
S11312000E94EF021092670010926600109265002F
S11312101092640086E18093600067CE86E190E0DE
S11312200E946D0380916100833088F462E370E072
S113123082E390E00E94EF0287E1809360001092C5
S113124067001092660010926500109264000E947C
S1131250B4048E7790E0FC013297EF36F10508F084
S113126044CEE752FF4F0C94080E80E090E00E94B9
S1131270D4023BCE89E090E00E94D40236CE81E1D4
S113128090E00E94D40231CE8FE190E00E94D4021B
S11312902CCE82E390E00E94D40227CE8BE490E02F
S11312A00E94D40222CE87EF9FEF0E94D4021DCE6B
S11312B08FEE9FEF0E94D40218CE81EE9FEF0E9422
S11312C0D40213CE8EEC9FEF0E94D4020ECE85EB97
S11312D09FEF0E94D40209CE87E190E00E946D0343
S11312E00E94B404809368002091640030916500EA
S11312F02D303105C0F1982F987F983F61F0982FD9
S1131300907F903F41F0982F907E903E21F0982F4F
S11313109C7F9C3F61F48AE1809360001092670097
S1131320109266001092650010926400DECD982F32
S11313309F719F3161F0982F9770973041F0982FEB
S11313409F709F3021F0982F9F739F3361F48BE13E
S113135080936000109267001092660010926500FE
S113136010926400C2CD8E77A9F489E48093600062
S113137080E090E00E94D40264E670E084E690E0AD
S11313800E94EF02109267001092660010926500AE
S1131390109264000E94B4048E7790E0FC013297AE
S11313A0EF36F10508F0A1CDE85BFE4F0C94080E72
S11313B080E090E00E94D40298CD89E090E00E9401
S11313C0D40293CD81E190E00E94D4028ECD8FE1CE
S11313D090E00E94D40289CD82E390E00E94D4027E
S11313E084CD8BE490E00E94D4027FCD87EF9FEF01
S11313F00E94D4027ACD8FEE9FEF0E94D40275CD65
S113140081EE9FEF0E94D40270CD8EEC9FEF0E947C
S1131410D4026BCD85EB9FEF0E94D40266CD8AE1A6
S113142090E00E946D0385E69FEF0E94D40260E580
S113143070E08CE99FEF0E94EF029092600010929E
S113144067001092660010926500109264004DCD02
S11314508BE190E00E946D038BE990E00E94D4023E
S11314606CE97FEF80E590E00E94EF0280926000DB
S1131470109267001092660010926500109264004A
S113148034CD8FE190E00E946D03809166009091CD
S11314906700893C910508F428CD409260001092C1
S11314A067001092660010926500109264001DCDD2
S11314B080E290E00E946D030E94B404809368006F
S11314C0877E803209F011CDB09260000ECD89E2A2
S11314D090E00E946D038091660090916700893CC2
S11314E0910508F402CD50926000109267001092AA
S11314F06600FBCC8AE290E00E946D030E94B40473
S113150080936800877E843009F0EFCCB09260004D
S1131510ECCC83E390E00E946D030E94B4048093BA
S11315206800982F9770973039F0982F9F709F30EC
S113153019F08F718F3119F4A0926000D6CC64E653
S113154070E084E690E00E94EF0280916400909144
S11315506500499740F48091660090916700883750
S1131560910508F4C2CC84E3809360001092670074
S1131570109266001092650010926400B6CC84E369
S113158090E00E946D038EEC9FEF0E94D40264E60B
S113159070E080E590E00E94EF027092600010928B
S11315A067001092660010926500109264009DCC52
S11315B085E390E00E946D030E94B404282E80937A
S11315C0680080916400909165008536910508F566
S11315D0609166007091670080E090E00E94DB0CEF
S11315E06B017C0120E030E048E453E460916C003E
S11315F070916D0080916E0090916F000E94910D2A
S11316009B01AC01C701B6010E948D0D18160CF0A8
S11316106CCC822D8073803309F067CCB09260006B
S113162064CC8DE390E00E946D030E94B404809327
S11316306800982F907E903E39F0982F907F903FCD
S113164019F0887F883F19F4A09260004ECC64E6BC
S113165070E084E690E00E94EF0280916400909133
S11316606500499740F4809166009091670088373F
S1131670910508F43ACC3092600010926700109201
S1131680660010926500109264002FCC8EE390E007
S11316900E946D0382E390E00E94D40260E570E052
S11316A084E690E00E94EF0260926000109267006E
S11316B010926600109265001092640016CC8FE3BD
S11316C090E00E946D030E94B404282E8093680069
S11316D080916400909165008536910508F56091CC
S11316E066007091670080E090E00E94DB0C6B0163
S11316F07C0120E030E048E453E460916C00709198
S11317006D0080916E0090916F000E94910D9B017D
S1131710AC01C701B6010E948D0D18160CF0E5CB83
S1131720822D8073803309F0E0CBB0926000DDCB72
S113173089E490E00E946D03D0937C00C0937B0009
S11317406CE370E08CE390E00E94EF020E94B4042A
S113175080936800807C803C21F488E290E00E94C1
S1131760D40280916800882324F48EE190E00E94E2
S1131770D402809168008370833021F488ED9FEF58
S11317800E94D4028091680080FF04C082EE9FEF23
S11317900E94D402809168008C7309F4A6CBB092A5
S11317A0600010937C0000937B009FCBB09260009C
S11317B09CCB5058BB27AA270ED075C166D130F0F8
S11317C06BD120F031F49F3F11F41EF45BC10EF491
S11317D0E095E7FB51C1E92F77D180F3BA1762078F
S11317E073078407950718F071F49EF58FC10EF402
S11317F0E0950B2EBA2FA02D0B01B90190010C011D
S1131800CA01A0011124FF27591B99F0593F50F434
S1131810503E68F11A16F040A22F232F342F44278C
S1131820585FF3CF469537952795A795F040539584
S1131830C9F77EF41F16BA0B620B730B840BBAF054
S11318409150A1F0FF0FBB1F661F771F881FC2F7BF
S11318500EC0BA0F621F731F841F48F487957795D3
S11318606795B795F7959E3F08F0B3CF9395880F8A
S113187008F09927EE0F979587950895D9D008F425
S113188081E008950CD00FC107D140F0FED030F0B4
S113189021F45F3F19F0F0C0511139C1F3C014D1E4
S11318A098F39923C9F35523B1F3951B550BBB2723
S11318B0AA2762177307840738F09F5F5F4F220FD0
S11318C0331F441FAA1FA9F333D00E2E3AF0E0E8C9
S11318D030D091505040E695001CCAF729D0FE2F15
S11318E027D0660F771F881FBB1F261737074807A7
S11318F0AB07B0E809F0BB0B802DBF01FF2793585D
S11319005F4F2AF09E3F510568F0B6C000C15F3FAB
S1131910ECF3983EDCF3869577956795B795F79544
S11319209F5FC9F7880F911D9695879597F908953C
S1131930E1E0660F771F881FBB1F621773078407D8
S1131940BA0720F0621B730B840BBA0BEE1F88F7E7
S1131950E095089504D06894B111D9C00895BCD01D
S113196088F09F5790F0B92F9927B751A0F0D1F084
S1131970660F771F881F991F1AF0BA95C9F712C00E
S1131980B13081F0C3D0B1E00895C0C0672F782F83
S11319908827B85F39F0B93FCCF38695779567957A
S11319A0B395D9F73EF490958095709561957F4FE6
S11319B08F4F9F4F0895E89409C097FB3EF490958C
S11319C08095709561957F4F8F4F9F4F9923A9F014
S11319D0F92F96E9BB279395F695879577956795A3
S11319E0B795F111F8CFFAF4BB0F11F460FF1BC0E7
S11319F06F5F7F4F8F4F9F4F16C0882311F096E97A
S1131A0011C0772321F09EE8872F762F05C0662327
S1131A1071F096E8862F70E060E02AF09A95660FE0
S1131A20771F881FDAF7880F9695879597F9089599
S1131A30990F0008550FAA0BE0E8FEEF16161706DB
S1131A40E807F907C0F012161306E407F50798F043
S1131A50621B730B840B950B39F40A2661F0232B5C
S1131A60242B252B21F408950A2609F4A140A695D8
S1131A708FEF811D811D089597F99F6780E870E0BD
S1131A8060E008959FEF80EC089500240A941616F0
S1131A90170618060906089500240A941216130658
S1131AA0140605060895092E0394000C11F48823E6
S1131AB052F0BB0F40F4BF2B11F460FF04C06F5F02
S1131AC07F4F8F4F9F4F089557FD9058440F551FD8
S1131AD059F05F3F71F04795880F97FB991F61F0AC
S1131AE09F3F79F087950895121613061406551F23
S1131AF0F2CF4695F1DF08C0161617061806991F8F
S1131B00F1CF86957105610508940895E894BB2783
S1131B1066277727CB0197F908958ADF08F48FEFBA
S1131B2008950BD0C0CFB1DF28F0B6DF18F09523AD
S1131B3009F0A2CFA7CF1124EACFC6DFA0F3959F67
S1131B40D1F3950F50E0551F629FF001729FBB27A0
S1131B50F00DB11D639FAA27F00DB11DAA1F649F4C
S1131B606627B00DA11D661F829F2227B00DA11DFF
S1131B70621F739FB00DA11D621F839FA00D611D85
S1131B80221F749F3327A00D611D231F849F600DA6
S1131B90211D822F762F6A2F11249F5750408AF0DF
S1131BA0E1F088234AF0EE0FFF1FBB1F661F771F6B
S1131BB0881F91505040A9F79E3F510570F05CCFAB
S1131BC0A6CF5F3FECF3983EDCF386957795679557
S1131BD0B795F795E7959F5FC1F7FE2B880F911D89
S1131BE09695879597F9089597FB072E16F4009418
S1131BF007D077FD09D00E941D0E07FC05D03EF4E6
S1131C00909581959F4F0895709561957F4F0895A4
S1131C10EE0FFF1F0590F491E02D0994A29FB001EF
S1131C20B39FC001A39F700D811D1124911DB29F0C
S1131C30700D811D1124911D0895AA1BBB1B51E138
S1131C4007C0AA1FBB1FA617B70710F0A61BB70B28
S1131C50881F991F5A95A9F780959095BC01CD01CD
S1131C600895A8E1B0E042E050E00C943E0E0E94DA
S1131C704C0E272F0C944D0EDC01CB01FC01E19995
S1131C80FECF06C0FFBBEEBBE09A31960DB20D92BB
S1131C9041505040B8F70895262FE199FECF9FBBDD
S1131CA08EBB2DBB0FB6F894E29AE19A0FBE019653
S1091CB00895F894FFCF33
S1071CB60AFFBD0B55
S9030000FC
