:100000000C94B7010C94CD060C94D4010C94D4013B
:100010000C94D4010C94D4010C94D4010C94D4010C
:100020000C94D4010C94D4010C94D4010C94D401FC
:100030000C94D4010C94D4010C94D4010C94D401EC
:100040000C94D4010C94D4010C94D4010C949E060D
:100050000C94D4017C0734089408D00BD00BD00B3F
:10006000D00BD00BD00BD00BD00BEE0808096609D3
:10007000D00BD00B090A220AD00BD00BD00B3B0AB5
:10008000520AD00BD00BD00BD00BD00BD00BD00B17
:10009000D00B610A740AD00BD00BD00BD00BD00B55
:1000A000D00BD00BD00B830AB90AD20AD00BD00BDD
:1000B000D00BD00BD00BD00BD00B0B0B400B590B34
:1000C000D00BD00BD00BD00BD00BD00BD00BD00B58
:1000D000D00B920BEC076F07D6076F07E1076F078E
:1000E000C0076F076F076F07CB076F07D6076F074C
:1000F000FA076F076F076F076F076F076F076F07C5
:10010000B5076F076F076F07C0076F076F076F07A8
:1001100010086F076F076F076F076F076F076F078D
:100120006F076F076F076F076F076F076F076F071F
:1001300005086F076F076F076F076F076F076F0778
:10014000FA076F076F076F076F076F076F076F0774
:1001500026086F076F076F076F076F076F076F0737
:100160006F076F076F076F076F076F076F076F07DF
:100170006F076F076F076F076F076F076F076F07CF
:100180006F076F076F076F076F076F076F076F07BF
:100190001B086F076F076F076F076F076F076F0702
:1001A0006F076F076F076F076F076F076F076F079F
:1001B000100848096F073E096F0743096F073409A4
:1001C0006F076F076F0739096F073E096F074D0902
:1001D0006F076F076F076F076F076F076F072F09AD
:1001E0006F076F076F0734096F076F076F075709AE
:1001F0006F076F076F076F076F076F076F076F074F
:100200006F076F076F076F076F076F076F07520959
:100210006F076F076F076F076F076F076F074D094E
:100220006F076F076F076F076F076F076F0761092A
:100230006F076F076F076F076F076F076F076F070E
:100240006F076F076F076F076F076F076F076F07FE
:100250006F076F076F076F076F076F076F076F07EE
:100260006F076F076F076F076F076F076F075C09EF
:100270006F076F076F076F076F076F076F076F07CE
:100280006F076F076F076F076F076F076F075709D4
:10029000EB096F07E1096F07E6096F07D7096F07D9
:1002A0006F076F07DC096F07E1096F07F0096F0738
:1002B0006F076F076F076F076F076F07D2096F0729
:1002C0006F076F07D7096F076F076F07FA096F0787
:1002D0006F076F076F076F076F076F076F076F076E
:1002E0006F076F076F076F076F076F07F5096F07D6
:1002F0006F076F076F076F076F076F07F0096F07CB
:100300006F076F076F076F076F076F07040A6F07A5
:100310006F076F076F076F076F076F076F076F072D
:100320006F076F076F076F076F076F076F076F071D
:100330006F076F076F076F076F076F076F076F070D
:100340006F076F076F076F076F076F07FF096F076B
:100350006F076F076F076F076F076F076F076F07ED
:100360006F076F076F076F076F076F07FA09112491
:100370001FBECFE5D4E0DEBFCDBF10E0A0E6B0E009
:10038000EAEAFCE102C005900D92A436B107D9F764
:1003900020E0A4E6B0E001C01D92A33BB207E1F764
:1003A0000E941E070C94530E0C940000982F86B3E5
:1003B0008E708E3081F02FEF37EE83E02150304089
:1003C0008040E1F700C0000026B3292B81E092179E
:1003D00019F080E0089580E0089583B380958370DC
:1003E000089583B380958470089580917A008F5F1B
:1003F00080937A00843108F4D6C080917B0090917C
:100400007C0099238CF48091740090917500A091E8
:100410007600B09177008093700090937100A09364
:100420007200B09373009FC09C01992314F42F5F56
:100430003F4FA9015595479520917800309179005B
:1004400024173507BCF42AE939E949E95EE36091EC
:1004500074007091750080917600909177000E94F1
:10046000D40B60937000709371008093720090932E
:1004700073005EC028173907BCF42DEC3CEC4CEC43
:100480005DE36091740070917500809176009091A9
:1004900077000E94D40B609370007093710080937A
:1004A00072009093730044C082179307BCF423E357
:1004B00033E343EB5EE360917400709175008091CB
:1004C0007600909177000E94D30B60937000709338
:1004D000710080937200909373002AC042175307F3
:1004E000BCF420E030E040E85EE36091740070917D
:1004F000750080917600909177000E94D30B6093F5
:10050000700070937100809372009093730010C01C
:100510008091740090917500A0917600B091770061
:100520008093700090937100A0937200B093730059
:1005300020E030E0A901609170007091710080911D
:100540007200909173000E94380C181664F08DECC4
:100550009CECACECBDE38093700090937100A09391
:100560007200B0937300809178009091790020918F
:100570006100AC01421B510950936A00409369002D
:100580001416150634F420916B002F5F20936B0036
:1005900002C010926B00809361001092790010925B
:1005A000780010927A00089587342FEF920714F4A0
:1005B00087E49FEF8A3B910514F089EB90E0880F68
:1005C000991F880F991F2091620030916300820F5C
:1005D000931F9BBD8ABD08958F929F92AF92BF9249
:1005E000CF92DF92EF92FF920F931F93CF93DF93FF
:1005F0008B018090700090907100A0907200B0907C
:100600007300BC01882777FD8095982F0E94D70C36
:10061000A50194010E948B0D0E94A40C6B017C012A
:10062000EB01B801882777FD8095982F0E94D70CA1
:100630009B01AC01C501B4010E948B0D0E94A40C6A
:100640009B01DD235CF0909A9198E8ECEC9DA00171
:10065000ED9D500D112459BD48BD0BC09098919A45
:10066000E8E3EC9DA001ED9D500D5C19112459BDEE
:1006700048BD33237CF0939A96984FEF469F9001A4
:10068000479F300D1124C90164E670E00E94EE0D11
:1006900063BD0FC09398969A41E0469F9001479F93
:1006A000300D361B1124C90164E670E00E94EE0D86
:1006B00063BDDF91CF911F910F91FF90EF90DF907D
:1006C000CF90BF90AF909F908F9008958FB9779BF8
:1006D000FECF08950F931F93CF93DF93AC019C013E
:1006E000ADECBCEC0E94080E969587959695879583
:1006F000969587959C01220F331F880F991F880FAD
:10070000991F880F991F820F931F9A01281B390B7D
:10071000C901806880937E009A01369527953695A9
:100720002795ABE7B4E10E94080E9695879564E69D
:10073000689F9001699F300D1124CA01821B930BA1
:100740009C01ADECBCEC0E94080EFC01F695E7950F
:10075000F695E795F695E7951E2FEA01D695C7958C
:10076000D695C795D695C7959E01A5ECB0E20E9497
:10077000080E929582958F7089279F70892768EE61
:1007800073E0869F9001879F300D969F300D112456
:10079000421B530B9A013695279536952795ABE763
:1007A000B4E10E94080EAC0156954795042F9E01B6
:1007B000A5ECB0E20E94080E929582958F70892771
:1007C0009F708927882311F020E101C020E0822B4F
:1007D00080938100811115C001110CC00CC0112340
:1007E00011F080E403C080E001C080E4E82BE093D6
:1007F0007F000CC080E2482B40938000442379F3B3
:10080000F4CF40624093800080E4F0CFDF91CF913D
:100810001F910F910895CF93EDE7F0E0908181E073
:10082000890F8083943019F410927D0008C08130C4
:1008300049F028F0823049F0833051F00CC0C0916B
:1008400081000AC0C091800007C0C0917F0004C031
:10085000C0917E0001C0C0E08091820080950E941E
:1008600066038C2F0E946603C49AC498CF910895A2
:10087000EF92FF920F931F93CF93DF930F2EF3E925
:10088000EF2EF0E0FF2EF02D03E810E0C0E0D0E006
:10089000E199FECFCE010E942B0EF7018193919337
:1008A0007F01E199FECFCE0140960E942B0EF80108
:1008B000819391938F012296C031D10549F7C3EA04
:1008C000D0E043EA50E0A3E8B0E0E3E9F0E0819152
:1008D00091912D913D91820F931F969587958993C4
:1008E0009993E417F50799F7DF91CF911F910F9135
:1008F000FF90EF900895EF92FF920F931F93CF9385
:10090000DF930F2EF3E8EF2EF0E0FF2EF02D03E93A
:1009100010E0C0E0D0E0E199FECFF8016191719163
:100920008F01CE010E94310EE199FECFF701619156
:1009300071917F01CE0140960E94310E2296C03106
:10094000D10549F7DF91CF911F910F91FF90EF9063
:100950000895806487B9369A349BFECF84B195B1EF
:100960000895DF92EF92FF920F931F93CF93DF933F
:1009700003EA10E0C0E0D0E0D12CEE24E394F12CA7
:100980008C2F0E94A904F801219131918F018217C7
:10099000930740F497010C2E02C0220F331F0A94D4
:1009A000E2F7D22A2196C830D10551F7D0928200C1
:1009B0008D2DDF91CF911F910F91FF90EF90DF90E0
:1009C00008958F929F92AF92BF92CF92DF92EF9253
:1009D000FF920F931F93CF93DF93C3E9D0E003E817
:1009E00010E00F2EF3EAEF2EF0E0FF2EF02DD801ED
:1009F000FE0180E094E0819391931D921D92EE158B
:100A0000FF05C9F789E39BE10E946A03B02EA12E7E
:100A10009C2E8D2EC12C87EF0E94D60181111FC004
:100A20000B2D1A2DC92DD82DDC2C8D2D0E94A9043B
:100A3000288139818217930710F499838883F801FC
:100A4000208131812817390710F491838083D39452
:100A500022960E5F1F4FF8E0DF12E7CFDCCFC3EA2C
:100A6000D0E0A3E8B0E0E3E9F0E0819191912D912D
:100A70003D91820F931F9695879589939993EE15D3
:100A8000FF0599F70E947B0410E0F12CC2E8D0E04A
:100A900001E08DEF0E94D601882321F01F5F1830FE
:100AA00008F01F2D8BEF0E94D6018111115087EFA6
:100AB0000E94D601811112C0E12FF0E0EE0FFF1F5E
:100AC000ED55FF4F808191810E946A03802F012E96
:100AD00001C0880F0A94EAF78883DBCFDF91CF91BA
:100AE0001F910F91FF90EF90DF90CF90BF90AF904C
:100AF0009F908F90089580E487B987E886B90E9417
:100B0000380481EF87BB8FEF88BB14BA85BB8BEFAE
:100B100081BB12BA80E58DB981E08EB98CE083BFCC
:100B20008EE38CBF82E089BF82EA8FBD8AE18EBDF1
:100B300080E29EE497BD86BD19BC18BC8FE685BDDA
:100B400013BC789485B7836085BF8BB780648BBFF7
:100B500083E190E090937C0080937B00089510E007
:100B6000F12CC2E8D0E001E08DEF0E94D60188238D
:100B700059F06CE97FEF84E690E00E94EC0287E494
:100B80009FEF0E94D40225C08BEF0E94D6018823DC
:100B900021F01F5F1830E9F41BC087EF0E94D601D7
:100BA000882359F064E670E08CE99FEF0E94EC0224
:100BB00089EB90E00E94D4020CC060E070E080E01D
:100BC00090E00E94EC0280E090E00E94D40201C01C
:100BD0001F2D812F0E94A9040E946A03802F012EDD
:100BE00001C0880F0A94EAF78883BECFCF93DF93C2
:100BF000C0E0D0E0CE01DD2324F4882799278C1BA8
:100C00009D0B0E946A030E94B104CE010E94D4028F
:100C10008DEF0E94D601811121978BEF0E94D601A2
:100C2000811107C087EF0E94D601882319F321960E
:100C3000E1CFCC0FDD1FCC0FDD1F809162009091C2
:100C40006300C80FD91FD0936300C0936200DF9187
:100C5000CF91089580E090E00E94D40260E070E0BF
:100C600080E090E00E94EC028FEF9FEF90937C0079
:100C700080937B000E94ED01682F70E080E090E09F
:100C80000E94D70C20E030E040EA51E40E943C0C86
:100C900020E030E040E85EE30E94D40B60937400F3
:100CA0007093750080937600909377006093700046
:100CB00070937100809372009093730020E030E095
:100CC00048EC52E40E948B0D0E94A90CCB010E94BB
:100CD0006A0320E030E040E95FE3609170007091CA
:100CE000710080917200909173000E948B0D9B01A6
:100CF000AC0163E373E383EB9FE30E94D30B609348
:100D00006C0070936D0080936E0090936F000E9452
:100D1000B1048DEF0E94D60181110FC08BEF0E94AC
:100D2000D60181110E94AF0587EF0E94D60188236A
:100D300009F4A0CF0E94E1049DCF08951F920F9265
:100D40000FB60F9211242F933F934F935F936F939E
:100D50007F938F939F93AF93BF93EF93FF930E94E3
:100D60000B040E94F5018091660090916700019646
:100D70009093670080936600FF91EF91BF91AF91D0
:100D80009F918F917F916F915F914F913F912F91A3
:100D90000F900FBE0F901F9018951F920F920FB6D5
:100DA0000F9211248F939F9380916400909165001E
:100DB00001969093650080936400809178009091F3
:100DC0007900019690937900809378009F918F919C
:100DD0000F900FBE0F901F9018950E94B104809342
:100DE00068008F3F39F08E7791E08E3709F090E000
:100DF000892F089581E008950E94B10480936800CE
:100E0000982F9F709F3039F08F7191E08F3109F0EA
:100E100090E0892F089581E008950E94B1048093A5
:100E20006800982F907F903F39F0887F91E0883F4D
:100E300009F090E0892F089581E008950E947B05D4
:100E40000E942A060E94F101882319F00E94F605EB
:100E500016C00E94B10480916400909165000E94C8
:100E60006A038DEF0E94D601882321F0109265005D
:100E7000109264008BEF0E94D601882351F38AE020
:100E8000809360008FEF9FEF90937C0080937B00B6
:100E90000F2EFAE0BF2EF02DCCE0D0E00FEF1FEFC9
:100EA0000F2EFFE36F2EF02D0F2EF5E1AF2EF02D5C
:100EB0000F2EFEE33F2EF02D0F2EF5E37F2EF02DAB
:100EC0000F2EFAE25F2EF02D6894442445F80F2E81
:100ED000F9E28F2EF02D0F2EFFE19F2EF02D809145
:100EE000600090E0FC013A97E034F10508F058C446
:100EF000E65DFF4F0C94020E8AE090E00E946A03C8
:100F00000E94ED06882319F0A0926000E8CF0E94AD
:100F10000D07882361F083E38093600010926700DF
:100F2000109266001092650010926400D8CF0E9463
:100F3000FC06882361F08DE38093600010926700C7
:100F4000109266001092650010926400C8CF0E9453
:100F5000B1048E7790E0FC013297EF36F10508F08E
:100F6000BECFE659FF4F0C94020E80E090E00E9445
:100F7000D40264E670E084E690E00E94EC02AFCF19
:100F800064E670E084E690E00E94EC0289E090E084
:100F90000E94D402A4CF64E670E084E690E00E9450
:100FA000EC0281E190E00E94D40299CF65E570E007
:100FB00084E690E00E94EC028FE190E00E94D4026F
:100FC0008ECF60E570E084E690E00E94EC0282E360
:100FD00090E00E94D40283CF66E470E084E690E063
:100FE0000E94EC028BE490E00E94D4028BE080939C
:100FF000600075CF64E670E084E690E00E94EC0249
:1010000087EF9FEF0E94D4026ACF64E670E084E627
:1010100090E00E94EC028FEE9FEF0E94D4025FCF1F
:1010200064E670E085E590E00E94EC0281EE9FEFBF
:101030000E94D40254CF64E670E080E590E00E9404
:10104000EC028EEC9FEF0E94D40249CF64E670E080
:1010500086E490E00E94EC0285EB9FEF0E94D402B0
:101060008CE0809360003BCF8BE090E00E946A03AD
:10107000D0937C00C0937B000E94B1048C7C8C30A8
:10108000D1F128F4882309F1843051F149C0803826
:1010900089F0803C21F0803609F042C03DC066EF07
:1010A0007FEF80E590E00E94EC0289E690E00E94EC
:1010B000D40215CF65E070E080E590E00E94EC027C
:1010C0008AE590E00E94D4020ACF6AE070E080E5F1
:1010D00090E00E94EC028EE490E00E94D402FFCEE9
:1010E0006FE070E080E590E00E94EC028CE390E01D
:1010F0000E94D402F4CE64E170E080E590E00E94AA
:10110000EC0284E390E00E94D402B092600010935D
:101110007C0000937B00E3CE8CE080936000DFCE08
:101120008BE080936000DBCECE010E946A03D093F7
:101130007C00C0937B000E94B1048373833069F00C
:1011400028F4882301F1813099F044C0803231F1D4
:10115000803379F18630F1F539C060E570E086EFD3
:101160009FEF0E94EC0287E99FEF0E94D402B7CE66
:1011700060E570E085E090E00E94EC0286EA9FEF77
:101180000E94D402ACCE60E570E08AE090E00E945C
:10119000EC0282EB9FEF0E94D402A1CE60E570E0EA
:1011A0008FE090E00E94EC0284EC9FEF0E94D4025A
:1011B00096CE60E570E084E190E00E94EC028CEC59
:1011C0009FEF0E94D402B092600089CE8BE08093A2
:1011D000600085CE8CE08093600081CE85E190E058
:1011E0000E946A0380E090E00E94D40268ED7FEFE5
:1011F00088ED9FEF0E94EC0210926700109266004B
:10120000109265001092640086E18093600067CEC2
:1012100086E190E00E946A0380916100833088F447
:1012200062E370E082E390E00E94EC0287E1809349
:101230006000109267001092660010926500109294
:1012400064000E94B1048E7790E0FC013297EF3683
:10125000F10508F044CEE752FF4F0C94020E80E0F7
:1012600090E00E94D4023BCE89E090E00E94D4023C
:1012700036CE81E190E00E94D40231CE8FE190E041
:101280000E94D4022CCE82E390E00E94D40227CEAA
:101290008BE490E00E94D40222CE87EF9FEF0E9461
:1012A000D4021DCE8FEE9FEF0E94D40218CE81EEA5
:1012B0009FEF0E94D40213CE8EEC9FEF0E94D402C7
:1012C0000ECE85EB9FEF0E94D40209CE87E190E01D
:1012D0000E946A030E94B104809368002091640018
:1012E000309165002D303105C0F1982F987F983FDF
:1012F00061F0982F907F903F41F0982F907E903E24
:1013000021F0982F9C7F9C3F61F48AE180936000DC
:1013100010926700109266001092650010926400AF
:10132000DECD982F9F719F3161F0982F9770973085
:1013300041F0982F9F709F3021F0982F9F739F331B
:1013400061F48BE180936000109267001092660058
:101350001092650010926400C2CD8E77A9F489E4E2
:101360008093600080E090E00E94D40264E670E028
:1013700084E690E00E94EC021092670010926600F2
:1013800010926500109264000E94B1048E7790E084
:10139000FC013297EF36F10508F0A1CDE85BFE4F76
:1013A0000C94020E80E090E00E94D40298CD89E077
:1013B00090E00E94D40293CD81E190E00E94D4029B
:1013C0008ECD8FE190E00E94D40289CD82E390E03F
:1013D0000E94D40284CD8BE490E00E94D4027FCDA1
:1013E00087EF9FEF0E94D4027ACD8FEE9FEF0E948D
:1013F000D40275CD81EE9FEF0E94D40270CD8EECA9
:101400009FEF0E94D4026BCD85EB9FEF0E94D40228
:1014100066CD8AE190E00E946A0387E49FEF0E9414
:10142000D40260E570E08CE99FEF0E94EC0290929C
:101430006000109267001092660010926500109292
:1014400064004DCD8BE190E00E946A0389EB90E04F
:101450000E94D4026CE97FEF80E590E00E94EC02EC
:1014600080926000109267001092660010926500F2
:101470001092640034CD8FE190E00E946A03809165
:10148000660090916700893C910508F428CD409250
:101490006000109267001092660010926500109232
:1014A00064001DCD80E290E00E946A030E94B104B6
:1014B00080936800877E803209F011CDB092600081
:1014C0000ECD89E290E00E946A03809166009091BF
:1014D0006700893C910508F402CD5092600010929B
:1014E000670010926600FBCC8AE290E00E946A03DB
:1014F0000E94B10480936800877E843009F0EFCCAD
:10150000B0926000ECCC83E390E00E946A030E94FA
:10151000B10480936800982F9770973039F0982F16
:101520009F709F3019F08F718F3119F4A092600075
:10153000D6CC64E670E084E690E00E94EC028091F4
:10154000640090916500499740F480916600909105
:1015500067008837910508F4C2CC84E3809360006B
:10156000109267001092660010926500109264005D
:10157000B6CC84E390E00E946A038EEC9FEF0E9459
:10158000D40264E670E080E590E00E94EC02709284
:101590006000109267001092660010926500109231
:1015A00064009DCC85E390E00E946A030E94B10430
:1015B000282E8093680080916400909165008536A4
:1015C000910508F5609166007091670080E090E0F9
:1015D0000E94D50C6B017C0120E030E048E453E42C
:1015E00060916C0070916D0080916E0090916F0021
:1015F0000E948B0D9B01AC01C701B6010E94870DB3
:1016000018160CF06CCC822D8073803309F067CCF7
:10161000B092600064CC8DE390E00E946A030E9467
:10162000B10480936800982F907E903E39F0982FF7
:10163000907F903F19F0887F883F19F4A092600056
:101640004ECC64E670E084E690E00E94EC0280916B
:10165000640090916500499740F4809166009091F4
:1016600067008837910508F43ACC309260001092F8
:1016700067001092660010926500109264002FCCF3
:101680008EE390E00E946A0382E390E00E94D4021D
:1016900060E570E084E690E00E94EC0260926000F9
:1016A000109267001092660010926500109264001C
:1016B00016CC8FE390E00E946A030E94B104282EAA
:1016C0008093680080916400909165008536910553
:1016D00008F5609166007091670080E090E00E94DC
:1016E000D50C6B017C0120E030E048E453E46091CC
:1016F0006C0070916D0080916E0090916F000E945F
:101700008B0D9B01AC01C701B6010E94870D181615
:101710000CF0E5CB822D8073803309F0E0CBB092E2
:101720006000DDCB89E490E00E946A03D0937C00E6
:10173000C0937B006CE370E08CE390E00E94EC02CD
:101740000E94B10480936800807C803C21F488E290
:1017500090E00E94D40280916800882324F48EE1F6
:1017600090E00E94D402809168008370833021F45D
:1017700088ED9FEF0E94D4028091680080FF04C032
:1017800082EE9FEF0E94D402809168008C7309F46E
:10179000A6CBB092600010937C0000937B009FCB9F
:1017A000B09260009CCB5058BB27AA270ED075C1C1
:1017B00066D130F06BD120F031F49F3F11F41EF46C
:1017C0005BC10EF4E095E7FB51C1E92F77D180F3BF
:1017D000BA17620773078407950718F071F49EF52E
:1017E0008FC10EF4E0950B2EBA2FA02D0B01B9017D
:1017F00090010C01CA01A0011124FF27591B99F087
:10180000593F50F4503E68F11A16F040A22F232F92
:10181000342F4427585FF3CF469537952795A795E2
:10182000F0405395C9F77EF41F16BA0B620B730B89
:10183000840BBAF09150A1F0FF0FBB1F661F771FFA
:10184000881FC2F70EC0BA0F621F731F841F48F4AF
:10185000879577956795B795F7959E3F08F0B3CF35
:101860009395880F08F09927EE0F9795879508951F
:10187000D9D008F481E008950CD00FC107D140F011
:10188000FED030F021F45F3F19F0F0C0511139C1A2
:10189000F3C014D198F39923C9F35523B1F3951BE1
:1018A000550BBB27AA2762177307840738F09F5F81
:1018B0005F4F220F331F441FAA1FA9F333D00E2EF0
:1018C0003AF0E0E830D091505040E695001CCAF75D
:1018D00029D0FE2F27D0660F771F881FBB1F261722
:1018E00037074807AB07B0E809F0BB0B802DBF01F5
:1018F000FF2793585F4F2AF09E3F510568F0B6C00E
:1019000000C15F3FECF3983EDCF3869577956795D1
:10191000B795F7959F5FC9F7880F911D96958795A5
:1019200097F90895E1E0660F771F881FBB1F6217C4
:1019300073078407BA0720F0621B730B840BBA0B82
:10194000EE1F88F7E095089504D06894B111D9C0CE
:101950000895BCD088F09F5790F0B92F9927B751C0
:10196000A0F0D1F0660F771F881F991F1AF0BA9563
:10197000C9F712C0B13081F0C3D0B1E00895C0C042
:10198000672F782F8827B85F39F0B93FCCF3869559
:1019900077956795B395D9F73EF4909580957095B6
:1019A00061957F4F8F4F9F4F0895E89409C097FB33
:1019B0003EF490958095709561957F4F8F4F9F4F26
:1019C0009923A9F0F92F96E9BB279395F69587956A
:1019D00077956795B795F111F8CFFAF4BB0F11F42D
:1019E00060FF1BC06F5F7F4F8F4F9F4F16C08823D4
:1019F00011F096E911C0772321F09EE8872F762F0A
:101A000005C0662371F096E8862F70E060E02AF04A
:101A10009A95660F771F881FDAF7880F9695879536
:101A200097F90895990F0008550FAA0BE0E8FEEF0B
:101A300016161706E807F907C0F012161306E40792
:101A4000F50798F0621B730B840B950B39F40A268B
:101A500061F0232B242B252B21F408950A2609F469
:101A6000A140A6958FEF811D811D089597F99F676D
:101A700080E870E060E008959FEF80EC0895002416
:101A80000A941616170618060906089500240A94E3
:101A900012161306140605060895092E0394000C69
:101AA00011F4882352F0BB0F40F4BF2B11F460FFF8
:101AB00004C06F5F7F4F8F4F9F4F089557FD905821
:101AC000440F551F59F05F3F71F04795880F97FB02
:101AD000991F61F09F3F79F08795089512161306BC
:101AE0001406551FF2CF4695F1DF08C016161706EB
:101AF0001806991FF1CF8695710561050894089520
:101B0000E894BB2766277727CB0197F908958ADFEA
:101B100008F48FEF08950BD0C0CFB1DF28F0B6DF07
:101B200018F0952309F0A2CFA7CF1124EACFC6DF82
:101B3000A0F3959FD1F3950F50E0551F629FF001E0
:101B4000729FBB27F00DB11D639FAA27F00DB11D39
:101B5000AA1F649F6627B00DA11D661F829F2227C2
:101B6000B00DA11D621F739FB00DA11D621F839F49
:101B7000A00D611D221F749F3327A00D611D231F1F
:101B8000849F600D211D822F762F6A2F11249F576D
:101B900050408AF0E1F088234AF0EE0FFF1FBB1F90
:101BA000661F771F881F91505040A9F79E3F51052F
:101BB00070F05CCFA6CF5F3FECF3983EDCF38695E8
:101BC00077956795B795F795E7959F5FC1F7FE2BDA
:101BD000880F911D9695879597F9089597FB072E85
:101BE00016F4009407D077FD09D00E94170E07FC69
:101BF00005D03EF4909581959F4F0895709561951D
:101C00007F4F0895EE0FFF1F0590F491E02D09948A
:101C1000A29FB001B39FC001A39F700D811D11242D
:101C2000911DB29F700D811D1124911D0895AA1B55
:101C3000BB1B51E107C0AA1FBB1FA617B70710F0B7
:101C4000A61BB70B881F991F5A95A9F780959095E9
:101C5000BC01CD010895A8E1B0E042E050E00C9451
:101C6000380E0E94460E272F0C94470EDC01CB0144
:101C7000FC01E199FECF06C0FFBBEEBBE09A3196B6
:101C80000DB20D9241505040B8F70895262FE199BA
:101C9000FECF9FBB8EBB2DBB0FB6F894E29AE19AA4
:0A1CA0000FBE01960895F894FFCFDF
:041CAA000AFF260CFB
:00000001FF
