:100000000C941E030C9429080C943B030C943B03A2
:100010000C943B030C943B030C943B030C943B0368
:100020000C943B030C943B030C943B030C943B0358
:100030000C943B030C943B030C943B030C943B0348
:100040000C943B030C943B030C943B030C94FA0775
:100050000C943B03EE08B509230A7F0E7F0E7F0E3A
:100060007F0E7F0E7F0E7F0E7F0E940AAE0A100B5E
:100070007F0E7F0EAB0BC50B7F0E7F0E7F0EDF0B4F
:10008000F60B7F0E7F0E7F0E7F0E7F0E7F0E7F0E94
:100090007F0E050C190C7F0E7F0E7F0E7F0E7F0EDC
:1000A0007F0E7F0E7F0E280CA90CC20C7F0E7F0ED8
:1000B0007F0E7F0E7F0E7F0E7F0E090D860D9F0D2A
:1000C0007F0E7F0E7F0E7F0E7F0E7F0E7F0E7F0EC8
:1000D0007F0EE60D7F0E7F0E7F0E7F0E7F0E7F0E52
:1000E0007F0E7F0E7F0E7F0E7F0E7F0E7F0E7F0EA8
:1000F0007F0E7F0E7F0E7F0E7F0E7F0E7F0E7F0E98
:100100007F0E7F0E7F0E240E6D09E1085709E1086E
:100110006209E1084109E108E108E1084C09E10848
:100120005709E1087B09E108E108E108E108E10875
:10013000E108E1083609E108E108E1084109E108C0
:10014000E108E1089109E108E108E108E108E108B6
:10015000E108E108E108E108E108E108E108E10857
:10016000E108E1088609E108E108E108E108E108A1
:10017000E108E1087B09E108E108E108E108E1089C
:10018000E108E108A709E108E108E108E108E10860
:10019000E108E108E108E108E108E108E108E10817
:1001A000E108E108E108E108E108E108E108E10807
:1001B000E108E108E108E108E108E108E108E108F7
:1001C000E108E1089C09E108E108E108E108E1082B
:1001D000E108E108E108E108E108E108E108E108D7
:1001E000E108E1089109F20AE108E80AE108ED0AEC
:1001F000E108DE0AE108E108E108E30AE108E80AAB
:10020000E108F70AE108E108E108E108E108E1088E
:10021000E108D90AE108E108E108DE0AE108E1089D
:10022000E108010BE108E108E108E108E108E10863
:10023000E108E108E108E108E108E108E108E10876
:10024000E108FC0AE108E108E108E108E108E10849
:10025000E108F70AE108E108E108E108E108E1083E
:10026000E1080B0BE108E108E108E108E108E10819
:10027000E108E108E108E108E108E108E108E10836
:10028000E108E108E108E108E108E108E108E10826
:10029000E108E108E108E108E108E108E108E10816
:1002A000E108060BE108E108E108E108E108E108DE
:1002B000E108E108E108E108E108E108E108E108F6
:1002C000E108010B8D0BE108830BE108880BE108C5
:1002D000790BE108E108E1087E0BE108830BE108F6
:1002E000920BE108E108E108E108E108E108E10812
:1002F000740BE108E108E108790BE108E108E10885
:100300009C0BE108E108E108E108E108E108E108E7
:10031000E108E108E108E108E108E108E108E10895
:10032000970BE108E108E108E108E108E108E108CC
:10033000920BE108E108E108E108E108E108E108C1
:10034000A60BE108E108E108E108E108E108E1089D
:10035000E108E108E108E108E108E108E108E10855
:10036000E108E108E108E108E108E108E108E10845
:10037000E108E108E108E108E108E108E108E10835
:10038000A10BE108E108E108E108E108E108E10862
:10039000E108E108E108E108E108E108E108E10815
:1003A0009C0B8B0CE108810CE108860CE108770CB2
:1003B000E108E108E1087C0CE108810CE108900CFF
:1003C000E108E108E108E108E108E108E108720C50
:1003D000E108E108E108770CE108E108E1089A0C7E
:1003E000E108E108E108E108E108E108E108E108C5
:1003F000E108E108E108E108E108E108E108950CFD
:10040000E108E108E108E108E108E108E108900CF1
:10041000E108E108E108E108E108E108E108A40CCD
:10042000E108E108E108E108E108E108E108E10884
:10043000E108E108E108E108E108E108E108E10874
:10044000E108E108E108E108E108E108E108E10864
:10045000E108E108E108E108E108E108E1089F0C92
:10046000E108E108E108E108E108E108E108E10844
:10047000E108E108E108E108E108E108E1089A0C77
:10048000680DE1085E0DE108630DE108540DE10817
:10049000E108E108590DE1085E0DE1086D0DE10884
:1004A000E108E108E108E108E108E1084F0DE10891
:1004B000E108E108540DE108E108E108770DE108E1
:1004C000E108E108E108E108E108E108E108E108E4
:1004D000E108E108E108E108E108E108720DE1083E
:1004E000E108E108E108E108E108E1086D0DE10833
:1004F000E108E108E108E108E108E108810DE1080F
:10050000E108E108E108E108E108E108E108E108A3
:10051000E108E108E108E108E108E108E108E10893
:10052000E108E108E108E108E108E108E108E10883
:10053000E108E108E108E108E108E1087C0DE108D3
:10054000E108E108E108E108E108E108E108E10863
:10055000E108E108E108E108E108E108770D540E3F
:10056000710E4A0E710E4F0E710E400E710E710E0D
:10057000710E450E710E4A0E710E590E710E710EEE
:10058000710E710E710E710E710E3B0E710E710EA9
:10059000710E400E710E710E710E630E710E710EA2
:1005A000710E710E710E710E710E710E710E710E53
:1005B000710E710E710E710E710E5E0E710E710E56
:1005C000710E710E710E710E710E590E710E710E4B
:1005D000710E710E710E710E710E6D0E710E710E27
:1005E000710E710E710E710E710E710E710E710E13
:1005F000710E710E710E710E710E710E710E710E03
:10060000710E710E710E710E710E710E710E710EF2
:10061000710E710E710E710E710E680E710E710EEB
:10062000710E710E710E710E710E710E710E710ED2
:10063000710E710E710E710E710E630E11241FBEBC
:10064000CFE5D4E0DEBFCDBF10E0A0E6B0E0E0E152
:10065000F2E202C005900D92A436B107D9F720E06E
:10066000A4E6B0E001C01D92A43BB207E1F70E94EE
:1006700098080C9406110C940000982F86B38E7085
:100680008E3081F02FEF37EE83E0215030408040F4
:10069000E1F700C0000026B3292B81E0921719F082
:1006A00080E0089580E0089583B380958770089571
:1006B00083B380958870089580917B008F5F8093CD
:1006C0007B00843108F4CBC080917C0090917D0048
:1006D00099238CF48091750090917600A091770019
:1006E000B09178008093710090937200A093730092
:1006F000B09374009FC09C01992314F42F5F3F4F67
:10070000A901559547952091790030917A002417D9
:100710003507BCF42AE939E949E95EE360917500DF
:100720007091760080917700909178000E94870EFA
:1007300060937100709372008093730090937400C3
:100740005EC028173907BCF42DEC3CEC4CEC5DE3A3
:10075000609175007091760080917700909178009B
:100760000E94870E609371007093720080937300F3
:100770009093740044C082179307BCF423E333E3DF
:1007800043EB5EE360917500709176008091770095
:10079000909178000E94860E6093710070937200B1
:1007A00080937300909374002AC042175307BCF4DF
:1007B00020E030E040E85EE36091750070917600E3
:1007C00080917700909178000E94860E609371006E
:1007D00070937200809373009093740010C08091A6
:1007E000750090917600A0917700B0917800809389
:1007F000710090937200A0937300B093740020E096
:1008000030E0A901609171007091720080917300D5
:10081000909174000E94EB0E181664F08DEC9CEC25
:10082000ACECBDE38093710090937200A0937300D1
:10083000B09374008091790090917A0020916100CA
:10084000AC01421B510950936C0040936B008093A4
:10085000610010927A001092790010927B00089546
:1008600083382FEF920714F483E89FEF8E379105BA
:1008700014F08DE790E0880F991F880F991F209141
:10088000620030916300820F931F9BBD8ABD089563
:100890008F929F92AF92BF92CF92DF92EF92FF9290
:1008A0000F931F93CF93DF938B01809071009090F3
:1008B0007200A0907300B0907400BC01882777FD8F
:1008C0008095982F0E948A0FA50194010E943E10E6
:1008D0000E94570F6B017C01EB01B801882777FD5F
:1008E0008095982F0E948A0F9B01AC01C501B4012D
:1008F0000E943E100E94570F9B01DD235CF0909AEE
:100900009198E8ECEC9DA001ED9D500D112459BD8E
:1009100048BD0BC09098919AE8E3EC9DA001ED9D35
:10092000500D5C19112459BD48BD33237CF0939AB6
:1009300096984FEF469F9001479F300D1124C901B3
:1009400064E670E00E94A11063BD0FC09398969A70
:1009500041E0469F9001479F300D361B1124C9018D
:1009600064E670E00E94A11063BDDF91CF911F91FA
:100970000F91FF90EF90DF90CF90BF90AF909F903E
:100980008F9008958FB9779BFECF08950F931F9393
:10099000CF93DF93AC019C01ADECBCEC0E94BB108B
:1009A0009695879596958795969587959C01220FA4
:1009B000331F880F991F880F991F880F991F820F67
:1009C000931F9A01281B390BC901806880937F000F
:1009D0009A013695279536952795ABE7B4E10E94A5
:1009E000BB109695879564E6689F9001699F300DCE
:1009F0001124CA01821B930B9C01ADECBCEC0E943C
:100A0000BB10FC01F695E795F695E795F695E79509
:100A10001E2FEA01D695C795D695C795D695C79549
:100A20009E01A5ECB0E20E94BB10929582958F705A
:100A300089279F70892768EE73E0869F9001879FC2
:100A4000300D969F300D1124421B530B9A013695A1
:100A5000279536952795ABE7B4E10E94BB10AC0112
:100A600056954795042F9E01A5ECB0E20E94BB105D
:100A7000929582958F7089279F708927882311F01E
:100A800020E101C020E0822B80938200811115C0FB
:100A900001110CC00CC0112311F080E403C080E0F0
:100AA00001C080E4E82BE09380000CC080E2482B7A
:100AB00040938100442379F3F4CF40624093810056
:100AC00080E4F0CFDF91CF911F910F910895CF93E4
:100AD000EEE7F0E0908181E0890F8083943019F493
:100AE00010927E0008C0813049F028F0823049F031
:100AF000833051F00CC0C09182000AC0C0918100C7
:100B000007C0C091800004C0C0917F0001C0C0E058
:100B10008091830080950E94C2048C2F0E94C204A1
:100B2000C49AC498CF910895EF92FF920F931F93A8
:100B3000CF93DF930F2EF4E9EF2EF0E0FF2EF02D90
:100B400004E810E0C0E0D0E0E199FECFCE010E94C1
:100B5000DE10F701819391937F01E199FECFCE01E1
:100B600040960E94DE10F801819391938F012296A6
:100B7000C031D10549F7C4EAD0E044EA50E0A4E826
:100B8000B0E0E4E9F0E0819191912D913D91820FE7
:100B9000931F9695879589939993E417F50799F78D
:100BA000DF91CF911F910F91FF90EF900895EF92F9
:100BB000FF920F931F93CF93DF930F2EF4E8EF2E46
:100BC000F0E0FF2EF02D04E910E0C0E0D0E0E19964
:100BD000FECFF801619171918F01CE010E94E41066
:100BE000E199FECFF701619171917F01CE014096AD
:100BF0000E94E4102296C031D10549F7DF91CF91D0
:100C00001F910F91FF90EF900895806487B9369AF5
:100C1000349BFECF84B195B10895DF92EF92FF929D
:100C20000F931F93CF93DF9304EA10E0C0E0D0E06E
:100C3000D12CEE24E394F12C8C2F0E940506F801B0
:100C4000219131918F018217930740F497010C2E67
:100C500002C0220F331F0A94E2F7D22A2196C8302D
:100C6000D10551F7D09283008D2DDF91CF911F9147
:100C70000F91FF90EF90DF9008958F929F92AF9227
:100C8000BF92CF92DF92EF92FF920F931F93CF9379
:100C9000DF93C4E9D0E004E810E00F2EF4EAEF2E71
:100CA000F0E0FF2EF02DD801FE0180E094E081936A
:100CB00091931D921D92EE15FF05C9F78EE797E1FE
:100CC0000E94C604B02EA12E9C2E8D2EC12C87EF23
:100CD0000E943D0381111FC00B2D1A2DC92DD82D47
:100CE000DC2C8D2D0E9405062881398182179307FF
:100CF00010F499838883F8012081318128173907FE
:100D000010F491838083D39422960E5F1F4FF8E0F6
:100D1000DF12E7CFDCCFC4EAD0E0A4E8B0E0E4E93A
:100D2000F0E0819191912D913D91820F931F9695C5
:100D3000879589939993EE15FF0599F70E94D7053A
:100D400010E0F12CC3E8D0E001E08DEF0E943D03FC
:100D5000882321F01F5F183008F01F2D8BEF0E94B1
:100D60003D038111115087EF0E943D03811112C094
:100D7000E12FF0E0EE0FFF1FEC55FF4F80819181D6
:100D80000E94C604802F012E01C0880F0A94EAF742
:100D90008883DBCFDF91CF911F910F91FF90EF9070
:100DA000DF90CF90BF90AF909F908F90089580E498
:100DB00087B987E886B90E94940581EF87BB8FEFDA
:100DC00088BB14BA85BB8BEF81BB12BA80E58DB9A5
:100DD00081E08EB98CE083BF8EE38CBF82E089BF57
:100DE00082EA8FBD8AE18EBD80E29EE497BD86BD1A
:100DF00019BC18BC8FE685BD13BC789485B7836099
:100E000085BF8BB780648BBF83E190E090937D00BA
:100E100080937C00089510E0F12CC3E8D0E001E05D
:100E20008DEF0E943D03882359F06CE97FEF84E643
:100E300090E00E94480483E89FEF0E94300425C0A0
:100E40008BEF0E943D03882321F01F5F1830E9F4E7
:100E50001BC087EF0E943D03882359F064E670E0D1
:100E60008CE99FEF0E9448048DE790E00E943004D7
:100E70000CC060E070E080E090E00E94480480E0F8
:100E800090E00E94300401C01F2D812F0E940506B2
:100E90000E94C604802F012E01C0880F0A94EAF731
:100EA0008883BECFCF93DF93C0E0D0E0CE01DD23B7
:100EB00024F4882799278C1B9D0B0E94C6040E944E
:100EC0000D06CE010E9430048DEF0E943D0381117A
:100ED00021978BEF0E943D03811107C087EF0E948D
:100EE0003D03882319F32196E1CFCC0FDD1FCC0FF2
:100EF000DD1F8091620090916300C80FD91FD093CD
:100F00006300C0936200DF91CF91089580E090E08C
:100F10000E94300460E070E080E090E00E944804AD
:100F20008FEF9FEF90937D0080937C000E9454038D
:100F3000682F70E080E090E00E948A0F20E030E0AF
:100F400040EA51E40E94EF0E2AE939E949E95EE3FB
:100F50000E94870E609375007093760080937700EF
:100F60009093780060937100709372008093730087
:100F70009093740020E030E048EC52E40E943E1070
:100F80000E945C0FCB010E94C60420E030E040E9E3
:100F90005FE3609171007091720080917300909195
:100FA00074000E943E109B01AC0163E373E383EB8A
:100FB0009FE30E94860E60936D0070936E00809395
:100FC0006F00909370000E940D068DEF0E943D030C
:100FD00081110FC08BEF0E943D0381110E940B070E
:100FE00087EF0E943D03882309F4A0CF0E943D06AD
:100FF0009DCF08951F920F920FB60F9211242F9339
:101000003F934F935F936F937F938F939F93AF9390
:10101000BF93EF93FF930E9467050E945C0380914A
:101020006800909169000196909369008093680030
:10103000FF91EF91BF91AF919F918F917F916F91B0
:101040005F914F913F912F910F900FBE0F901F9086
:1010500018951F920F920FB60F9211248F939F93A2
:10106000809166009091670001969093670080934D
:1010700066008091790090917A00019690937A00B1
:1010800080937900809160008A3051F480916400EF
:10109000909165000196909365008093640004C070
:1010A00010926500109264009F918F910F900FBE77
:1010B0000F901F9018950E940D0680936A008F3F35
:1010C00039F08E7791E08E3709F090E0892F0895FE
:1010D00081E008950E940D0680936A00982F9F700A
:1010E0009F3059F0982F9F719F3149F0982F97703A
:1010F00081E0973029F080E0089581E0089581E053
:1011000008950E940D0680936A00982F907F903F6B
:1011100059F0982F987F983F49F0982F907E81E062
:10112000903E29F080E0089581E0089581E00895DF
:101130000E94D7060E9486078FE090E090937D0082
:1011400080937C000E945803882319F00E94520764
:1011500016C00E940D0680916600909167000E9463
:10116000C6048DEF0E943D03882321F01092670092
:10117000109266008BEF0E943D03882351F38AE0B2
:10118000809360000F2EFAE09F2EF02D0CE010E00F
:10119000AA24AA94BA2C0F2EFFE36F2EF02DCAE0DA
:1011A000D0E00F2EF5E18F2EF02D0F2EF5E37F2EE0
:1011B000F02D6894332435F80F2EF6E04F2E512C85
:1011C000F02D8091600090E0FC013A97EA35F1053E
:1011D00008F095C5E65DFF4F0C94B510CE010E9456
:1011E000C60410937D0000937C000E945B08882356
:1011F00019F080926000E5CF0E948108882361F099
:1012000083E380936000109269001092680010924E
:10121000670010926600D5CF0E946A08882361F0AB
:101220008DE3809360001092690010926800109224
:10123000670010926600C5CF809161008B3040F04E
:101240008091640090916500853F914008F05AC5F7
:101250000E940D068E7790E0FC013297EF36F10583
:1012600008F0AFCFEC57FF4F0C94B51080E090E042
:101270000E94300464E670E084E690E00E94480436
:10128000A0CF64E670E084E690E00E9448048EE01F
:1012900090E00E94300495CF64E670E084E690E030
:1012A0000E94480489E190E00E9430048ACF65E5FD
:1012B00070E084E690E00E94480484E290E00E949E
:1012C00030047FCF60E570E084E690E00E9448043F
:1012D00087E390E00E94300474CF66E470E084E617
:1012E00090E00E94480480E590E00E9430048BE08A
:1012F0008093600066CF64E670E084E690E00E9430
:10130000480482EF9FEF0E9430045BCF64E670E0F8
:1013100084E690E00E94480487EE9FEF0E9430042C
:1013200050CF64E670E085E590E00E9448048CEDC3
:101330009FEF0E94300445CF64E670E080E590E0C6
:101340000E94480489EC9FEF0E9430043ACF64E683
:1013500070E086E490E00E94480480EB9FEF0E94DA
:1013600030048CE0809360002CCF8BE090E00E94F2
:10137000C6040E940D068C7C8C3009F44BC028F406
:10138000882349F18430B9F15AC08038A9F0803CF3
:1013900021F0803609F053C04EC050927D0040923B
:1013A0007C0066EF7FEF80E590E00E94480486E9CC
:1013B00090E00E94300405CF50927D0040927C0066
:1013C00065E070E080E590E00E94480482E890E0EB
:1013D0000E943004F6CE88E090E090937D008093E8
:1013E0007C00BE0180E590E00E9448048FE590E01B
:1013F0000E943004E6CED0937D00C0937C006FE065
:1014000070E080E590E00E94480486E490E00E944D
:101410003004D7CE64E170E080E590E00E9448049B
:101420008CE390E00E94300490926000B0927D00C6
:10143000A0927C00C6CE8CE080936000C2CE8BE090
:1014400080936000BECEC8010E94C604D0937D0088
:10145000C0937C000E940D068373833079F028F4DA
:10146000882351F18130C9F05BC08032A9F180330B
:1014700009F441C0863009F053C04EC050927D003F
:1014800040927C0060E570E086EF9FEF0E94480488
:101490008AE69FEF0E94300494CE50927D004092E5
:1014A0007C0060E570E085E090E00E9448048EE7F3
:1014B0009FEF0E94300485CE88E090E090937D00FD
:1014C00080937C0060E570E0CE010E94480481EAD0
:1014D0009FEF0E94300475CED0937D00C0937C00B6
:1014E00060E570E08FE090E00E9448048AEB9FEF97
:1014F0000E94300466CE60E570E084E190E00E94D6
:10150000480484EC9FEF0E94300490926000B092F7
:101510007D00A0927C0055CE8BE08093600051CE80
:101520008CE0809360004DCE85E190E00E94C6047F
:1015300080E090E00E94300468ED7FEF88ED9FEF3F
:101540000E9448041092690010926800109267008F
:101550001092660086E18093600033CE86E190E0D1
:101560000E94C604809161008430A8F4D0937D006D
:10157000C0937C0066E470E086E490E00E9448043A
:1015800087E18093600010926900109268001092C9
:101590006700109266000E940D068E7790E0FC01B5
:1015A0003297EF36F10508F00CCEED50FF4F0C945A
:1015B000B51080E090E00E94300403CE8EE090E011
:1015C0000E943004FECD86E190E00E943004F9CD07
:1015D00084E290E00E943004F4CD87E390E00E9422
:1015E0003004EFCD80E590E00E943004EACD82EF38
:1015F0009FEF0E943004E5CD8AEE9FEF0E943004F9
:10160000E0CD8CED9FEF0E943004DBCD89EC9FEFA5
:101610000E943004D6CD80EB9FEF0E943004D1CDE4
:1016200087E190E00E94C6040E940D0680936A0044
:1016300020916600309167002630310580F1982FA7
:10164000987F983F41F0982F907F903F21F0982FFE
:10165000907E903E61F4B0927D00A0927C008AE181
:10166000809360001092690010926800AACD982FB4
:101670009F719F3141F0982F9770973021F0982FEC
:101680009F709F3061F4B0927D00A0927C008BE14E
:1016900080936000109269001092680092CD8E775E
:1016A000A9F489E48093600080E090E00E94300417
:1016B00064E670E084E690E00E94480410926900BD
:1016C0001092680010926700109266000E940D064A
:1016D0008E7790E0FC013297EF36F10508F071CD7E
:1016E000EE59FE4F0C94B51080E090E00E9430045B
:1016F00068CD8EE090E00E94300463CD86E190E0FA
:101700000E9430045ECD84E290E00E94300459CD06
:1017100087E390E00E94300454CD80E590E00E9481
:1017200030044FCD82EF9FEF0E9430044ACD8AEE05
:101730009FEF0E94300445CD8CED9FEF0E94300456
:1017400040CD89EC9FEF0E9430043BCD80EB9FEFB2
:101750000E94300436CD8AE190E00E94C60485E6FE
:101760009FEF0E94300460E570E080EB9FEF0E94E5
:1017700048048FE180936000109269001092680025
:1017800010926700109266001CCD8BE190E00E94E1
:10179000C6048BE990E00E94300460EB7FEF80E5A7
:1017A00090E00E94480489E28093600010926900F2
:1017B00010926800109267001092660002CD8FE1CF
:1017C00090E00E94C6048091680090916900893C75
:1017D000910508F4F6CC30926000109269001092E6
:1017E00068001092670010926600EBCC80E290E0F7
:1017F0000E94C6040E940D0680936A00877E803294
:1018000009F0DFCC90926000DCCC89E290E00E948D
:10181000C6048091680090916900893C910508F4A4
:10182000D0CC9AE290936000109269001092680008
:10183000C8CC8AE290E00E94C6040E940D06809304
:101840006A00877E843009F0BCCC90926000B9CCED
:1018500083E390E00E94C604D0937D00C0937C0097
:101860000E940D0680936A00982F9770973039F088
:10187000982F9F709F3019F08F718F3139F48092BB
:101880006000B0927D00A0927C009BCC62E370E08F
:1018900082E390E00E944804809166009091670086
:1018A000499738F4809168009091690088379105D4
:1018B00058F024E3209360001092690010926800B1
:1018C00010926700109266000E940D068E7790E0DD
:1018D000FC013297EF36F10508F073CCEF52FE4F62
:1018E0000C94B51080E090E00E9430046ACC8EE049
:1018F00090E00E94300465CC86E190E00E943004C4
:1019000060CC84E290E00E9430045BCC87E390E0FE
:101910000E94300456CC80E590E00E94300451CC07
:1019200082EF9FEF0E9430044CCC8AEE9FEF0E9422
:10193000300447CC8CED9FEF0E94300442CC89EC00
:101940009FEF0E9430043DCC80EB9FEF0E9430045B
:1019500038CC84E390E00E94C60482EE9FEF0E94A0
:10196000300462E370E083E290E00E9448047092E9
:101970006000109269001092680010926700109247
:1019800066001FCC85E390E00E94C6040E940D060D
:10199000282E80936A0080916600909167008536BA
:1019A000910508F5609168007091690080E090E011
:1019B0000E94880F6B017C0120E030E048E453E492
:1019C00060916D0070916E0080916F009091700039
:1019D0000E943E109B01AC01C701B6010E943A1063
:1019E00018160CF0EECB822D8073803309F0E9CB12
:1019F00090926000B0927D00A0927C0088E290E01E
:101A00000E94300466E470E084E690E00E9448049E
:101A1000D8CB8DE390E00E94C604D0937D00C093A4
:101A20007C000E940D0680936A00982F907E903E65
:101A300019F0887F883F39F480926000B0927D0071
:101A4000A0927C00BECB62E370E082E390E00E9453
:101A500048048091660090916700499738F480911E
:101A60006800909169008837910558F08EE3809363
:101A70006000109269001092680010926700109246
:101A800066000E940D068E7790E0FC013297EF36DB
:101A9000F10508F096CBE05CFD4F0C94B51080E0AA
:101AA00090E00E9430048DCB8EE090E00E943004E4
:101AB00088CB86E190E00E94300483CB84E290E002
:101AC0000E9430047ECB87E390E00E94300479CB03
:101AD00080E590E00E94300474CB82EF9FEF0E947B
:101AE00030046FCB8AEE9FEF0E9430046ACB8CEDFE
:101AF0009FEF0E94300465CB89EC9FEF0E94300479
:101B000060CB80EB9FEF0E9430045BCB8EE390E0D4
:101B10000E94C60483E290E00E94300463E270E019
:101B200082E390E00E944804609260001092690095
:101B300010926800109267001092660042CB8FE30B
:101B400090E00E94C6040E940D06282E80936A0031
:101B500080916600909167008536910508F5609147
:101B600068007091690080E090E00E94880F6B012E
:101B70007C0120E030E048E453E460916D00709116
:101B80006E0080916F00909170000E943E109B014A
:101B9000AC01C701B6010E943A1018160CF011CB27
:101BA000822D8073803309F00CCB90926000B0924C
:101BB0007D00A0927C0088ED9FEF0E94300464E6D7
:101BC00070E086E490E00E944804FBCA89E490E05B
:101BD0000E94C60410937D0000937C006CE370E0CB
:101BE0008CE390E00E9448040E940D0680936A00F6
:101BF000807C803C21F488E290E00E943004809157
:101C00006A00882324F48EE190E00E9430048091E1
:101C10006A008370833021F488ED9FEF0E943004C6
:101C200080916A0080FF04C082EE9FEF0E94300422
:101C300080916A008C7309F4C4CA90926000B092DB
:101C40007D00A0927C00BDCA83E690E00E94C6049D
:101C50006EEC7FEF8EEC9FEF0E9448040E940D0611
:101C60008E7790E0FC013297EF36F105D0F5E15523
:101C7000FD4F0C94B51080E090E00E94300431C01C
:101C80008EE090E00E9430042CC086E190E00E943B
:101C9000300427C084E290E00E94300422C087E331
:101CA00090E00E9430041DC080E590E00E94300466
:101CB00018C082EF9FEF0E94300413C08AEE9FEF9E
:101CC0000E9430040EC08CED9FEF0E94300409C0CA
:101CD00089EC9FEF0E94300404C080EB9FEF0E94CC
:101CE000300480916100843008F06BCA66E470E0D3
:101CF00086E490E00E9448049092600062CA90924C
:101D000060005FCA83E680936000A2CA5058BB2778
:101D1000AA270ED075C166D130F06BD120F031F416
:101D20009F3F11F41EF45BC10EF4E095E7FB51C137
:101D3000E92F77D180F3BA176207730784079507F5
:101D400018F071F49EF58FC10EF4E0950B2EBA2FAA
:101D5000A02D0B01B90190010C01CA01A0011124B1
:101D6000FF27591B99F0593F50F4503E68F11A165D
:101D7000F040A22F232F342F4427585FF3CF4695EE
:101D800037952795A795F0405395C9F77EF41F1610
:101D9000BA0B620B730B840BBAF09150A1F0FF0FDA
:101DA000BB1F661F771F881FC2F70EC0BA0F621FC6
:101DB000731F841F48F4879577956795B795F795B6
:101DC0009E3F08F0B3CF9395880F08F09927EE0F48
:101DD000979587950895D9D008F481E008950CD09F
:101DE0000FC107D140F0FED030F021F45F3F19F071
:101DF000F0C0511139C1F3C014D198F39923C9F33C
:101E00005523B1F3951B550BBB27AA276217730700
:101E1000840738F09F5F5F4F220F331F441FAA1FB4
:101E2000A9F333D00E2E3AF0E0E830D09150504074
:101E3000E695001CCAF729D0FE2F27D0660F771F22
:101E4000881FBB1F261737074807AB07B0E809F004
:101E5000BB0B802DBF01FF2793585F4F2AF09E3F99
:101E6000510568F0B6C000C15F3FECF3983EDCF36B
:101E7000869577956795B795F7959F5FC9F7880F12
:101E8000911D9695879597F90895E1E0660F771F64
:101E9000881FBB1F621773078407BA0720F0621BF5
:101EA000730B840BBA0BEE1F88F7E095089504D0EE
:101EB0006894B111D9C00895BCD088F09F5790F0B4
:101EC000B92F9927B751A0F0D1F0660F771F881F5F
:101ED000991F1AF0BA95C9F712C0B13081F0C3D07A
:101EE000B1E00895C0C0672F782F8827B85F39F018
:101EF000B93FCCF3869577956795B395D9F73EF4BE
:101F000090958095709561957F4F8F4F9F4F089565
:101F1000E89409C097FB3EF4909580957095619583
:101F20007F4F8F4F9F4F9923A9F0F92F96E9BB2739
:101F30009395F695879577956795B795F111F8CFB5
:101F4000FAF4BB0F11F460FF1BC06F5F7F4F8F4F20
:101F50009F4F16C0882311F096E911C0772321F016
:101F60009EE8872F762F05C0662371F096E8862FAE
:101F700070E060E02AF09A95660F771F881FDAF705
:101F8000880F9695879597F90895990F0008550F32
:101F9000AA0BE0E8FEEF16161706E807F907C0F0EF
:101FA00012161306E407F50798F0621B730B840BF7
:101FB000950B39F40A2661F0232B242B252B21F4D1
:101FC00008950A2609F4A140A6958FEF811D811D71
:101FD000089597F99F6780E870E060E008959FEFAB
:101FE00080EC089500240A941616170618060906B0
:101FF000089500240A94121613061406050608957F
:10200000092E0394000C11F4882352F0BB0F40F406
:10201000BF2B11F460FF04C06F5F7F4F8F4F9F4F46
:10202000089557FD9058440F551F59F05F3F71F0C8
:102030004795880F97FB991F61F09F3F79F087952F
:102040000895121613061406551FF2CF4695F1DFB8
:1020500008C0161617061806991FF1CF8695710548
:10206000610508940895E894BB2766277727CB017C
:1020700097F908958ADF08F48FEF08950BD0C0CF49
:10208000B1DF28F0B6DF18F0952309F0A2CFA7CF73
:102090001124EACFC6DFA0F3959FD1F3950F50E04E
:1020A000551F629FF001729FBB27F00DB11D639F0A
:1020B000AA27F00DB11DAA1F649F6627B00DA11DB0
:1020C000661F829F2227B00DA11D621F739FB00D56
:1020D000A11D621F839FA00D611D221F749F3327C6
:1020E000A00D611D231F849F600D211D822F762F5F
:1020F0006A2F11249F5750408AF0E1F088234AF05C
:10210000EE0FFF1FBB1F661F771F881F91505040A7
:10211000A9F79E3F510570F05CCFA6CF5F3FECF36F
:10212000983EDCF3869577956795B795F795E79593
:102130009F5FC1F7FE2B880F911D9695879597F9A4
:10214000089597FB072E16F4009407D077FD09D069
:102150000E94CA1007FC05D03EF4909581959F4FD0
:102160000895709561957F4F0895EE0FFF1F0590BC
:10217000F491E02D0994A29FB001B39FC001A39FE9
:10218000700D811D1124911DB29F700D811D1124B0
:10219000911D0895AA1BBB1B51E107C0AA1FBB1FBD
:1021A000A617B70710F0A61BB70B881F991F5A95E3
:1021B000A9F780959095BC01CD010895A8E1B0E004
:1021C00042E050E00C94EB100E94F910272F0C9481
:1021D000FA10DC01CB01FC01E199FECF06C0FFBB88
:1021E000EEBBE09A31960DB20D9241505040B8F7D7
:1021F0000895262FE199FECF9FBB8EBB2DBB0FB656
:10220000F894E29AE19A0FBE01960895F894FFCFF0
:042210000AFFB80BFE
:00000001FF
