S00E0000476F6C64656E2E73726563BD
S11300000C94B7010C943D060C94D4010C94D401C7
S11300100C94D4010C94D4010C94D4010C94D40108
S11300200C94D4010C94D4010C94D4010C94D401F8
S11300300C94D4010C94D4010C94D4010C94D401E8
S11300400C94D4010C94D4010C94D4010C940E0699
S11300500C94D401DD069507F507220B220B220B25
S1130060220B220B220B220B220B54086E08CC0805
S1130070220B220B5F097809220B220B220B910918
S1130080A809220B220B220B220B220B220B220B80
S1130090220BB709CA09220B220B220B220B220BBB
S11300A0220B220B220BD9090F0A280A220B220B3E
S11300B0220B220B220B220B220B610A920AAB0A9F
S11300C0220B220B220B220B220B220B220B220BC4
S11300D0220BE40A4D07D0063707D0064207D006A4
S11300E02107D006D006D0062C07D0063707D00645
S11300F05B07D006D006D006D006D006D006D006C0
S11301001607D006D006D0062107D006D006D006A2
S11301107107D006D006D006D006D006D006D00689
S1130120D006D006D006D006D006D006D006D0061B
S11301306607D006D006D006D006D006D006D00674
S11301405B07D006D006D006D006D006D006D0066F
S11301508707D006D006D006D006D006D006D00633
S1130160D006D006D006D006D006D006D006D006DB
S1130170D006D006D006D006D006D006D006D006CB
S1130180D006D006D006D006D006D006D006D006BB
S11301907C07D006D006D006D006D006D006D006FE
S11301A0D006D006D006D006D006D006D006D0069B
S11301B07107AE08D006A408D006A908D0069A088C
S11301C0D006D006D0069F08D006A408D006B308EF
S11301D0D006D006D006D006D006D006D0069508A4
S11301E0D006D006D0069A08D006D006D006BD08A0
S11301F0D006D006D006D006D006D006D006D0064B
S1130200D006D006D006D006D006D006D006B80850
S1130210D006D006D006D006D006D006D006B30845
S1130220D006D006D006D006D006D006D006C70821
S1130230D006D006D006D006D006D006D006D0060A
S1130240D006D006D006D006D006D006D006D006FA
S1130250D006D006D006D006D006D006D006D006EA
S1130260D006D006D006D006D006D006D006C208E6
S1130270D006D006D006D006D006D006D006D006CA
S1130280D006D006D006D006D006D006D006BD08CB
S11302904109D0063709D0063C09D0062D09D006FD
S11302A0D006D0063209D0063709D0064609D00652
S11302B0D006D006D006D006D006D0062809D0062F
S11302C0D006D0062D09D006D006D0065009D00697
S11302D0D006D006D006D006D006D006D006D0066A
S11302E0D006D006D006D006D006D0064B09D006DC
S11302F0D006D006D006D006D006D0064609D006D1
S1130300D006D006D006D006D006D0065A09D006AC
S1130310D006D006D006D006D006D006D006D00629
S1130320D006D006D006D006D006D006D006D00619
S1130330D006D006D006D006D006D006D006D00609
S1130340D006D006D006D006D006D0065509D00671
S1130350D006D006D006D006D006D006D006D006E9
S1130360D006D006D006D006D006D00650091124F7
S11303701FBECFE5D4E0DEBFCDBF10E0A0E6B0E005
S1130380EEE4FBE102C005900D92A236B107D9F765
S113039020E0A2E6B0E001C01D92A13BB207E1F764
S11303A00E948E060C94A50D0C940000982F86B321
S11303B08E708E3081F02FEF37EE83E02150304085
S11303C08040E1F700C0000026B3292B81E092179A
S11303D019F080E0089580E0089583B380958F70CC
S11303E00895809178008F5F80937800843108F4B9
S11303F0A1C08091790090917A0099238CF4809126
S1130400720090917300A0917400B0917500809374
S11304106E0090936F00A0937000B09371006AC057
S11304202091760030917700AC01992314F44F5F4A
S11304305F4F5595479524173507BCF420E030E00D
S113044040E85EE3609172007091730080917400E3
S1130450909175000E94260B60936E0070936F005C
S113046080937000909371002AC082179307BCF4A4
S11304702AE939E949E95EE36091720070917300F9
S113048080917400909175000E94250B60936E001A
S113049070936F00809370009093710010C08091EE
S11304A0720090917300A0917400B09175008093D4
S11304B06E0090936F00A0937000B093710020E0E1
S11304C030E0A90160916E0070916F00809170001E
S11304D0909171000E948A0B181664F08DEC9CECCC
S11304E0ACECBDE380936E0090936F00A09370001A
S11304F0B093710080917600909177002091610013
S1130500AC01421B510950936800409367001416D4
S1130510150634F4209169002F5F2093690002C00E
S11305201092690080936100109277001092760017
S113053010927800089583382FEF920714F483E81B
S11305409FEF8E37910514F08DE790E0895F9C4F03
S1130550880F991F880F991F9BBD8ABD08958F929C
S11305609F92AF92BF92CF92DF92EF92FF920F933E
S11305701F93CF93DF938B0180906E0090906F0058
S1130580A0907000B0907100BC01882777FD809521
S1130590982F0E94290CA50194010E94DD0C0E9451
S11305A0F60B6B017C01EB01B801882777FD809580
S11305B0982F0E94290C9B01AC01C501B4010E9433
S11305C0DD0C0E94F60B9B01DD235CF0909A919860
S11305D0E8ECEC9DA001ED9D500D112459BD48BDE2
S11305E00BC09098919AE8E3EC9DA001ED9D500D0D
S11305F05C19112459BD48BD33237CF0939A969815
S11306004FEF469F9001479F300D1124C90164E6C6
S113061070E00E94400D63BD0FC09398969A41E02C
S1130620469F9001479F300D361B1124C90164E693
S113063070E00E94400D63BDDF91CF911F910F9137
S1130640FF90EF90DF90CF90BF90AF909F908F90EE
S113065008958FB9779BFECF08950F931F93CF937F
S1130660DF93AC019C01ADECBCEC0E945A0D969555
S1130670879596958795969587959C01220F331FAC
S1130680880F991F880F991F880F991F820F931F36
S11306909A01281B390BC901806880937C009A0158
S11306A03695279536952795ABE7B4E10E945A0D08
S11306B09695879564E6689F9001699F300D112493
S11306C0CA01821B930B9C01ADECBCEC0E945A0D39
S11306D0FC01F695E795F695E795F695E7951E2FB7
S11306E0EA01D695C795D695C795D695C7959E0127
S11306F0A5ECB0E20E945A0D929582958F708927DD
S11307009F70892768EE73E0869F9001879F300D64
S1130710969F300D1124421B530B9A013695279551
S113072036952795ABE7B4E10E945A0DAC01569576
S11307304795042F9E01A5ECB0E20E945A0D9295B4
S113074082958F7089279F708927882311F020E173
S113075001C020E0822B80937F00811115C001111C
S11307600CC00CC0112311F080E403C080E001C070
S113077080E4E82BE0937D000CC080E2482B40939A
S11307807E00442379F3F4CF406240937E0080E4FA
S1130790F0CFDF91CF911F910F910895CF93EBE7A5
S11307A0F0E0908181E0890F8083943019F41092F5
S11307B07B0008C0813049F028F0823049F0833052
S11307C051F00CC0C0917F000AC0C0917E0007C0E8
S11307D0C0917D0004C0C0917C0001C0C0E0809144
S11307E0800080950E9429038C2F0E942903C49ABB
S11307F0C498CF910895EF92FF920F931F93CF93D4
S1130800DF930F2EF1E9EF2EF0E0FF2EF02D01E83B
S113081010E0C0E0D0E0E199FECFCE010E947D0D52
S1130820F701819391937F01E199FECFCE01409628
S11308300E947D0DF801819391938F012296C0311E
S1130840D10549F7C1EAD0E041EA50E0A1E8B0E0BF
S1130850E1E9F0E0819191912D913D91820F931FF7
S11308609695879589939993E417F50799F7DF91FE
S1130870CF911F910F91FF90EF900895EF92FF9207
S11308800F931F93CF93DF930F2EF1E8EF2EF0E039
S1130890FF2EF02D01E910E0C0E0D0E0E199FECF99
S11308A0F801619171918F01CE010E94830DE1994C
S11308B0FECFF701619171917F01CE0140960E94B4
S11308C0830D2296C031D10549F7DF91CF911F9155
S11308D00F91FF90EF900895806487B9369A349B06
S11308E0FECF84B195B10895DF92EF92FF920F93FA
S11308F01F93CF93DF9301EA10E0C0E0D0E0D12C46
S1130900EE24E394F12C8C2F0E946C04F8012191C5
S113091031918F018217930740F497010C2E02C086
S1130920220F331F0A94E2F7D22A2196C830D10548
S113093051F7D09280008D2DDF91CF911F910F91AF
S1130940FF90EF90DF9008958F929F92AF92BF92A5
S1130950CF92DF92EF92FF920F931F93CF93DF9387
S1130960C1E9D0E001E810E00F2EF1EAEF2EF0E04B
S1130970FF2EF02DD801FE0180E094E08193919345
S11309801D921D92EE15FF05C9F78EE797E10E94AF
S11309902D03B02EA12E9C2E8D2EC12C87EF0E94EC
S11309A0D60181111FC00B2D1A2DC92DD82DDC2C79
S11309B08D2D0E946C04288139818217930710F4CD
S11309C099838883F801208131812817390710F42D
S11309D091838083D39422960E5F1F4FF8E0DF1239
S11309E0E7CFDCCFC1EAD0E0A1E8B0E0E1E9F0E094
S11309F0819191912D913D91820F931F96958795A9
S1130A0089939993EE15FF0599F70E943E0410E02F
S1130A10F12CC0E8D0E001E08DEF0E94D6018823DC
S1130A2021F01F5F183008F01F2D8BEF0E94D601B4
S1130A308111115087EF0E94D601811112C0E12F5C
S1130A40F0E0EE0FFF1FEF55FF4F808191810E9470
S1130A502D03802F012E01C0880F0A94EAF78883A2
S1130A60DBCFDF91CF911F910F91FF90EF90DF903B
S1130A70CF90BF90AF909F908F90089580E487B9F6
S1130A8087E886B90E94FB0381EF87BB8FEF88BBA1
S1130A9014BA85BB8BEF81BB12BA80E58DB981E0B6
S1130AA08EB98CE083BF8EE38CBF82E089BF82EA7B
S1130AB08FBD8AE18EBD80E29EE497BD86BD19BCE0
S1130AC018BC8FE685BD13BC789485B7836085BF59
S1130AD08BB780648BBF83E190E090937A0080931E
S1130AE079000895CF93DF93C0E0D0E0CE01DD23F9
S1130AF024F4882799278C1B9D0B0E942D030E94A8
S1130B007404CE010E949B028DEF0E94D6018111D4
S1130B100CC08BEF0E94D6018111219787EF0E94B0
S1130B20D601882319F32196E1CFDF91CF9108955F
S1130B3080E090E00E949B0260E070E080E090E042
S1130B400E94AF028FEF9FEF90937A008093790019
S1130B500E94ED01682F70E080E090E00E94290C73
S1130B6020E030E040E251E40E948E0B2AE939E9AA
S1130B7049E15EE30E94260B609372007093730058
S1130B80809374009093750060936E0070936F006F
S1130B90809370009093710020E030E048EC52E4C0
S1130BA00E94DD0C0E94FB0BCB010E942D0320E070
S1130BB030E040E95FE360916E0070916F008091D6
S1130BC07000909171000E94DD0C9B01AC0163E305
S1130BD073E383EB9FE30E94250B60936A00709399
S1130BE06B0080936C0090936D000E9474048DEFF1
S1130BF00E94D601811111C08BEF0E94D601882377
S1130C0019F00E947205A4CF87EF0E94D6018823B1
S1130C1009F49ECF0E94A4049BCF08951F920F92C3
S1130C200FB60F9211242F933F934F935F936F93BB
S1130C307F938F939F93AF93BF93EF93FF930E9400
S1130C40CE030E94F10180916400909165000196A9
S1130C509093650080936400FF91EF91BF91AF91F1
S1130C609F918F917F916F915F914F913F912F91C0
S1130C700F900FBE0F901F9018951F920F920FB6F2
S1130C800F9211248F939F9380916200909163003F
S1130C900196909363008093620080917600909116
S1130CA07700019690937700809376009F918F91BF
S1130CB00F900FBE0F901F9018950E94740480939C
S1130CC066008F3F39F08E7791E08E3709F090E01F
S1130CD0892F089581E008950E947404809366002A
S1130CE0982F9F709F3039F08F7191E08F3109F008
S1130CF090E0892F089581E008950E947404809300
S1130D006600982F907F903F39F0887F91E0883F6C
S1130D1009F090E0892F089581E008950E943E052E
S1130D200E94980580916200909163000E942D03B7
S1130D308DEF0E94D601882321F010926300109257
S1130D4062008BEF0E94D601882361F38AE08093CE
S1130D5060000F2EFAE0BF2EF02DCCE0D0E00FEFB4
S1130D601FEF0F2EFFE36F2EF02D0F2EF5E1AF2EA8
S1130D70F02D0F2EFEE33F2EF02D0F2EF5E37F2EE8
S1130D80F02D0F2EFAE25F2EF02D6894442445F8DE
S1130D900F2EF9E28F2EF02D0F2EFFE19F2EF02D56
S1130DA08091600090E0FC013A97E034F10508F08E
S1130DB049C4E65DFF4F0C94540D8AE090E00E9414
S1130DC02D030E945D06882319F0A0926000E8CFED
S1130DD00E947D06882361F083E380936000109273
S1130DE06500109264001092630010926200D8CFE4
S1130DF00E946C06882361F08DE38093600010925A
S1130E006500109264001092630010926200C8CFD3
S1130E100E9474048E7790E0FC013297EF36F1055E
S1130E2008F0BECFE659FF4F0C94540D80E090E0DB
S1130E300E949B0264E670E084E690E00E94AF02A8
S1130E40AFCF64E670E084E690E00E94AF028EE0EB
S1130E5090E00E949B02A4CF64E670E084E690E0F8
S1130E600E94AF0289E190E00E949B0299CF65E560
S1130E7070E084E690E00E94AF0284E290E00E9479
S1130E809B028ECF60E570E084E690E00E94AF02A2
S1130E9087E390E00E949B0283CF66E470E084E6DF
S1130EA090E00E94AF0280E590E00E949B028BE0FC
S1130EB08093600075CF64E670E084E690E00E9461
S1130EC0AF0282EF9FEF0E949B026ACF64E670E05C
S1130ED084E690E00E94AF0287EE9FEF0E949B029F
S1130EE05FCF64E670E085E590E00E94AF028CED90
S1130EF09FEF0E949B0254CF64E670E080E590E08F
S1130F000E94AF0289EC9FEF0E949B0249CF64E6E6
S1130F1070E086E490E00E94AF0280EB9FEF0E94B5
S1130F209B028CE0809360003BCF8BE090E00E94BA
S1130F302D03D0937A00C09379000E9474048C7CB2
S1130F408C30D1F128F4882309F1843051F149C05F
S1130F50803889F0803C21F0803609F042C03DC0E1
S1130F6066EF7FEF80E590E00E94AF0288E790E0B3
S1130F700E949B0215CF65E070E080E590E00E943E
S1130F80AF0289E690E00E949B020ACF6AE070E01B
S1130F9080E590E00E94AF0283E590E00E949B020E
S1130FA0FFCE6FE070E080E590E00E94AF0281E444
S1130FB090E00E949B02F4CE64E170E080E590E052
S1130FC00E94AF0287E390E00E949B02B09260000F
S1130FD010937A0000937900E3CE8CE08093600054
S1130FE0DFCE8BE080936000DBCECE010E942D0328
S1130FF0D0937A00C09379000E9474048373833081
S113100071F028F4882309F18130A1F049C08032BD
S113101039F1803381F1863009F042C03DC060E58A
S113102070E086EF9FEF0E94AF0288E89FEF0E9476
S11310309B02B6CE60E570E085E090E00E94AF02CE
S113104087E99FEF0E949B02ABCE60E570E08AE0E7
S113105090E00E94AF028DEA9FEF0E949B02A0CE17
S113106060E570E08FE090E00E94AF028FEB9FEFAD
S11310700E949B0295CE60E570E084E190E00E94BE
S1131080AF028BEF9FEF0E949B02B092600010931F
S11310907A000093790084CE8BE08093600080CE48
S11310A08CE0809360007CCE85E190E00E942D036B
S11310B080E090E00E949B0268ED7FEF88ED9FEF57
S11310C00E94AF02109265001092640010926300B7
S11310D01092620086E18093600062CE86E190E027
S11310E00E942D0380916100833088F462E370E0F4
S11310F082E390E00E94AF0287E180936000109247
S113110065001092640010926300109262000E94C5
S113111074048E7790E0FC013297EF36F10508F005
S11311203FCEE752FF4F0C94540D80E090E00E94B4
S11311309B0236CE8EE090E00E949B0231CE86E187
S113114090E00E949B022CCE84E290E00E949B02DD
S113115027CE87E390E00E949B0222CE80E590E0B8
S11311600E949B021DCE82EF9FEF0E949B0218CE2D
S11311708AEE9FEF0E949B0213CE8CED9FEF0E949C
S11311809B020ECE89EC9FEF0E949B0209CE80EB5E
S11311909FEF0E949B0204CE87E190E00E942D0302
S11311A00E94740480936600209162003091630071
S11311B02630310540F1982F987F983F41F0982FC1
S11311C0907F903F21F0982F907E903E41F48AE1E9
S11311D0809360001092650010926400E1CD982F16
S11311E09F719F3141F0982F9770973021F0982F7D
S11311F09F709F3041F48BE18093600010926500F2
S113120010926400CDCD8E77A9F489E480936000B8
S113121080E090E00E949B0264E670E084E690E047
S11312200E94AF0210926500109264001092630055
S113123010926200809166008E7790E0FC013297F4
S1131240EF36F10508F0ACCDE85BFE4F0C94540D7D
S113125080E090E00E949B02A3CD8EE090E00E948B
S11312609B029ECD86E190E00E949B0299CD84E290
S113127090E00E949B0294CD87E390E00E949B0241
S11312808FCD80E590E00E949B028ACD82EF9FEF94
S11312900E949B0285CD8AEE9FEF0E949B0280CD27
S11312A08CED9FEF0E949B027BCD89EC9FEF0E9407
S11312B09B0276CD80EB9FEF0E949B0271CD8AE169
S11312C090E00E942D0385E69FEF0E949B0260E55B
S11312D070E08CE99FEF0E94AF0290926000109240
S11312E0650010926400109263001092620058CD61
S11312F08BE190E00E942D038BE990E00E949B0219
S11313006CE97FEF80E590E00E94AF02809260007C
S113131010926500109264001092630010926200B3
S11313203FCD8FE190E00E942D0380916400909165
S11313306500893C910508F433CD40926000109219
S1131340650010926400109263001092620028CD30
S113135080E290E00E942D030E9474048093660052
S1131360877E803209F01CCDB092600019CD89E2ED
S113137090E00E942D038091640090916500893C67
S1131380910508F40DCD5092600010926500109202
S1131390640006CD8AE290E00E942D030E9474044A
S11313A080936600877E843009F0FACCB0926000A6
S11313B0F7CC83E390E00E942D030E947404809391
S11313C06600982F9770973039F0982F9F709F3050
S11313D019F08F718F3119F4A0926000E1CC66E4AA
S11313E070E086E490E00E94AF02809162009091E8
S11313F06300499740F480916400909165008837B8
S1131400910508F4CDCC84E38093600010926500CC
S1131410109264001092630010926200C1CC84E3C5
S113142090E00E942D0387EE9FEF0E949B0264E6EA
S113143070E080E590E00E94AF027092600010922C
S11314406500109264001092630010926200A8CCB0
S113145085E390E00E942D030E947404282E80935B
S1131460660080916200909163008536910508F5CD
S1131470609164007091650080E090E00E94270C08
S11314806B017C0120E030E048E453E460916A00A1
S113149070916B0080916C0090916D000E94DD0C46
S11314A09B01AC01C701B6010E94D90C18160CF0BF
S11314B077CC822D8073803309F072CCB0926000B7
S11314C06FCC8DE390E00E942D030E9474048093FE
S11314D06600982F907E903E19F0887F883F19F41B
S11314E0A09260005DCC66E470E086E490E00E9427
S11314F0AF028091620090916300499740F480911B
S11315006400909165008837910508F449CC3092C5
S113151060001092650010926400109263001092B3
S113152062003ECC8EE390E00E942D0389E190E0BE
S11315300E949B0260E570E084E690E00E94AF02A6
S11315406092600010926500109264001092630033
S11315501092620025CC8FE390E00E942D030E943C
S11315607404282E80936600809162009091630039
S11315708536910508F5609164007091650080E0FE
S113158090E00E94270C6B017C0120E030E048E4ED
S113159053E460916A0070916B0080916C009091AB
S11315A06D000E94DD0C9B01AC01C701B6010E94D5
S11315B0D90C18160CF0F4CB822D8073803309F00B
S11315C0EFCBB0926000ECCB89E490E00E942D0355
S11315D0D0937A00C09379006CE370E08CE390E0E0
S11315E00E94AF020E94740480936600807C803C59
S11315F021F488E290E00E949B0280916600882397
S113160024F48EE190E00E949B0280916600837036
S1131610833021F488ED9FEF0E949B028091660045
S113162080FF04C082EE9FEF0E949B0280916600BF
S11316308C7309F4B5CBB092600010937A000093D8
S11316407900AECBB0926000ABCB5058BB27AA2731
S11316500ED075C166D130F06BD120F031F49F3FCC
S113166011F41EF45BC10EF4E095E7FB51C1E92FC0
S113167077D180F3BA17620773078407950718F0C8
S113168071F49EF58FC10EF4E0950B2EBA2FA02DA8
S11316900B01B90190010C01CA01A0011124FF271B
S11316A0591B99F0593F50F4503E68F11A16F04016
S11316B0A22F232F342F4427585FF3CF4695379515
S11316C02795A795F0405395C9F77EF41F16BA0BDA
S11316D0620B730B840BBAF09150A1F0FF0FBB1F88
S11316E0661F771F881FC2F70EC0BA0F621F731FD1
S11316F0841F48F4879577956795B795F7959E3F2E
S113170008F0B3CF9395880F08F09927EE0F9795BB
S113171087950895D9D008F481E008950CD00FC1BD
S113172007D140F0FED030F021F45F3F19F0F0C053
S1131730511139C1F3C014D198F39923C9F3552336
S1131740B1F3951B550BBB27AA27621773078407B0
S113175038F09F5F5F4F220F331F441FAA1FA9F366
S113176033D00E2E3AF0E0E830D091505040E69558
S1131770001CCAF729D0FE2F27D0660F771F881FB9
S1131780BB1F261737074807AB07B0E809F0BB0BA8
S1131790802DBF01FF2793585F4F2AF09E3F5105CC
S11317A068F0B6C000C15F3FECF3983EDCF3869569
S11317B077956795B795F7959F5FC9F7880F911D42
S11317C09695879597F90895E1E0660F771F881F2E
S11317D0BB1F621773078407BA0720F0621B730BE1
S11317E0840BBA0BEE1F88F7E095089504D0689433
S11317F0B111D9C00895BCD088F09F5790F0B92F8B
S11318009927B751A0F0D1F0660F771F881F991F51
S11318101AF0BA95C9F712C0B13081F0C3D0B1E063
S11318200895C0C0672F782F8827B85F39F0B93F73
S1131830CCF3869577956795B395D9F73EF4909553
S11318408095709561957F4F8F4F9F4F0895E894D1
S113185009C097FB3EF490958095709561957F4FF4
S11318608F4F9F4F9923A9F0F92F96E9BB279395A2
S1131870F695879577956795B795F111F8CFFAF4B2
S1131880BB0F11F460FF1BC06F5F7F4F8F4F9F4FE3
S113189016C0882311F096E911C0772321F09EE841
S11318A0872F762F05C0662371F096E8862F70E0A7
S11318B060E02AF09A95660F771F881FDAF7880F81
S11318C09695879597F90895990F0008550FAA0BD7
S11318D0E0E8FEEF16161706E807F907C0F012163F
S11318E01306E407F50798F0621B730B840B950B42
S11318F039F40A2661F0232B242B252B21F4089597
S11319000A2609F4A140A6958FEF811D811D089533
S113191097F99F6780E870E060E008959FEF80EC9E
S1131920089500240A941616170618060906089541
S113193000240A9412161306140605060895092EA7
S11319400394000C11F4882352F0BB0F40F4BF2B16
S113195011F460FF04C06F5F7F4F8F4F9F4F089556
S113196057FD9058440F551F59F05F3F71F047954C
S1131970880F97FB991F61F09F3F79F08795089531
S1131980121613061406551FF2CF4695F1DF08C050
S1131990161617061806991FF1CF8695710561056D
S11319A008940895E894BB2766277727CB0197F915
S11319B008958ADF08F48FEF08950BD0C0CFB1DF0C
S11319C028F0B6DF18F0952309F0A2CFA7CF112491
S11319D0EACFC6DFA0F3959FD1F3950F50E0551FD2
S11319E0629FF001729FBB27F00DB11D639FAA2770
S11319F0F00DB11DAA1F649F6627B00DA11D661FBF
S1131A00829F2227B00DA11D621F739FB00DA11DDF
S1131A10621F839FA00D611D221F749F3327A00D99
S1131A20611D231F849F600D211D822F762F6A2F35
S1131A3011249F5750408AF0E1F088234AF0EE0FBA
S1131A40FF1FBB1F661F771F881F91505040A9F7C7
S1131A509E3F510570F05CCFA6CF5F3FECF3983EFC
S1131A60DCF3869577956795B795F795E7959F5F2E
S1131A70C1F7FE2B880F911D9695879597F90895C8
S1131A8097FB072E16F4009407D077FD09D00E9427
S1131A90690D07FC05D03EF4909581959F4F0895FC
S1131AA0709561957F4F0895EE0FFF1F0590F49197
S1131AB0E02D0994A29FB001B39FC001A39F700DB4
S1131AC0811D1124911DB29F700D811D1124911D42
S1131AD00895AA1BBB1B51E107C0AA1FBB1FA61771
S1131AE0B70710F0A61BB70B881F991F5A95A9F7C3
S1131AF080959095BC01CD010895A8E1B0E042E045
S1131B0050E00C948A0D0E94980D272F0C94990D87
S1131B10DC01CB01FC01E199FECF06C0FFBBEEBBAB
S1131B20E09A31960DB20D9241505040B8F70895A5
S1131B30262FE199FECF9FBB8EBB2DBB0FB6F89429
S1111B40E29AE19A0FBE01960895F894FFCF41
S1051B4E0AFF88
S9030000FC
